{"contracts/Airdrop.sol":{"Airdrop":{"abi":[{"inputs":[{"internalType":"address[]","name":"_whitelist","type":"address[]"},{"internalType":"address","name":"_token","type":"address"}],"stateMutability":"nonpayable","type":"constructor"},{"inputs":[],"name":"GAS_LIMIT","outputs":[{"internalType":"uint256","name":"","type":"uint256"}],"stateMutability":"view","type":"function"},{"inputs":[],"name":"claim","outputs":[],"stateMutability":"nonpayable","type":"function"},{"inputs":[{"internalType":"address","name":"","type":"address"}],"name":"claimed","outputs":[{"internalType":"bool","name":"","type":"bool"}],"stateMutability":"view","type":"function"},{"inputs":[],"name":"owner","outputs":[{"internalType":"address","name":"","type":"address"}],"stateMutability":"view","type":"function"},{"inputs":[],"name":"pause","outputs":[],"stateMutability":"nonpayable","type":"function"},{"inputs":[],"name":"paused","outputs":[{"internalType":"bool","name":"","type":"bool"}],"stateMutability":"view","type":"function"},{"inputs":[],"name":"token","outputs":[{"internalType":"contract ERC20","name":"","type":"address"}],"stateMutability":"view","type":"function"},{"inputs":[],"name":"unpause","outputs":[],"stateMutability":"nonpayable","type":"function"},{"inputs":[{"internalType":"address","name":"","type":"address"}],"name":"whitelist","outputs":[{"internalType":"bool","name":"","type":"bool"}],"stateMutability":"view","type":"function"}],"devdoc":{"kind":"dev","methods":{},"version":1},"evm":{"bytecode":{"linkReferences":{},"object":"608060405234801561001057600080fd5b5060405161079838038061079883398101604081905261002f91610106565b60005b825181101561009757600160026000858481518110610053576100536101dc565b6020908102919091018101516001600160a01b03168252810191909152604001600020805460ff19169115159190911790558061008f816101f2565b915050610032565b50600080546001600160a01b0319166001600160a01b039290921691909117905550600380546001600160a81b0319166101003302179055610219565b634e487b7160e01b600052604160045260246000fd5b80516001600160a01b038116811461010157600080fd5b919050565b6000806040838503121561011957600080fd5b82516001600160401b038082111561013057600080fd5b818501915085601f83011261014457600080fd5b8151602082821115610158576101586100d4565b8160051b604051601f19603f8301168101818110868211171561017d5761017d6100d4565b60405292835281830193508481018201928984111561019b57600080fd5b948201945b838610156101c0576101b1866100ea565b855294820194938201936101a0565b96506101cf90508782016100ea565b9450505050509250929050565b634e487b7160e01b600052603260045260246000fd5b60006001820161021257634e487b7160e01b600052601160045260246000fd5b5060010190565b610570806102286000396000f3fe608060405234801561001057600080fd5b50600436106100a35760003560e01c80638456cb59116100765780639b19251a1161005b5780639b19251a1461012c578063c884ef831461014f578063fc0c546a1461017257600080fd5b80638456cb59146100f45780638da5cb5b146100fc57600080fd5b8063091d2788146100a85780633f4ba83a146100c55780634e71d92d146100cf5780635c975abb146100d7575b600080fd5b6100b2620493e081565b6040519081526020015b60405180910390f35b6100cd610185565b005b6100cd610204565b6003546100e49060ff1681565b60405190151581526020016100bc565b6100cd61046b565b6003546101149061010090046001600160a01b031681565b6040516001600160a01b0390911681526020016100bc565b6100e461013a3660046104e8565b60026020526000908152604090205460ff1681565b6100e461015d3660046104e8565b60016020526000908152604090205460ff1681565b600054610114906001600160a01b031681565b60035461010090046001600160a01b031633146101f85760405162461bcd60e51b815260206004820152602660248201527f4f6e6c7920746865206f776e65722063616e2063616c6c20746869732066756e60448201526531ba34b7b71760d11b60648201526084015b60405180910390fd5b6003805460ff19169055565b3360009081526002602052604090205460ff166102895760405162461bcd60e51b815260206004820152602d60248201527f596f7520617265206e6f7420617574686f72697a656420746f2063616c6c207460448201527f6869732066756e6374696f6e2e0000000000000000000000000000000000000060648201526084016101ef565b620493e05a81146102dc5760405162461bcd60e51b815260206004820152601260248201527f496e76616c696420676173206c696d69742e000000000000000000000000000060448201526064016101ef565b60035460ff161561032f5760405162461bcd60e51b815260206004820152601760248201527f54686520636f6e7472616374206973207061757365642e00000000000000000060448201526064016101ef565b3360009081526001602052604090205460ff16156103b55760405162461bcd60e51b815260206004820152602560248201527f596f75206861766520616c726561647920636c61696d6564207468652061697260448201527f64726f702e00000000000000000000000000000000000000000000000000000060648201526084016101ef565b336000818152600160208190526040808320805460ff1916909217909155905490517fa9059cbb000000000000000000000000000000000000000000000000000000008152600481019290925268056bc75e2d6310000060248301526001600160a01b03169063a9059cbb906044016020604051808303816000875af1158015610443573d6000803e3d6000fd5b505050506040513d601f19601f820116820180604052508101906104679190610518565b5050565b60035461010090046001600160a01b031633146104d95760405162461bcd60e51b815260206004820152602660248201527f4f6e6c7920746865206f776e65722063616e2063616c6c20746869732066756e60448201526531ba34b7b71760d11b60648201526084016101ef565b6003805460ff19166001179055565b6000602082840312156104fa57600080fd5b81356001600160a01b038116811461051157600080fd5b9392505050565b60006020828403121561052a57600080fd5b8151801515811461051157600080fdfea2646970667358221220b377035736d049fef4ff824a10c8a4c494d525bbb3c3fd735eae5857a94d0c8364736f6c63430008110033","opcodes":"PUSH1 0x80 PUSH1 0x40 MSTORE CALLVALUE DUP1 ISZERO PUSH2 0x10 JUMPI PUSH1 0x0 DUP1 REVERT JUMPDEST POP PUSH1 0x40 MLOAD PUSH2 0x798 CODESIZE SUB DUP1 PUSH2 0x798 DUP4 CODECOPY DUP2 ADD PUSH1 0x40 DUP2 SWAP1 MSTORE PUSH2 0x2F SWAP2 PUSH2 0x106 JUMP JUMPDEST PUSH1 0x0 JUMPDEST DUP3 MLOAD DUP2 LT ISZERO PUSH2 0x97 JUMPI PUSH1 0x1 PUSH1 0x2 PUSH1 0x0 DUP6 DUP5 DUP2 MLOAD DUP2 LT PUSH2 0x53 JUMPI PUSH2 0x53 PUSH2 0x1DC JUMP JUMPDEST PUSH1 0x20 SWAP1 DUP2 MUL SWAP2 SWAP1 SWAP2 ADD DUP2 ADD MLOAD PUSH1 0x1 PUSH1 0x1 PUSH1 0xA0 SHL SUB AND DUP3 MSTORE DUP2 ADD SWAP2 SWAP1 SWAP2 MSTORE PUSH1 0x40 ADD PUSH1 0x0 KECCAK256 DUP1 SLOAD PUSH1 0xFF NOT AND SWAP2 ISZERO ISZERO SWAP2 SWAP1 SWAP2 OR SWAP1 SSTORE DUP1 PUSH2 0x8F DUP2 PUSH2 0x1F2 JUMP JUMPDEST SWAP2 POP POP PUSH2 0x32 JUMP JUMPDEST POP PUSH1 0x0 DUP1 SLOAD PUSH1 0x1 PUSH1 0x1 PUSH1 0xA0 SHL SUB NOT AND PUSH1 0x1 PUSH1 0x1 PUSH1 0xA0 SHL SUB SWAP3 SWAP1 SWAP3 AND SWAP2 SWAP1 SWAP2 OR SWAP1 SSTORE POP PUSH1 0x3 DUP1 SLOAD PUSH1 0x1 PUSH1 0x1 PUSH1 0xA8 SHL SUB NOT AND PUSH2 0x100 CALLER MUL OR SWAP1 SSTORE PUSH2 0x219 JUMP JUMPDEST PUSH4 0x4E487B71 PUSH1 0xE0 SHL PUSH1 0x0 MSTORE PUSH1 0x41 PUSH1 0x4 MSTORE PUSH1 0x24 PUSH1 0x0 REVERT JUMPDEST DUP1 MLOAD PUSH1 0x1 PUSH1 0x1 PUSH1 0xA0 SHL SUB DUP2 AND DUP2 EQ PUSH2 0x101 JUMPI PUSH1 0x0 DUP1 REVERT JUMPDEST SWAP2 SWAP1 POP JUMP JUMPDEST PUSH1 0x0 DUP1 PUSH1 0x40 DUP4 DUP6 SUB SLT ISZERO PUSH2 0x119 JUMPI PUSH1 0x0 DUP1 REVERT JUMPDEST DUP3 MLOAD PUSH1 0x1 PUSH1 0x1 PUSH1 0x40 SHL SUB DUP1 DUP3 GT ISZERO PUSH2 0x130 JUMPI PUSH1 0x0 DUP1 REVERT JUMPDEST DUP2 DUP6 ADD SWAP2 POP DUP6 PUSH1 0x1F DUP4 ADD SLT PUSH2 0x144 JUMPI PUSH1 0x0 DUP1 REVERT JUMPDEST DUP2 MLOAD PUSH1 0x20 DUP3 DUP3 GT ISZERO PUSH2 0x158 JUMPI PUSH2 0x158 PUSH2 0xD4 JUMP JUMPDEST DUP2 PUSH1 0x5 SHL PUSH1 0x40 MLOAD PUSH1 0x1F NOT PUSH1 0x3F DUP4 ADD AND DUP2 ADD DUP2 DUP2 LT DUP7 DUP3 GT OR ISZERO PUSH2 0x17D JUMPI PUSH2 0x17D PUSH2 0xD4 JUMP JUMPDEST PUSH1 0x40 MSTORE SWAP3 DUP4 MSTORE DUP2 DUP4 ADD SWAP4 POP DUP5 DUP2 ADD DUP3 ADD SWAP3 DUP10 DUP5 GT ISZERO PUSH2 0x19B JUMPI PUSH1 0x0 DUP1 REVERT JUMPDEST SWAP5 DUP3 ADD SWAP5 JUMPDEST DUP4 DUP7 LT ISZERO PUSH2 0x1C0 JUMPI PUSH2 0x1B1 DUP7 PUSH2 0xEA JUMP JUMPDEST DUP6 MSTORE SWAP5 DUP3 ADD SWAP5 SWAP4 DUP3 ADD SWAP4 PUSH2 0x1A0 JUMP JUMPDEST SWAP7 POP PUSH2 0x1CF SWAP1 POP DUP8 DUP3 ADD PUSH2 0xEA JUMP JUMPDEST SWAP5 POP POP POP POP POP SWAP3 POP SWAP3 SWAP1 POP JUMP JUMPDEST PUSH4 0x4E487B71 PUSH1 0xE0 SHL PUSH1 0x0 MSTORE PUSH1 0x32 PUSH1 0x4 MSTORE PUSH1 0x24 PUSH1 0x0 REVERT JUMPDEST PUSH1 0x0 PUSH1 0x1 DUP3 ADD PUSH2 0x212 JUMPI PUSH4 0x4E487B71 PUSH1 0xE0 SHL PUSH1 0x0 MSTORE PUSH1 0x11 PUSH1 0x4 MSTORE PUSH1 0x24 PUSH1 0x0 REVERT JUMPDEST POP PUSH1 0x1 ADD SWAP1 JUMP JUMPDEST PUSH2 0x570 DUP1 PUSH2 0x228 PUSH1 0x0 CODECOPY PUSH1 0x0 RETURN INVALID PUSH1 0x80 PUSH1 0x40 MSTORE CALLVALUE DUP1 ISZERO PUSH2 0x10 JUMPI PUSH1 0x0 DUP1 REVERT JUMPDEST POP PUSH1 0x4 CALLDATASIZE LT PUSH2 0xA3 JUMPI PUSH1 0x0 CALLDATALOAD PUSH1 0xE0 SHR DUP1 PUSH4 0x8456CB59 GT PUSH2 0x76 JUMPI DUP1 PUSH4 0x9B19251A GT PUSH2 0x5B JUMPI DUP1 PUSH4 0x9B19251A EQ PUSH2 0x12C JUMPI DUP1 PUSH4 0xC884EF83 EQ PUSH2 0x14F JUMPI DUP1 PUSH4 0xFC0C546A EQ PUSH2 0x172 JUMPI PUSH1 0x0 DUP1 REVERT JUMPDEST DUP1 PUSH4 0x8456CB59 EQ PUSH2 0xF4 JUMPI DUP1 PUSH4 0x8DA5CB5B EQ PUSH2 0xFC JUMPI PUSH1 0x0 DUP1 REVERT JUMPDEST DUP1 PUSH4 0x91D2788 EQ PUSH2 0xA8 JUMPI DUP1 PUSH4 0x3F4BA83A EQ PUSH2 0xC5 JUMPI DUP1 PUSH4 0x4E71D92D EQ PUSH2 0xCF JUMPI DUP1 PUSH4 0x5C975ABB EQ PUSH2 0xD7 JUMPI JUMPDEST PUSH1 0x0 DUP1 REVERT JUMPDEST PUSH2 0xB2 PUSH3 0x493E0 DUP2 JUMP JUMPDEST PUSH1 0x40 MLOAD SWAP1 DUP2 MSTORE PUSH1 0x20 ADD JUMPDEST PUSH1 0x40 MLOAD DUP1 SWAP2 SUB SWAP1 RETURN JUMPDEST PUSH2 0xCD PUSH2 0x185 JUMP JUMPDEST STOP JUMPDEST PUSH2 0xCD PUSH2 0x204 JUMP JUMPDEST PUSH1 0x3 SLOAD PUSH2 0xE4 SWAP1 PUSH1 0xFF AND DUP2 JUMP JUMPDEST PUSH1 0x40 MLOAD SWAP1 ISZERO ISZERO DUP2 MSTORE PUSH1 0x20 ADD PUSH2 0xBC JUMP JUMPDEST PUSH2 0xCD PUSH2 0x46B JUMP JUMPDEST PUSH1 0x3 SLOAD PUSH2 0x114 SWAP1 PUSH2 0x100 SWAP1 DIV PUSH1 0x1 PUSH1 0x1 PUSH1 0xA0 SHL SUB AND DUP2 JUMP JUMPDEST PUSH1 0x40 MLOAD PUSH1 0x1 PUSH1 0x1 PUSH1 0xA0 SHL SUB SWAP1 SWAP2 AND DUP2 MSTORE PUSH1 0x20 ADD PUSH2 0xBC JUMP JUMPDEST PUSH2 0xE4 PUSH2 0x13A CALLDATASIZE PUSH1 0x4 PUSH2 0x4E8 JUMP JUMPDEST PUSH1 0x2 PUSH1 0x20 MSTORE PUSH1 0x0 SWAP1 DUP2 MSTORE PUSH1 0x40 SWAP1 KECCAK256 SLOAD PUSH1 0xFF AND DUP2 JUMP JUMPDEST PUSH2 0xE4 PUSH2 0x15D CALLDATASIZE PUSH1 0x4 PUSH2 0x4E8 JUMP JUMPDEST PUSH1 0x1 PUSH1 0x20 MSTORE PUSH1 0x0 SWAP1 DUP2 MSTORE PUSH1 0x40 SWAP1 KECCAK256 SLOAD PUSH1 0xFF AND DUP2 JUMP JUMPDEST PUSH1 0x0 SLOAD PUSH2 0x114 SWAP1 PUSH1 0x1 PUSH1 0x1 PUSH1 0xA0 SHL SUB AND DUP2 JUMP JUMPDEST PUSH1 0x3 SLOAD PUSH2 0x100 SWAP1 DIV PUSH1 0x1 PUSH1 0x1 PUSH1 0xA0 SHL SUB AND CALLER EQ PUSH2 0x1F8 JUMPI PUSH1 0x40 MLOAD PUSH3 0x461BCD PUSH1 0xE5 SHL DUP2 MSTORE PUSH1 0x20 PUSH1 0x4 DUP3 ADD MSTORE PUSH1 0x26 PUSH1 0x24 DUP3 ADD MSTORE PUSH32 0x4F6E6C7920746865206F776E65722063616E2063616C6C20746869732066756E PUSH1 0x44 DUP3 ADD MSTORE PUSH6 0x31BA34B7B717 PUSH1 0xD1 SHL PUSH1 0x64 DUP3 ADD MSTORE PUSH1 0x84 ADD JUMPDEST PUSH1 0x40 MLOAD DUP1 SWAP2 SUB SWAP1 REVERT JUMPDEST PUSH1 0x3 DUP1 SLOAD PUSH1 0xFF NOT AND SWAP1 SSTORE JUMP JUMPDEST CALLER PUSH1 0x0 SWAP1 DUP2 MSTORE PUSH1 0x2 PUSH1 0x20 MSTORE PUSH1 0x40 SWAP1 KECCAK256 SLOAD PUSH1 0xFF AND PUSH2 0x289 JUMPI PUSH1 0x40 MLOAD PUSH3 0x461BCD PUSH1 0xE5 SHL DUP2 MSTORE PUSH1 0x20 PUSH1 0x4 DUP3 ADD MSTORE PUSH1 0x2D PUSH1 0x24 DUP3 ADD MSTORE PUSH32 0x596F7520617265206E6F7420617574686F72697A656420746F2063616C6C2074 PUSH1 0x44 DUP3 ADD MSTORE PUSH32 0x6869732066756E6374696F6E2E00000000000000000000000000000000000000 PUSH1 0x64 DUP3 ADD MSTORE PUSH1 0x84 ADD PUSH2 0x1EF JUMP JUMPDEST PUSH3 0x493E0 GAS DUP2 EQ PUSH2 0x2DC JUMPI PUSH1 0x40 MLOAD PUSH3 0x461BCD PUSH1 0xE5 SHL DUP2 MSTORE PUSH1 0x20 PUSH1 0x4 DUP3 ADD MSTORE PUSH1 0x12 PUSH1 0x24 DUP3 ADD MSTORE PUSH32 0x496E76616C696420676173206C696D69742E0000000000000000000000000000 PUSH1 0x44 DUP3 ADD MSTORE PUSH1 0x64 ADD PUSH2 0x1EF JUMP JUMPDEST PUSH1 0x3 SLOAD PUSH1 0xFF AND ISZERO PUSH2 0x32F JUMPI PUSH1 0x40 MLOAD PUSH3 0x461BCD PUSH1 0xE5 SHL DUP2 MSTORE PUSH1 0x20 PUSH1 0x4 DUP3 ADD MSTORE PUSH1 0x17 PUSH1 0x24 DUP3 ADD MSTORE PUSH32 0x54686520636F6E7472616374206973207061757365642E000000000000000000 PUSH1 0x44 DUP3 ADD MSTORE PUSH1 0x64 ADD PUSH2 0x1EF JUMP JUMPDEST CALLER PUSH1 0x0 SWAP1 DUP2 MSTORE PUSH1 0x1 PUSH1 0x20 MSTORE PUSH1 0x40 SWAP1 KECCAK256 SLOAD PUSH1 0xFF AND ISZERO PUSH2 0x3B5 JUMPI PUSH1 0x40 MLOAD PUSH3 0x461BCD PUSH1 0xE5 SHL DUP2 MSTORE PUSH1 0x20 PUSH1 0x4 DUP3 ADD MSTORE PUSH1 0x25 PUSH1 0x24 DUP3 ADD MSTORE PUSH32 0x596F75206861766520616C726561647920636C61696D65642074686520616972 PUSH1 0x44 DUP3 ADD MSTORE PUSH32 0x64726F702E000000000000000000000000000000000000000000000000000000 PUSH1 0x64 DUP3 ADD MSTORE PUSH1 0x84 ADD PUSH2 0x1EF JUMP JUMPDEST CALLER PUSH1 0x0 DUP2 DUP2 MSTORE PUSH1 0x1 PUSH1 0x20 DUP2 SWAP1 MSTORE PUSH1 0x40 DUP1 DUP4 KECCAK256 DUP1 SLOAD PUSH1 0xFF NOT AND SWAP1 SWAP3 OR SWAP1 SWAP2 SSTORE SWAP1 SLOAD SWAP1 MLOAD PUSH32 0xA9059CBB00000000000000000000000000000000000000000000000000000000 DUP2 MSTORE PUSH1 0x4 DUP2 ADD SWAP3 SWAP1 SWAP3 MSTORE PUSH9 0x56BC75E2D63100000 PUSH1 0x24 DUP4 ADD MSTORE PUSH1 0x1 PUSH1 0x1 PUSH1 0xA0 SHL SUB AND SWAP1 PUSH4 0xA9059CBB SWAP1 PUSH1 0x44 ADD PUSH1 0x20 PUSH1 0x40 MLOAD DUP1 DUP4 SUB DUP2 PUSH1 0x0 DUP8 GAS CALL ISZERO DUP1 ISZERO PUSH2 0x443 JUMPI RETURNDATASIZE PUSH1 0x0 DUP1 RETURNDATACOPY RETURNDATASIZE PUSH1 0x0 REVERT JUMPDEST POP POP POP POP PUSH1 0x40 MLOAD RETURNDATASIZE PUSH1 0x1F NOT PUSH1 0x1F DUP3 ADD AND DUP3 ADD DUP1 PUSH1 0x40 MSTORE POP DUP2 ADD SWAP1 PUSH2 0x467 SWAP2 SWAP1 PUSH2 0x518 JUMP JUMPDEST POP POP JUMP JUMPDEST PUSH1 0x3 SLOAD PUSH2 0x100 SWAP1 DIV PUSH1 0x1 PUSH1 0x1 PUSH1 0xA0 SHL SUB AND CALLER EQ PUSH2 0x4D9 JUMPI PUSH1 0x40 MLOAD PUSH3 0x461BCD PUSH1 0xE5 SHL DUP2 MSTORE PUSH1 0x20 PUSH1 0x4 DUP3 ADD MSTORE PUSH1 0x26 PUSH1 0x24 DUP3 ADD MSTORE PUSH32 0x4F6E6C7920746865206F776E65722063616E2063616C6C20746869732066756E PUSH1 0x44 DUP3 ADD MSTORE PUSH6 0x31BA34B7B717 PUSH1 0xD1 SHL PUSH1 0x64 DUP3 ADD MSTORE PUSH1 0x84 ADD PUSH2 0x1EF JUMP JUMPDEST PUSH1 0x3 DUP1 SLOAD PUSH1 0xFF NOT AND PUSH1 0x1 OR SWAP1 SSTORE JUMP JUMPDEST PUSH1 0x0 PUSH1 0x20 DUP3 DUP5 SUB SLT ISZERO PUSH2 0x4FA JUMPI PUSH1 0x0 DUP1 REVERT JUMPDEST DUP2 CALLDATALOAD PUSH1 0x1 PUSH1 0x1 PUSH1 0xA0 SHL SUB DUP2 AND DUP2 EQ PUSH2 0x511 JUMPI PUSH1 0x0 DUP1 REVERT JUMPDEST SWAP4 SWAP3 POP POP POP JUMP JUMPDEST PUSH1 0x0 PUSH1 0x20 DUP3 DUP5 SUB SLT ISZERO PUSH2 0x52A JUMPI PUSH1 0x0 DUP1 REVERT JUMPDEST DUP2 MLOAD DUP1 ISZERO ISZERO DUP2 EQ PUSH2 0x511 JUMPI PUSH1 0x0 DUP1 REVERT INVALID LOG2 PUSH5 0x6970667358 0x22 SLT KECCAK256 0xB3 PUSH24 0x35736D049FEF4FF824A10C8A4C494D525BBB3C3FD735EAE PC JUMPI 0xA9 0x4D 0xC DUP4 PUSH5 0x736F6C6343 STOP ADDMOD GT STOP CALLER "},"gasEstimates":{"creation":{"codeDepositCost":"278400","executionCost":"infinite","totalCost":"infinite"},"external":{"GAS_LIMIT()":"185","claim()":"infinite","claimed(address)":"2540","owner()":"2393","pause()":"26542","paused()":"2377","token()":"2403","unpause()":"26536","whitelist(address)":"2518"}},"methodIdentifiers":{"GAS_LIMIT()":"091d2788","claim()":"4e71d92d","claimed(address)":"c884ef83","owner()":"8da5cb5b","pause()":"8456cb59","paused()":"5c975abb","token()":"fc0c546a","unpause()":"3f4ba83a","whitelist(address)":"9b19251a"}},"storageLayout":{"storage":[{"astId":3043,"contract":"contracts/Airdrop.sol:Airdrop","label":"token","offset":0,"slot":"0","type":"t_contract(ERC20)3040"},{"astId":3047,"contract":"contracts/Airdrop.sol:Airdrop","label":"claimed","offset":0,"slot":"1","type":"t_mapping(t_address,t_bool)"},{"astId":3051,"contract":"contracts/Airdrop.sol:Airdrop","label":"whitelist","offset":0,"slot":"2","type":"t_mapping(t_address,t_bool)"},{"astId":3053,"contract":"contracts/Airdrop.sol:Airdrop","label":"paused","offset":0,"slot":"3","type":"t_bool"},{"astId":3055,"contract":"contracts/Airdrop.sol:Airdrop","label":"owner","offset":1,"slot":"3","type":"t_address"}],"types":{"t_address":{"encoding":"inplace","label":"address","numberOfBytes":"20"},"t_bool":{"encoding":"inplace","label":"bool","numberOfBytes":"1"},"t_contract(ERC20)3040":{"encoding":"inplace","label":"contract ERC20","numberOfBytes":"20"},"t_mapping(t_address,t_bool)":{"encoding":"mapping","key":"t_address","label":"mapping(address => bool)","numberOfBytes":"32","value":"t_bool"}}},"userdoc":{"kind":"user","methods":{},"version":1}}}}