{"contracts/ICO.sol":{"MyToken":{"abi":[{"inputs":[{"internalType":"string","name":"name_","type":"string"},{"internalType":"string","name":"symbol_","type":"string"},{"internalType":"uint8","name":"decimals_","type":"uint8"},{"internalType":"uint256","name":"totalSupply_","type":"uint256"},{"internalType":"uint256","name":"maxSupply_","type":"uint256"}],"stateMutability":"nonpayable","type":"constructor"},{"anonymous":false,"inputs":[{"indexed":true,"internalType":"address","name":"owner","type":"address"},{"indexed":true,"internalType":"address","name":"spender","type":"address"},{"indexed":false,"internalType":"uint256","name":"value","type":"uint256"}],"name":"Approval","type":"event"},{"anonymous":false,"inputs":[{"indexed":true,"internalType":"address","name":"previousOwner","type":"address"},{"indexed":true,"internalType":"address","name":"newOwner","type":"address"}],"name":"OwnershipTransferred","type":"event"},{"anonymous":false,"inputs":[{"indexed":true,"internalType":"address","name":"from","type":"address"},{"indexed":true,"internalType":"address","name":"to","type":"address"},{"indexed":false,"internalType":"uint256","name":"value","type":"uint256"}],"name":"Transfer","type":"event"},{"inputs":[{"internalType":"address","name":"owner","type":"address"},{"internalType":"address","name":"spender","type":"address"}],"name":"allowance","outputs":[{"internalType":"uint256","name":"","type":"uint256"}],"stateMutability":"view","type":"function"},{"inputs":[{"internalType":"address","name":"spender","type":"address"},{"internalType":"uint256","name":"amount","type":"uint256"}],"name":"approve","outputs":[{"internalType":"bool","name":"","type":"bool"}],"stateMutability":"nonpayable","type":"function"},{"inputs":[{"internalType":"address","name":"account","type":"address"}],"name":"balanceOf","outputs":[{"internalType":"uint256","name":"","type":"uint256"}],"stateMutability":"view","type":"function"},{"inputs":[{"internalType":"uint256","name":"amount","type":"uint256"}],"name":"burn","outputs":[],"stateMutability":"nonpayable","type":"function"},{"inputs":[{"internalType":"address","name":"account","type":"address"},{"internalType":"uint256","name":"amount","type":"uint256"}],"name":"burnFrom","outputs":[],"stateMutability":"nonpayable","type":"function"},{"inputs":[],"name":"decimals","outputs":[{"internalType":"uint8","name":"","type":"uint8"}],"stateMutability":"view","type":"function"},{"inputs":[{"internalType":"address","name":"spender","type":"address"},{"internalType":"uint256","name":"subtractedValue","type":"uint256"}],"name":"decreaseAllowance","outputs":[{"internalType":"bool","name":"","type":"bool"}],"stateMutability":"nonpayable","type":"function"},{"inputs":[],"name":"disableMaxSupply","outputs":[],"stateMutability":"nonpayable","type":"function"},{"inputs":[],"name":"enableMaxSupply","outputs":[],"stateMutability":"nonpayable","type":"function"},{"inputs":[{"internalType":"address","name":"spender","type":"address"},{"internalType":"uint256","name":"addedValue","type":"uint256"}],"name":"increaseAllowance","outputs":[{"internalType":"bool","name":"","type":"bool"}],"stateMutability":"nonpayable","type":"function"},{"inputs":[{"internalType":"address","name":"account","type":"address"},{"internalType":"uint256","name":"amount","type":"uint256"}],"name":"mint","outputs":[],"stateMutability":"nonpayable","type":"function"},{"inputs":[],"name":"name","outputs":[{"internalType":"string","name":"","type":"string"}],"stateMutability":"view","type":"function"},{"inputs":[],"name":"owner","outputs":[{"internalType":"address","name":"","type":"address"}],"stateMutability":"view","type":"function"},{"inputs":[],"name":"renounceOwnership","outputs":[],"stateMutability":"nonpayable","type":"function"},{"inputs":[],"name":"symbol","outputs":[{"internalType":"string","name":"","type":"string"}],"stateMutability":"view","type":"function"},{"inputs":[],"name":"totalSupply","outputs":[{"internalType":"uint256","name":"","type":"uint256"}],"stateMutability":"view","type":"function"},{"inputs":[{"internalType":"address","name":"recipient","type":"address"},{"internalType":"uint256","name":"amount","type":"uint256"}],"name":"transfer","outputs":[{"internalType":"bool","name":"","type":"bool"}],"stateMutability":"nonpayable","type":"function"},{"inputs":[{"internalType":"address","name":"sender","type":"address"},{"internalType":"address","name":"recipient","type":"address"},{"internalType":"uint256","name":"amount","type":"uint256"}],"name":"transferFrom","outputs":[{"internalType":"bool","name":"","type":"bool"}],"stateMutability":"nonpayable","type":"function"},{"inputs":[{"internalType":"address","name":"newOwner","type":"address"}],"name":"transferOwnership","outputs":[],"stateMutability":"nonpayable","type":"function"}],"devdoc":{"kind":"dev","methods":{"allowance(address,address)":{"details":"Returns the remaining number of tokens that `spender` will be allowed to spend on behalf of `owner` through {transferFrom}. This is zero by default. This value changes when {approve} or {transferFrom} are called."},"approve(address,uint256)":{"details":"Sets `amount` as the allowance of `spender` over the caller's tokens. Returns a boolean value indicating whether the operation succeeded. IMPORTANT: Beware that changing an allowance with this method brings the risk that someone may use both the old and the new allowance by unfortunate transaction ordering. One possible solution to mitigate this race condition is to first reduce the spender's allowance to 0 and set the desired value afterwards: https://github.com/ethereum/EIPs/issues/20#issuecomment-263524729 Emits an {Approval} event."},"balanceOf(address)":{"details":"Returns the amount of tokens owned by `account`."},"decimals()":{"details":"Returns the decimals places of the token."},"name()":{"details":"Returns the name of the token."},"owner()":{"details":"Returns the address of the current owner."},"renounceOwnership()":{"details":"Leaves the contract without owner. It will not be possible to call `onlyOwner` functions. Can only be called by the current owner. NOTE: Renouncing ownership will leave the contract without an owner, thereby disabling any functionality that is only available to the owner."},"symbol()":{"details":"Returns the symbol of the token."},"totalSupply()":{"details":"Returns the amount of tokens in existence."},"transferOwnership(address)":{"details":"Transfers ownership of the contract to a new account (`newOwner`). Can only be called by the current owner."}},"version":1},"evm":{"bytecode":{"linkReferences":{},"object":"60806040523480156200001157600080fd5b506040516200153e3803806200153e83398101604081905262000034916200024f565b6200003f3362000123565b60036200004d868262000374565b5060046200005c858262000374565b506005805460ff191660ff8516179055620000926200007d84600a62000553565b836200017360201b620007391790919060201c565b600655620000bb620000a684600a62000553565b826200017360201b620007391790919060201c565b6007556006543360008181526001602081815260408084208690556008805460ff19169093179092559051938452919290917fddf252ad1be2c89b69c2b068fc378daa952ba7f163c4a11628f55a4df523b3ef910160405180910390a350505050506200057e565b600080546001600160a01b038381166001600160a01b0319831681178455604051919092169283917f8be0079c531659141344cd1fd0a4f28419497f9722a3daafe3b4186f6b6457e09190a35050565b600062000181828462000564565b90505b92915050565b634e487b7160e01b600052604160045260246000fd5b600082601f830112620001b257600080fd5b81516001600160401b0380821115620001cf57620001cf6200018a565b604051601f8301601f19908116603f01168101908282118183101715620001fa57620001fa6200018a565b816040528381526020925086838588010111156200021757600080fd5b600091505b838210156200023b57858201830151818301840152908201906200021c565b600093810190920192909252949350505050565b600080600080600060a086880312156200026857600080fd5b85516001600160401b03808211156200028057600080fd5b6200028e89838a01620001a0565b96506020880151915080821115620002a557600080fd5b50620002b488828901620001a0565b945050604086015160ff81168114620002cc57600080fd5b6060870151608090970151959894975095949392505050565b600181811c90821680620002fa57607f821691505b6020821081036200031b57634e487b7160e01b600052602260045260246000fd5b50919050565b601f8211156200036f57600081815260208120601f850160051c810160208610156200034a5750805b601f850160051c820191505b818110156200036b5782815560010162000356565b5050505b505050565b81516001600160401b038111156200039057620003906200018a565b620003a881620003a18454620002e5565b8462000321565b602080601f831160018114620003e05760008415620003c75750858301515b600019600386901b1c1916600185901b1785556200036b565b600085815260208120601f198616915b828110156200041157888601518255948401946001909101908401620003f0565b5085821015620004305787850151600019600388901b60f8161c191681555b5050505050600190811b01905550565b634e487b7160e01b600052601160045260246000fd5b600181815b80851115620004975781600019048211156200047b576200047b62000440565b808516156200048957918102915b93841c93908002906200045b565b509250929050565b600082620004b05750600162000184565b81620004bf5750600062000184565b8160018114620004d85760028114620004e35762000503565b600191505062000184565b60ff841115620004f757620004f762000440565b50506001821b62000184565b5060208310610133831016604e8410600b841016171562000528575081810a62000184565b62000534838362000456565b80600019048211156200054b576200054b62000440565b029392505050565b60006200018160ff8416836200049f565b808202811582820484141762000184576200018462000440565b610fb0806200058e6000396000f3fe608060405234801561001057600080fd5b50600436106101515760003560e01c8063715018a6116100cd578063a457c2d711610081578063dd62ed3e11610066578063dd62ed3e146102a1578063f2fde38b146102da578063f6808db6146102ed57600080fd5b8063a457c2d71461027b578063a9059cbb1461028e57600080fd5b80638da5cb5b116100b25780638da5cb5b146102505780638db64cec1461026b57806395d89b411461027357600080fd5b8063715018a61461023557806379cc67901461023d57600080fd5b8063313ce5671161012457806340c10f191161010957806340c10f19146101e457806342966c68146101f957806370a082311461020c57600080fd5b8063313ce567146101bc57806339509351146101d157600080fd5b806306fdde0314610156578063095ea7b31461017457806318160ddd1461019757806323b872dd146101a9575b600080fd5b61015e6102f5565b60405161016b9190610d45565b60405180910390f35b610187610182366004610daf565b610387565b604051901515815260200161016b565b6006545b60405190815260200161016b565b6101876101b7366004610dd9565b61039e565b60055460405160ff909116815260200161016b565b6101876101df366004610daf565b610407565b6101f76101f2366004610daf565b61043d565b005b6101f7610207366004610e15565b61058f565b61019b61021a366004610e2e565b6001600160a01b031660009081526001602052604090205490565b6101f761059c565b6101f761024b366004610daf565b6105b0565b6000546040516001600160a01b03909116815260200161016b565b6101f7610616565b61015e61062d565b610187610289366004610daf565b61063c565b61018761029c366004610daf565b61068b565b61019b6102af366004610e49565b6001600160a01b03918216600090815260026020908152604080832093909416825291909152205490565b6101f76102e8366004610e2e565b610698565b6101f7610725565b60606003805461030490610e7c565b80601f016020809104026020016040519081016040528092919081815260200182805461033090610e7c565b801561037d5780601f106103525761010080835404028352916020019161037d565b820191906000526020600020905b81548152906001019060200180831161036057829003601f168201915b5050505050905090565b600061039433848461074c565b5060015b92915050565b60006103ab8484846108a5565b6103fd84336103f885604051806060016040528060288152602001610f0a602891396001600160a01b038a1660009081526002602090815260408083203384529091529020549190610aab565b61074c565b5060019392505050565b3360008181526002602090815260408083206001600160a01b038716845290915281205490916103949185906103f89086610ad7565b610445610ae3565b60085460ff1615156001146104a15760405162461bcd60e51b815260206004820152601960248201527f45524332303a206d617820737570706c7920726561636865640000000000000060448201526064015b60405180910390fd5b6007546006546104b19083610ad7565b11156104ff5760405162461bcd60e51b815260206004820152601a60248201527f45524332303a206d617820737570706c792065786365656465640000000000006044820152606401610498565b60065461050c9082610ad7565b6006556001600160a01b0382166000908152600160205260409020546105329082610ad7565b6001600160a01b0383166000818152600160205260408082209390935591519091907fddf252ad1be2c89b69c2b068fc378daa952ba7f163c4a11628f55a4df523b3ef906105839085815260200190565b60405180910390a35050565b6105993382610b3d565b50565b6105a4610ae3565b6105ae6000610cd1565b565b60006105fa82604051806060016040528060248152602001610f32602491396001600160a01b03861660009081526002602090815260408083203384529091529020549190610aab565b905061060783338361074c565b6106118383610b3d565b505050565b61061e610ae3565b6008805460ff19166001179055565b60606004805461030490610e7c565b600061039433846103f885604051806060016040528060258152602001610f56602591393360009081526002602090815260408083206001600160a01b038d1684529091529020549190610aab565b60006103943384846108a5565b6106a0610ae3565b6001600160a01b03811661071c5760405162461bcd60e51b815260206004820152602660248201527f4f776e61626c653a206e6577206f776e657220697320746865207a65726f206160448201527f64647265737300000000000000000000000000000000000000000000000000006064820152608401610498565b61059981610cd1565b61072d610ae3565b6008805460ff19169055565b60006107458284610ecc565b9392505050565b6001600160a01b0383166107c75760405162461bcd60e51b8152602060048201526024808201527f45524332303a20617070726f76652066726f6d20746865207a65726f2061646460448201527f72657373000000000000000000000000000000000000000000000000000000006064820152608401610498565b6001600160a01b0382166108435760405162461bcd60e51b815260206004820152602260248201527f45524332303a20617070726f766520746f20746865207a65726f20616464726560448201527f73730000000000000000000000000000000000000000000000000000000000006064820152608401610498565b6001600160a01b0383811660008181526002602090815260408083209487168084529482529182902085905590518481527f8c5be1e5ebec7d5bd14f71427d1e84f3dd0314c0f7b2291e5b200ac8c7c3b92591015b60405180910390a3505050565b6001600160a01b0383166109215760405162461bcd60e51b815260206004820152602560248201527f45524332303a207472616e736665722066726f6d20746865207a65726f20616460448201527f64726573730000000000000000000000000000000000000000000000000000006064820152608401610498565b6001600160a01b03821661099d5760405162461bcd60e51b815260206004820152602360248201527f45524332303a207472616e7366657220746f20746865207a65726f206164647260448201527f65737300000000000000000000000000000000000000000000000000000000006064820152608401610498565b6001600160a01b038316600090815260016020526040902054811115610a055760405162461bcd60e51b815260206004820152601b60248201527f45524332303a20696e73756666696369656e742062616c616e636500000000006044820152606401610498565b6001600160a01b038316600090815260016020526040902054610a289082610d39565b6001600160a01b038085166000908152600160205260408082209390935590841681522054610a579082610ad7565b6001600160a01b0380841660008181526001602052604090819020939093559151908516907fddf252ad1be2c89b69c2b068fc378daa952ba7f163c4a11628f55a4df523b3ef906108989085815260200190565b60008184841115610acf5760405162461bcd60e51b81526004016104989190610d45565b505050900390565b60006107458284610ee3565b6000546001600160a01b031633146105ae5760405162461bcd60e51b815260206004820181905260248201527f4f776e61626c653a2063616c6c6572206973206e6f7420746865206f776e65726044820152606401610498565b6001600160a01b038216610bb95760405162461bcd60e51b815260206004820152602160248201527f45524332303a206275726e2066726f6d20746865207a65726f2061646472657360448201527f73000000000000000000000000000000000000000000000000000000000000006064820152608401610498565b6001600160a01b038216600090815260016020526040902054811115610c475760405162461bcd60e51b815260206004820152602760248201527f45524332303a20696e73756666696369656e742062616c616e636520666f722060448201527f6275726e696e67000000000000000000000000000000000000000000000000006064820152608401610498565b6001600160a01b038216600090815260016020526040902054610c6a9082610d39565b6001600160a01b038316600090815260016020526040902055600654610c909082610d39565b6006556040518181526000906001600160a01b038416907fddf252ad1be2c89b69c2b068fc378daa952ba7f163c4a11628f55a4df523b3ef90602001610583565b600080546001600160a01b038381167fffffffffffffffffffffffff0000000000000000000000000000000000000000831681178455604051919092169283917f8be0079c531659141344cd1fd0a4f28419497f9722a3daafe3b4186f6b6457e09190a35050565b60006107458284610ef6565b600060208083528351808285015260005b81811015610d7257858101830151858201604001528201610d56565b506000604082860101526040601f19601f8301168501019250505092915050565b80356001600160a01b0381168114610daa57600080fd5b919050565b60008060408385031215610dc257600080fd5b610dcb83610d93565b946020939093013593505050565b600080600060608486031215610dee57600080fd5b610df784610d93565b9250610e0560208501610d93565b9150604084013590509250925092565b600060208284031215610e2757600080fd5b5035919050565b600060208284031215610e4057600080fd5b61074582610d93565b60008060408385031215610e5c57600080fd5b610e6583610d93565b9150610e7360208401610d93565b90509250929050565b600181811c90821680610e9057607f821691505b602082108103610eb057634e487b7160e01b600052602260045260246000fd5b50919050565b634e487b7160e01b600052601160045260246000fd5b808202811582820484141761039857610398610eb6565b8082018082111561039857610398610eb6565b8181038181111561039857610398610eb656fe45524332303a207472616e7366657220616d6f756e74206578636565647320616c6c6f77616e636545524332303a206275726e20616d6f756e74206578636565647320616c6c6f77616e636545524332303a2064656372656173656420616c6c6f77616e63652062656c6f77207a65726fa2646970667358221220737e588d87774624ac0f432523686ef75018fdf460785cdf1687c2c076ee125f64736f6c63430008110033","opcodes":"PUSH1 0x80 PUSH1 0x40 MSTORE CALLVALUE DUP1 ISZERO PUSH3 0x11 JUMPI PUSH1 0x0 DUP1 REVERT JUMPDEST POP PUSH1 0x40 MLOAD PUSH3 0x153E CODESIZE SUB DUP1 PUSH3 0x153E DUP4 CODECOPY DUP2 ADD PUSH1 0x40 DUP2 SWAP1 MSTORE PUSH3 0x34 SWAP2 PUSH3 0x24F JUMP JUMPDEST PUSH3 0x3F CALLER PUSH3 0x123 JUMP JUMPDEST PUSH1 0x3 PUSH3 0x4D DUP7 DUP3 PUSH3 0x374 JUMP JUMPDEST POP PUSH1 0x4 PUSH3 0x5C DUP6 DUP3 PUSH3 0x374 JUMP JUMPDEST POP PUSH1 0x5 DUP1 SLOAD PUSH1 0xFF NOT AND PUSH1 0xFF DUP6 AND OR SWAP1 SSTORE PUSH3 0x92 PUSH3 0x7D DUP5 PUSH1 0xA PUSH3 0x553 JUMP JUMPDEST DUP4 PUSH3 0x173 PUSH1 0x20 SHL PUSH3 0x739 OR SWAP1 SWAP2 SWAP1 PUSH1 0x20 SHR JUMP JUMPDEST PUSH1 0x6 SSTORE PUSH3 0xBB PUSH3 0xA6 DUP5 PUSH1 0xA PUSH3 0x553 JUMP JUMPDEST DUP3 PUSH3 0x173 PUSH1 0x20 SHL PUSH3 0x739 OR SWAP1 SWAP2 SWAP1 PUSH1 0x20 SHR JUMP JUMPDEST PUSH1 0x7 SSTORE PUSH1 0x6 SLOAD CALLER PUSH1 0x0 DUP2 DUP2 MSTORE PUSH1 0x1 PUSH1 0x20 DUP2 DUP2 MSTORE PUSH1 0x40 DUP1 DUP5 KECCAK256 DUP7 SWAP1 SSTORE PUSH1 0x8 DUP1 SLOAD PUSH1 0xFF NOT AND SWAP1 SWAP4 OR SWAP1 SWAP3 SSTORE SWAP1 MLOAD SWAP4 DUP5 MSTORE SWAP2 SWAP3 SWAP1 SWAP2 PUSH32 0xDDF252AD1BE2C89B69C2B068FC378DAA952BA7F163C4A11628F55A4DF523B3EF SWAP2 ADD PUSH1 0x40 MLOAD DUP1 SWAP2 SUB SWAP1 LOG3 POP POP POP POP POP PUSH3 0x57E JUMP JUMPDEST PUSH1 0x0 DUP1 SLOAD PUSH1 0x1 PUSH1 0x1 PUSH1 0xA0 SHL SUB DUP4 DUP2 AND PUSH1 0x1 PUSH1 0x1 PUSH1 0xA0 SHL SUB NOT DUP4 AND DUP2 OR DUP5 SSTORE PUSH1 0x40 MLOAD SWAP2 SWAP1 SWAP3 AND SWAP3 DUP4 SWAP2 PUSH32 0x8BE0079C531659141344CD1FD0A4F28419497F9722A3DAAFE3B4186F6B6457E0 SWAP2 SWAP1 LOG3 POP POP JUMP JUMPDEST PUSH1 0x0 PUSH3 0x181 DUP3 DUP5 PUSH3 0x564 JUMP JUMPDEST SWAP1 POP JUMPDEST SWAP3 SWAP2 POP POP JUMP JUMPDEST PUSH4 0x4E487B71 PUSH1 0xE0 SHL PUSH1 0x0 MSTORE PUSH1 0x41 PUSH1 0x4 MSTORE PUSH1 0x24 PUSH1 0x0 REVERT JUMPDEST PUSH1 0x0 DUP3 PUSH1 0x1F DUP4 ADD SLT PUSH3 0x1B2 JUMPI PUSH1 0x0 DUP1 REVERT JUMPDEST DUP2 MLOAD PUSH1 0x1 PUSH1 0x1 PUSH1 0x40 SHL SUB DUP1 DUP3 GT ISZERO PUSH3 0x1CF JUMPI PUSH3 0x1CF PUSH3 0x18A JUMP JUMPDEST PUSH1 0x40 MLOAD PUSH1 0x1F DUP4 ADD PUSH1 0x1F NOT SWAP1 DUP2 AND PUSH1 0x3F ADD AND DUP2 ADD SWAP1 DUP3 DUP3 GT DUP2 DUP4 LT OR ISZERO PUSH3 0x1FA JUMPI PUSH3 0x1FA PUSH3 0x18A JUMP JUMPDEST DUP2 PUSH1 0x40 MSTORE DUP4 DUP2 MSTORE PUSH1 0x20 SWAP3 POP DUP7 DUP4 DUP6 DUP9 ADD ADD GT ISZERO PUSH3 0x217 JUMPI PUSH1 0x0 DUP1 REVERT JUMPDEST PUSH1 0x0 SWAP2 POP JUMPDEST DUP4 DUP3 LT ISZERO PUSH3 0x23B JUMPI DUP6 DUP3 ADD DUP4 ADD MLOAD DUP2 DUP4 ADD DUP5 ADD MSTORE SWAP1 DUP3 ADD SWAP1 PUSH3 0x21C JUMP JUMPDEST PUSH1 0x0 SWAP4 DUP2 ADD SWAP1 SWAP3 ADD SWAP3 SWAP1 SWAP3 MSTORE SWAP5 SWAP4 POP POP POP POP JUMP JUMPDEST PUSH1 0x0 DUP1 PUSH1 0x0 DUP1 PUSH1 0x0 PUSH1 0xA0 DUP7 DUP9 SUB SLT ISZERO PUSH3 0x268 JUMPI PUSH1 0x0 DUP1 REVERT JUMPDEST DUP6 MLOAD PUSH1 0x1 PUSH1 0x1 PUSH1 0x40 SHL SUB DUP1 DUP3 GT ISZERO PUSH3 0x280 JUMPI PUSH1 0x0 DUP1 REVERT JUMPDEST PUSH3 0x28E DUP10 DUP4 DUP11 ADD PUSH3 0x1A0 JUMP JUMPDEST SWAP7 POP PUSH1 0x20 DUP9 ADD MLOAD SWAP2 POP DUP1 DUP3 GT ISZERO PUSH3 0x2A5 JUMPI PUSH1 0x0 DUP1 REVERT JUMPDEST POP PUSH3 0x2B4 DUP9 DUP3 DUP10 ADD PUSH3 0x1A0 JUMP JUMPDEST SWAP5 POP POP PUSH1 0x40 DUP7 ADD MLOAD PUSH1 0xFF DUP2 AND DUP2 EQ PUSH3 0x2CC JUMPI PUSH1 0x0 DUP1 REVERT JUMPDEST PUSH1 0x60 DUP8 ADD MLOAD PUSH1 0x80 SWAP1 SWAP8 ADD MLOAD SWAP6 SWAP9 SWAP5 SWAP8 POP SWAP6 SWAP5 SWAP4 SWAP3 POP POP POP JUMP JUMPDEST PUSH1 0x1 DUP2 DUP2 SHR SWAP1 DUP3 AND DUP1 PUSH3 0x2FA JUMPI PUSH1 0x7F DUP3 AND SWAP2 POP JUMPDEST PUSH1 0x20 DUP3 LT DUP2 SUB PUSH3 0x31B JUMPI PUSH4 0x4E487B71 PUSH1 0xE0 SHL PUSH1 0x0 MSTORE PUSH1 0x22 PUSH1 0x4 MSTORE PUSH1 0x24 PUSH1 0x0 REVERT JUMPDEST POP SWAP2 SWAP1 POP JUMP JUMPDEST PUSH1 0x1F DUP3 GT ISZERO PUSH3 0x36F JUMPI PUSH1 0x0 DUP2 DUP2 MSTORE PUSH1 0x20 DUP2 KECCAK256 PUSH1 0x1F DUP6 ADD PUSH1 0x5 SHR DUP2 ADD PUSH1 0x20 DUP7 LT ISZERO PUSH3 0x34A JUMPI POP DUP1 JUMPDEST PUSH1 0x1F DUP6 ADD PUSH1 0x5 SHR DUP3 ADD SWAP2 POP JUMPDEST DUP2 DUP2 LT ISZERO PUSH3 0x36B JUMPI DUP3 DUP2 SSTORE PUSH1 0x1 ADD PUSH3 0x356 JUMP JUMPDEST POP POP POP JUMPDEST POP POP POP JUMP JUMPDEST DUP2 MLOAD PUSH1 0x1 PUSH1 0x1 PUSH1 0x40 SHL SUB DUP2 GT ISZERO PUSH3 0x390 JUMPI PUSH3 0x390 PUSH3 0x18A JUMP JUMPDEST PUSH3 0x3A8 DUP2 PUSH3 0x3A1 DUP5 SLOAD PUSH3 0x2E5 JUMP JUMPDEST DUP5 PUSH3 0x321 JUMP JUMPDEST PUSH1 0x20 DUP1 PUSH1 0x1F DUP4 GT PUSH1 0x1 DUP2 EQ PUSH3 0x3E0 JUMPI PUSH1 0x0 DUP5 ISZERO PUSH3 0x3C7 JUMPI POP DUP6 DUP4 ADD MLOAD JUMPDEST PUSH1 0x0 NOT PUSH1 0x3 DUP7 SWAP1 SHL SHR NOT AND PUSH1 0x1 DUP6 SWAP1 SHL OR DUP6 SSTORE PUSH3 0x36B JUMP JUMPDEST PUSH1 0x0 DUP6 DUP2 MSTORE PUSH1 0x20 DUP2 KECCAK256 PUSH1 0x1F NOT DUP7 AND SWAP2 JUMPDEST DUP3 DUP2 LT ISZERO PUSH3 0x411 JUMPI DUP9 DUP7 ADD MLOAD DUP3 SSTORE SWAP5 DUP5 ADD SWAP5 PUSH1 0x1 SWAP1 SWAP2 ADD SWAP1 DUP5 ADD PUSH3 0x3F0 JUMP JUMPDEST POP DUP6 DUP3 LT ISZERO PUSH3 0x430 JUMPI DUP8 DUP6 ADD MLOAD PUSH1 0x0 NOT PUSH1 0x3 DUP9 SWAP1 SHL PUSH1 0xF8 AND SHR NOT AND DUP2 SSTORE JUMPDEST POP POP POP POP POP PUSH1 0x1 SWAP1 DUP2 SHL ADD SWAP1 SSTORE POP JUMP JUMPDEST PUSH4 0x4E487B71 PUSH1 0xE0 SHL PUSH1 0x0 MSTORE PUSH1 0x11 PUSH1 0x4 MSTORE PUSH1 0x24 PUSH1 0x0 REVERT JUMPDEST PUSH1 0x1 DUP2 DUP2 JUMPDEST DUP1 DUP6 GT ISZERO PUSH3 0x497 JUMPI DUP2 PUSH1 0x0 NOT DIV DUP3 GT ISZERO PUSH3 0x47B JUMPI PUSH3 0x47B PUSH3 0x440 JUMP JUMPDEST DUP1 DUP6 AND ISZERO PUSH3 0x489 JUMPI SWAP2 DUP2 MUL SWAP2 JUMPDEST SWAP4 DUP5 SHR SWAP4 SWAP1 DUP1 MUL SWAP1 PUSH3 0x45B JUMP JUMPDEST POP SWAP3 POP SWAP3 SWAP1 POP JUMP JUMPDEST PUSH1 0x0 DUP3 PUSH3 0x4B0 JUMPI POP PUSH1 0x1 PUSH3 0x184 JUMP JUMPDEST DUP2 PUSH3 0x4BF JUMPI POP PUSH1 0x0 PUSH3 0x184 JUMP JUMPDEST DUP2 PUSH1 0x1 DUP2 EQ PUSH3 0x4D8 JUMPI PUSH1 0x2 DUP2 EQ PUSH3 0x4E3 JUMPI PUSH3 0x503 JUMP JUMPDEST PUSH1 0x1 SWAP2 POP POP PUSH3 0x184 JUMP JUMPDEST PUSH1 0xFF DUP5 GT ISZERO PUSH3 0x4F7 JUMPI PUSH3 0x4F7 PUSH3 0x440 JUMP JUMPDEST POP POP PUSH1 0x1 DUP3 SHL PUSH3 0x184 JUMP JUMPDEST POP PUSH1 0x20 DUP4 LT PUSH2 0x133 DUP4 LT AND PUSH1 0x4E DUP5 LT PUSH1 0xB DUP5 LT AND OR ISZERO PUSH3 0x528 JUMPI POP DUP2 DUP2 EXP PUSH3 0x184 JUMP JUMPDEST PUSH3 0x534 DUP4 DUP4 PUSH3 0x456 JUMP JUMPDEST DUP1 PUSH1 0x0 NOT DIV DUP3 GT ISZERO PUSH3 0x54B JUMPI PUSH3 0x54B PUSH3 0x440 JUMP JUMPDEST MUL SWAP4 SWAP3 POP POP POP JUMP JUMPDEST PUSH1 0x0 PUSH3 0x181 PUSH1 0xFF DUP5 AND DUP4 PUSH3 0x49F JUMP JUMPDEST DUP1 DUP3 MUL DUP2 ISZERO DUP3 DUP3 DIV DUP5 EQ OR PUSH3 0x184 JUMPI PUSH3 0x184 PUSH3 0x440 JUMP JUMPDEST PUSH2 0xFB0 DUP1 PUSH3 0x58E PUSH1 0x0 CODECOPY PUSH1 0x0 RETURN INVALID PUSH1 0x80 PUSH1 0x40 MSTORE CALLVALUE DUP1 ISZERO PUSH2 0x10 JUMPI PUSH1 0x0 DUP1 REVERT JUMPDEST POP PUSH1 0x4 CALLDATASIZE LT PUSH2 0x151 JUMPI PUSH1 0x0 CALLDATALOAD PUSH1 0xE0 SHR DUP1 PUSH4 0x715018A6 GT PUSH2 0xCD JUMPI DUP1 PUSH4 0xA457C2D7 GT PUSH2 0x81 JUMPI DUP1 PUSH4 0xDD62ED3E GT PUSH2 0x66 JUMPI DUP1 PUSH4 0xDD62ED3E EQ PUSH2 0x2A1 JUMPI DUP1 PUSH4 0xF2FDE38B EQ PUSH2 0x2DA JUMPI DUP1 PUSH4 0xF6808DB6 EQ PUSH2 0x2ED JUMPI PUSH1 0x0 DUP1 REVERT JUMPDEST DUP1 PUSH4 0xA457C2D7 EQ PUSH2 0x27B JUMPI DUP1 PUSH4 0xA9059CBB EQ PUSH2 0x28E JUMPI PUSH1 0x0 DUP1 REVERT JUMPDEST DUP1 PUSH4 0x8DA5CB5B GT PUSH2 0xB2 JUMPI DUP1 PUSH4 0x8DA5CB5B EQ PUSH2 0x250 JUMPI DUP1 PUSH4 0x8DB64CEC EQ PUSH2 0x26B JUMPI DUP1 PUSH4 0x95D89B41 EQ PUSH2 0x273 JUMPI PUSH1 0x0 DUP1 REVERT JUMPDEST DUP1 PUSH4 0x715018A6 EQ PUSH2 0x235 JUMPI DUP1 PUSH4 0x79CC6790 EQ PUSH2 0x23D JUMPI PUSH1 0x0 DUP1 REVERT JUMPDEST DUP1 PUSH4 0x313CE567 GT PUSH2 0x124 JUMPI DUP1 PUSH4 0x40C10F19 GT PUSH2 0x109 JUMPI DUP1 PUSH4 0x40C10F19 EQ PUSH2 0x1E4 JUMPI DUP1 PUSH4 0x42966C68 EQ PUSH2 0x1F9 JUMPI DUP1 PUSH4 0x70A08231 EQ PUSH2 0x20C JUMPI PUSH1 0x0 DUP1 REVERT JUMPDEST DUP1 PUSH4 0x313CE567 EQ PUSH2 0x1BC JUMPI DUP1 PUSH4 0x39509351 EQ PUSH2 0x1D1 JUMPI PUSH1 0x0 DUP1 REVERT JUMPDEST DUP1 PUSH4 0x6FDDE03 EQ PUSH2 0x156 JUMPI DUP1 PUSH4 0x95EA7B3 EQ PUSH2 0x174 JUMPI DUP1 PUSH4 0x18160DDD EQ PUSH2 0x197 JUMPI DUP1 PUSH4 0x23B872DD EQ PUSH2 0x1A9 JUMPI JUMPDEST PUSH1 0x0 DUP1 REVERT JUMPDEST PUSH2 0x15E PUSH2 0x2F5 JUMP JUMPDEST PUSH1 0x40 MLOAD PUSH2 0x16B SWAP2 SWAP1 PUSH2 0xD45 JUMP JUMPDEST PUSH1 0x40 MLOAD DUP1 SWAP2 SUB SWAP1 RETURN JUMPDEST PUSH2 0x187 PUSH2 0x182 CALLDATASIZE PUSH1 0x4 PUSH2 0xDAF JUMP JUMPDEST PUSH2 0x387 JUMP JUMPDEST PUSH1 0x40 MLOAD SWAP1 ISZERO ISZERO DUP2 MSTORE PUSH1 0x20 ADD PUSH2 0x16B JUMP JUMPDEST PUSH1 0x6 SLOAD JUMPDEST PUSH1 0x40 MLOAD SWAP1 DUP2 MSTORE PUSH1 0x20 ADD PUSH2 0x16B JUMP JUMPDEST PUSH2 0x187 PUSH2 0x1B7 CALLDATASIZE PUSH1 0x4 PUSH2 0xDD9 JUMP JUMPDEST PUSH2 0x39E JUMP JUMPDEST PUSH1 0x5 SLOAD PUSH1 0x40 MLOAD PUSH1 0xFF SWAP1 SWAP2 AND DUP2 MSTORE PUSH1 0x20 ADD PUSH2 0x16B JUMP JUMPDEST PUSH2 0x187 PUSH2 0x1DF CALLDATASIZE PUSH1 0x4 PUSH2 0xDAF JUMP JUMPDEST PUSH2 0x407 JUMP JUMPDEST PUSH2 0x1F7 PUSH2 0x1F2 CALLDATASIZE PUSH1 0x4 PUSH2 0xDAF JUMP JUMPDEST PUSH2 0x43D JUMP JUMPDEST STOP JUMPDEST PUSH2 0x1F7 PUSH2 0x207 CALLDATASIZE PUSH1 0x4 PUSH2 0xE15 JUMP JUMPDEST PUSH2 0x58F JUMP JUMPDEST PUSH2 0x19B PUSH2 0x21A CALLDATASIZE PUSH1 0x4 PUSH2 0xE2E JUMP JUMPDEST PUSH1 0x1 PUSH1 0x1 PUSH1 0xA0 SHL SUB AND PUSH1 0x0 SWAP1 DUP2 MSTORE PUSH1 0x1 PUSH1 0x20 MSTORE PUSH1 0x40 SWAP1 KECCAK256 SLOAD SWAP1 JUMP JUMPDEST PUSH2 0x1F7 PUSH2 0x59C JUMP JUMPDEST PUSH2 0x1F7 PUSH2 0x24B CALLDATASIZE PUSH1 0x4 PUSH2 0xDAF JUMP JUMPDEST PUSH2 0x5B0 JUMP JUMPDEST PUSH1 0x0 SLOAD PUSH1 0x40 MLOAD PUSH1 0x1 PUSH1 0x1 PUSH1 0xA0 SHL SUB SWAP1 SWAP2 AND DUP2 MSTORE PUSH1 0x20 ADD PUSH2 0x16B JUMP JUMPDEST PUSH2 0x1F7 PUSH2 0x616 JUMP JUMPDEST PUSH2 0x15E PUSH2 0x62D JUMP JUMPDEST PUSH2 0x187 PUSH2 0x289 CALLDATASIZE PUSH1 0x4 PUSH2 0xDAF JUMP JUMPDEST PUSH2 0x63C JUMP JUMPDEST PUSH2 0x187 PUSH2 0x29C CALLDATASIZE PUSH1 0x4 PUSH2 0xDAF JUMP JUMPDEST PUSH2 0x68B JUMP JUMPDEST PUSH2 0x19B PUSH2 0x2AF CALLDATASIZE PUSH1 0x4 PUSH2 0xE49 JUMP JUMPDEST PUSH1 0x1 PUSH1 0x1 PUSH1 0xA0 SHL SUB SWAP2 DUP3 AND PUSH1 0x0 SWAP1 DUP2 MSTORE PUSH1 0x2 PUSH1 0x20 SWAP1 DUP2 MSTORE PUSH1 0x40 DUP1 DUP4 KECCAK256 SWAP4 SWAP1 SWAP5 AND DUP3 MSTORE SWAP2 SWAP1 SWAP2 MSTORE KECCAK256 SLOAD SWAP1 JUMP JUMPDEST PUSH2 0x1F7 PUSH2 0x2E8 CALLDATASIZE PUSH1 0x4 PUSH2 0xE2E JUMP JUMPDEST PUSH2 0x698 JUMP JUMPDEST PUSH2 0x1F7 PUSH2 0x725 JUMP JUMPDEST PUSH1 0x60 PUSH1 0x3 DUP1 SLOAD PUSH2 0x304 SWAP1 PUSH2 0xE7C JUMP JUMPDEST DUP1 PUSH1 0x1F ADD PUSH1 0x20 DUP1 SWAP2 DIV MUL PUSH1 0x20 ADD PUSH1 0x40 MLOAD SWAP1 DUP2 ADD PUSH1 0x40 MSTORE DUP1 SWAP3 SWAP2 SWAP1 DUP2 DUP2 MSTORE PUSH1 0x20 ADD DUP3 DUP1 SLOAD PUSH2 0x330 SWAP1 PUSH2 0xE7C JUMP JUMPDEST DUP1 ISZERO PUSH2 0x37D JUMPI DUP1 PUSH1 0x1F LT PUSH2 0x352 JUMPI PUSH2 0x100 DUP1 DUP4 SLOAD DIV MUL DUP4 MSTORE SWAP2 PUSH1 0x20 ADD SWAP2 PUSH2 0x37D JUMP JUMPDEST DUP3 ADD SWAP2 SWAP1 PUSH1 0x0 MSTORE PUSH1 0x20 PUSH1 0x0 KECCAK256 SWAP1 JUMPDEST DUP2 SLOAD DUP2 MSTORE SWAP1 PUSH1 0x1 ADD SWAP1 PUSH1 0x20 ADD DUP1 DUP4 GT PUSH2 0x360 JUMPI DUP3 SWAP1 SUB PUSH1 0x1F AND DUP3 ADD SWAP2 JUMPDEST POP POP POP POP POP SWAP1 POP SWAP1 JUMP JUMPDEST PUSH1 0x0 PUSH2 0x394 CALLER DUP5 DUP5 PUSH2 0x74C JUMP JUMPDEST POP PUSH1 0x1 JUMPDEST SWAP3 SWAP2 POP POP JUMP JUMPDEST PUSH1 0x0 PUSH2 0x3AB DUP5 DUP5 DUP5 PUSH2 0x8A5 JUMP JUMPDEST PUSH2 0x3FD DUP5 CALLER PUSH2 0x3F8 DUP6 PUSH1 0x40 MLOAD DUP1 PUSH1 0x60 ADD PUSH1 0x40 MSTORE DUP1 PUSH1 0x28 DUP2 MSTORE PUSH1 0x20 ADD PUSH2 0xF0A PUSH1 0x28 SWAP2 CODECOPY PUSH1 0x1 PUSH1 0x1 PUSH1 0xA0 SHL SUB DUP11 AND PUSH1 0x0 SWAP1 DUP2 MSTORE PUSH1 0x2 PUSH1 0x20 SWAP1 DUP2 MSTORE PUSH1 0x40 DUP1 DUP4 KECCAK256 CALLER DUP5 MSTORE SWAP1 SWAP2 MSTORE SWAP1 KECCAK256 SLOAD SWAP2 SWAP1 PUSH2 0xAAB JUMP JUMPDEST PUSH2 0x74C JUMP JUMPDEST POP PUSH1 0x1 SWAP4 SWAP3 POP POP POP JUMP JUMPDEST CALLER PUSH1 0x0 DUP2 DUP2 MSTORE PUSH1 0x2 PUSH1 0x20 SWAP1 DUP2 MSTORE PUSH1 0x40 DUP1 DUP4 KECCAK256 PUSH1 0x1 PUSH1 0x1 PUSH1 0xA0 SHL SUB DUP8 AND DUP5 MSTORE SWAP1 SWAP2 MSTORE DUP2 KECCAK256 SLOAD SWAP1 SWAP2 PUSH2 0x394 SWAP2 DUP6 SWAP1 PUSH2 0x3F8 SWAP1 DUP7 PUSH2 0xAD7 JUMP JUMPDEST PUSH2 0x445 PUSH2 0xAE3 JUMP JUMPDEST PUSH1 0x8 SLOAD PUSH1 0xFF AND ISZERO ISZERO PUSH1 0x1 EQ PUSH2 0x4A1 JUMPI PUSH1 0x40 MLOAD PUSH3 0x461BCD PUSH1 0xE5 SHL DUP2 MSTORE PUSH1 0x20 PUSH1 0x4 DUP3 ADD MSTORE PUSH1 0x19 PUSH1 0x24 DUP3 ADD MSTORE PUSH32 0x45524332303A206D617820737570706C79207265616368656400000000000000 PUSH1 0x44 DUP3 ADD MSTORE PUSH1 0x64 ADD JUMPDEST PUSH1 0x40 MLOAD DUP1 SWAP2 SUB SWAP1 REVERT JUMPDEST PUSH1 0x7 SLOAD PUSH1 0x6 SLOAD PUSH2 0x4B1 SWAP1 DUP4 PUSH2 0xAD7 JUMP JUMPDEST GT ISZERO PUSH2 0x4FF JUMPI PUSH1 0x40 MLOAD PUSH3 0x461BCD PUSH1 0xE5 SHL DUP2 MSTORE PUSH1 0x20 PUSH1 0x4 DUP3 ADD MSTORE PUSH1 0x1A PUSH1 0x24 DUP3 ADD MSTORE PUSH32 0x45524332303A206D617820737570706C79206578636565646564000000000000 PUSH1 0x44 DUP3 ADD MSTORE PUSH1 0x64 ADD PUSH2 0x498 JUMP JUMPDEST PUSH1 0x6 SLOAD PUSH2 0x50C SWAP1 DUP3 PUSH2 0xAD7 JUMP JUMPDEST PUSH1 0x6 SSTORE PUSH1 0x1 PUSH1 0x1 PUSH1 0xA0 SHL SUB DUP3 AND PUSH1 0x0 SWAP1 DUP2 MSTORE PUSH1 0x1 PUSH1 0x20 MSTORE PUSH1 0x40 SWAP1 KECCAK256 SLOAD PUSH2 0x532 SWAP1 DUP3 PUSH2 0xAD7 JUMP JUMPDEST PUSH1 0x1 PUSH1 0x1 PUSH1 0xA0 SHL SUB DUP4 AND PUSH1 0x0 DUP2 DUP2 MSTORE PUSH1 0x1 PUSH1 0x20 MSTORE PUSH1 0x40 DUP1 DUP3 KECCAK256 SWAP4 SWAP1 SWAP4 SSTORE SWAP2 MLOAD SWAP1 SWAP2 SWAP1 PUSH32 0xDDF252AD1BE2C89B69C2B068FC378DAA952BA7F163C4A11628F55A4DF523B3EF SWAP1 PUSH2 0x583 SWAP1 DUP6 DUP2 MSTORE PUSH1 0x20 ADD SWAP1 JUMP JUMPDEST PUSH1 0x40 MLOAD DUP1 SWAP2 SUB SWAP1 LOG3 POP POP JUMP JUMPDEST PUSH2 0x599 CALLER DUP3 PUSH2 0xB3D JUMP JUMPDEST POP JUMP JUMPDEST PUSH2 0x5A4 PUSH2 0xAE3 JUMP JUMPDEST PUSH2 0x5AE PUSH1 0x0 PUSH2 0xCD1 JUMP JUMPDEST JUMP JUMPDEST PUSH1 0x0 PUSH2 0x5FA DUP3 PUSH1 0x40 MLOAD DUP1 PUSH1 0x60 ADD PUSH1 0x40 MSTORE DUP1 PUSH1 0x24 DUP2 MSTORE PUSH1 0x20 ADD PUSH2 0xF32 PUSH1 0x24 SWAP2 CODECOPY PUSH1 0x1 PUSH1 0x1 PUSH1 0xA0 SHL SUB DUP7 AND PUSH1 0x0 SWAP1 DUP2 MSTORE PUSH1 0x2 PUSH1 0x20 SWAP1 DUP2 MSTORE PUSH1 0x40 DUP1 DUP4 KECCAK256 CALLER DUP5 MSTORE SWAP1 SWAP2 MSTORE SWAP1 KECCAK256 SLOAD SWAP2 SWAP1 PUSH2 0xAAB JUMP JUMPDEST SWAP1 POP PUSH2 0x607 DUP4 CALLER DUP4 PUSH2 0x74C JUMP JUMPDEST PUSH2 0x611 DUP4 DUP4 PUSH2 0xB3D JUMP JUMPDEST POP POP POP JUMP JUMPDEST PUSH2 0x61E PUSH2 0xAE3 JUMP JUMPDEST PUSH1 0x8 DUP1 SLOAD PUSH1 0xFF NOT AND PUSH1 0x1 OR SWAP1 SSTORE JUMP JUMPDEST PUSH1 0x60 PUSH1 0x4 DUP1 SLOAD PUSH2 0x304 SWAP1 PUSH2 0xE7C JUMP JUMPDEST PUSH1 0x0 PUSH2 0x394 CALLER DUP5 PUSH2 0x3F8 DUP6 PUSH1 0x40 MLOAD DUP1 PUSH1 0x60 ADD PUSH1 0x40 MSTORE DUP1 PUSH1 0x25 DUP2 MSTORE PUSH1 0x20 ADD PUSH2 0xF56 PUSH1 0x25 SWAP2 CODECOPY CALLER PUSH1 0x0 SWAP1 DUP2 MSTORE PUSH1 0x2 PUSH1 0x20 SWAP1 DUP2 MSTORE PUSH1 0x40 DUP1 DUP4 KECCAK256 PUSH1 0x1 PUSH1 0x1 PUSH1 0xA0 SHL SUB DUP14 AND DUP5 MSTORE SWAP1 SWAP2 MSTORE SWAP1 KECCAK256 SLOAD SWAP2 SWAP1 PUSH2 0xAAB JUMP JUMPDEST PUSH1 0x0 PUSH2 0x394 CALLER DUP5 DUP5 PUSH2 0x8A5 JUMP JUMPDEST PUSH2 0x6A0 PUSH2 0xAE3 JUMP JUMPDEST PUSH1 0x1 PUSH1 0x1 PUSH1 0xA0 SHL SUB DUP2 AND PUSH2 0x71C JUMPI PUSH1 0x40 MLOAD PUSH3 0x461BCD PUSH1 0xE5 SHL DUP2 MSTORE PUSH1 0x20 PUSH1 0x4 DUP3 ADD MSTORE PUSH1 0x26 PUSH1 0x24 DUP3 ADD MSTORE PUSH32 0x4F776E61626C653A206E6577206F776E657220697320746865207A65726F2061 PUSH1 0x44 DUP3 ADD MSTORE PUSH32 0x6464726573730000000000000000000000000000000000000000000000000000 PUSH1 0x64 DUP3 ADD MSTORE PUSH1 0x84 ADD PUSH2 0x498 JUMP JUMPDEST PUSH2 0x599 DUP2 PUSH2 0xCD1 JUMP JUMPDEST PUSH2 0x72D PUSH2 0xAE3 JUMP JUMPDEST PUSH1 0x8 DUP1 SLOAD PUSH1 0xFF NOT AND SWAP1 SSTORE JUMP JUMPDEST PUSH1 0x0 PUSH2 0x745 DUP3 DUP5 PUSH2 0xECC JUMP JUMPDEST SWAP4 SWAP3 POP POP POP JUMP JUMPDEST PUSH1 0x1 PUSH1 0x1 PUSH1 0xA0 SHL SUB DUP4 AND PUSH2 0x7C7 JUMPI PUSH1 0x40 MLOAD PUSH3 0x461BCD PUSH1 0xE5 SHL DUP2 MSTORE PUSH1 0x20 PUSH1 0x4 DUP3 ADD MSTORE PUSH1 0x24 DUP1 DUP3 ADD MSTORE PUSH32 0x45524332303A20617070726F76652066726F6D20746865207A65726F20616464 PUSH1 0x44 DUP3 ADD MSTORE PUSH32 0x7265737300000000000000000000000000000000000000000000000000000000 PUSH1 0x64 DUP3 ADD MSTORE PUSH1 0x84 ADD PUSH2 0x498 JUMP JUMPDEST PUSH1 0x1 PUSH1 0x1 PUSH1 0xA0 SHL SUB DUP3 AND PUSH2 0x843 JUMPI PUSH1 0x40 MLOAD PUSH3 0x461BCD PUSH1 0xE5 SHL DUP2 MSTORE PUSH1 0x20 PUSH1 0x4 DUP3 ADD MSTORE PUSH1 0x22 PUSH1 0x24 DUP3 ADD MSTORE PUSH32 0x45524332303A20617070726F766520746F20746865207A65726F206164647265 PUSH1 0x44 DUP3 ADD MSTORE PUSH32 0x7373000000000000000000000000000000000000000000000000000000000000 PUSH1 0x64 DUP3 ADD MSTORE PUSH1 0x84 ADD PUSH2 0x498 JUMP JUMPDEST PUSH1 0x1 PUSH1 0x1 PUSH1 0xA0 SHL SUB DUP4 DUP2 AND PUSH1 0x0 DUP2 DUP2 MSTORE PUSH1 0x2 PUSH1 0x20 SWAP1 DUP2 MSTORE PUSH1 0x40 DUP1 DUP4 KECCAK256 SWAP5 DUP8 AND DUP1 DUP5 MSTORE SWAP5 DUP3 MSTORE SWAP2 DUP3 SWAP1 KECCAK256 DUP6 SWAP1 SSTORE SWAP1 MLOAD DUP5 DUP2 MSTORE PUSH32 0x8C5BE1E5EBEC7D5BD14F71427D1E84F3DD0314C0F7B2291E5B200AC8C7C3B925 SWAP2 ADD JUMPDEST PUSH1 0x40 MLOAD DUP1 SWAP2 SUB SWAP1 LOG3 POP POP POP JUMP JUMPDEST PUSH1 0x1 PUSH1 0x1 PUSH1 0xA0 SHL SUB DUP4 AND PUSH2 0x921 JUMPI PUSH1 0x40 MLOAD PUSH3 0x461BCD PUSH1 0xE5 SHL DUP2 MSTORE PUSH1 0x20 PUSH1 0x4 DUP3 ADD MSTORE PUSH1 0x25 PUSH1 0x24 DUP3 ADD MSTORE PUSH32 0x45524332303A207472616E736665722066726F6D20746865207A65726F206164 PUSH1 0x44 DUP3 ADD MSTORE PUSH32 0x6472657373000000000000000000000000000000000000000000000000000000 PUSH1 0x64 DUP3 ADD MSTORE PUSH1 0x84 ADD PUSH2 0x498 JUMP JUMPDEST PUSH1 0x1 PUSH1 0x1 PUSH1 0xA0 SHL SUB DUP3 AND PUSH2 0x99D JUMPI PUSH1 0x40 MLOAD PUSH3 0x461BCD PUSH1 0xE5 SHL DUP2 MSTORE PUSH1 0x20 PUSH1 0x4 DUP3 ADD MSTORE PUSH1 0x23 PUSH1 0x24 DUP3 ADD MSTORE PUSH32 0x45524332303A207472616E7366657220746F20746865207A65726F2061646472 PUSH1 0x44 DUP3 ADD MSTORE PUSH32 0x6573730000000000000000000000000000000000000000000000000000000000 PUSH1 0x64 DUP3 ADD MSTORE PUSH1 0x84 ADD PUSH2 0x498 JUMP JUMPDEST PUSH1 0x1 PUSH1 0x1 PUSH1 0xA0 SHL SUB DUP4 AND PUSH1 0x0 SWAP1 DUP2 MSTORE PUSH1 0x1 PUSH1 0x20 MSTORE PUSH1 0x40 SWAP1 KECCAK256 SLOAD DUP2 GT ISZERO PUSH2 0xA05 JUMPI PUSH1 0x40 MLOAD PUSH3 0x461BCD PUSH1 0xE5 SHL DUP2 MSTORE PUSH1 0x20 PUSH1 0x4 DUP3 ADD MSTORE PUSH1 0x1B PUSH1 0x24 DUP3 ADD MSTORE PUSH32 0x45524332303A20696E73756666696369656E742062616C616E63650000000000 PUSH1 0x44 DUP3 ADD MSTORE PUSH1 0x64 ADD PUSH2 0x498 JUMP JUMPDEST PUSH1 0x1 PUSH1 0x1 PUSH1 0xA0 SHL SUB DUP4 AND PUSH1 0x0 SWAP1 DUP2 MSTORE PUSH1 0x1 PUSH1 0x20 MSTORE PUSH1 0x40 SWAP1 KECCAK256 SLOAD PUSH2 0xA28 SWAP1 DUP3 PUSH2 0xD39 JUMP JUMPDEST PUSH1 0x1 PUSH1 0x1 PUSH1 0xA0 SHL SUB DUP1 DUP6 AND PUSH1 0x0 SWAP1 DUP2 MSTORE PUSH1 0x1 PUSH1 0x20 MSTORE PUSH1 0x40 DUP1 DUP3 KECCAK256 SWAP4 SWAP1 SWAP4 SSTORE SWAP1 DUP5 AND DUP2 MSTORE KECCAK256 SLOAD PUSH2 0xA57 SWAP1 DUP3 PUSH2 0xAD7 JUMP JUMPDEST PUSH1 0x1 PUSH1 0x1 PUSH1 0xA0 SHL SUB DUP1 DUP5 AND PUSH1 0x0 DUP2 DUP2 MSTORE PUSH1 0x1 PUSH1 0x20 MSTORE PUSH1 0x40 SWAP1 DUP2 SWAP1 KECCAK256 SWAP4 SWAP1 SWAP4 SSTORE SWAP2 MLOAD SWAP1 DUP6 AND SWAP1 PUSH32 0xDDF252AD1BE2C89B69C2B068FC378DAA952BA7F163C4A11628F55A4DF523B3EF SWAP1 PUSH2 0x898 SWAP1 DUP6 DUP2 MSTORE PUSH1 0x20 ADD SWAP1 JUMP JUMPDEST PUSH1 0x0 DUP2 DUP5 DUP5 GT ISZERO PUSH2 0xACF JUMPI PUSH1 0x40 MLOAD PUSH3 0x461BCD PUSH1 0xE5 SHL DUP2 MSTORE PUSH1 0x4 ADD PUSH2 0x498 SWAP2 SWAP1 PUSH2 0xD45 JUMP JUMPDEST POP POP POP SWAP1 SUB SWAP1 JUMP JUMPDEST PUSH1 0x0 PUSH2 0x745 DUP3 DUP5 PUSH2 0xEE3 JUMP JUMPDEST PUSH1 0x0 SLOAD PUSH1 0x1 PUSH1 0x1 PUSH1 0xA0 SHL SUB AND CALLER EQ PUSH2 0x5AE JUMPI PUSH1 0x40 MLOAD PUSH3 0x461BCD PUSH1 0xE5 SHL DUP2 MSTORE PUSH1 0x20 PUSH1 0x4 DUP3 ADD DUP2 SWAP1 MSTORE PUSH1 0x24 DUP3 ADD MSTORE PUSH32 0x4F776E61626C653A2063616C6C6572206973206E6F7420746865206F776E6572 PUSH1 0x44 DUP3 ADD MSTORE PUSH1 0x64 ADD PUSH2 0x498 JUMP JUMPDEST PUSH1 0x1 PUSH1 0x1 PUSH1 0xA0 SHL SUB DUP3 AND PUSH2 0xBB9 JUMPI PUSH1 0x40 MLOAD PUSH3 0x461BCD PUSH1 0xE5 SHL DUP2 MSTORE PUSH1 0x20 PUSH1 0x4 DUP3 ADD MSTORE PUSH1 0x21 PUSH1 0x24 DUP3 ADD MSTORE PUSH32 0x45524332303A206275726E2066726F6D20746865207A65726F20616464726573 PUSH1 0x44 DUP3 ADD MSTORE PUSH32 0x7300000000000000000000000000000000000000000000000000000000000000 PUSH1 0x64 DUP3 ADD MSTORE PUSH1 0x84 ADD PUSH2 0x498 JUMP JUMPDEST PUSH1 0x1 PUSH1 0x1 PUSH1 0xA0 SHL SUB DUP3 AND PUSH1 0x0 SWAP1 DUP2 MSTORE PUSH1 0x1 PUSH1 0x20 MSTORE PUSH1 0x40 SWAP1 KECCAK256 SLOAD DUP2 GT ISZERO PUSH2 0xC47 JUMPI PUSH1 0x40 MLOAD PUSH3 0x461BCD PUSH1 0xE5 SHL DUP2 MSTORE PUSH1 0x20 PUSH1 0x4 DUP3 ADD MSTORE PUSH1 0x27 PUSH1 0x24 DUP3 ADD MSTORE PUSH32 0x45524332303A20696E73756666696369656E742062616C616E636520666F7220 PUSH1 0x44 DUP3 ADD MSTORE PUSH32 0x6275726E696E6700000000000000000000000000000000000000000000000000 PUSH1 0x64 DUP3 ADD MSTORE PUSH1 0x84 ADD PUSH2 0x498 JUMP JUMPDEST PUSH1 0x1 PUSH1 0x1 PUSH1 0xA0 SHL SUB DUP3 AND PUSH1 0x0 SWAP1 DUP2 MSTORE PUSH1 0x1 PUSH1 0x20 MSTORE PUSH1 0x40 SWAP1 KECCAK256 SLOAD PUSH2 0xC6A SWAP1 DUP3 PUSH2 0xD39 JUMP JUMPDEST PUSH1 0x1 PUSH1 0x1 PUSH1 0xA0 SHL SUB DUP4 AND PUSH1 0x0 SWAP1 DUP2 MSTORE PUSH1 0x1 PUSH1 0x20 MSTORE PUSH1 0x40 SWAP1 KECCAK256 SSTORE PUSH1 0x6 SLOAD PUSH2 0xC90 SWAP1 DUP3 PUSH2 0xD39 JUMP JUMPDEST PUSH1 0x6 SSTORE PUSH1 0x40 MLOAD DUP2 DUP2 MSTORE PUSH1 0x0 SWAP1 PUSH1 0x1 PUSH1 0x1 PUSH1 0xA0 SHL SUB DUP5 AND SWAP1 PUSH32 0xDDF252AD1BE2C89B69C2B068FC378DAA952BA7F163C4A11628F55A4DF523B3EF SWAP1 PUSH1 0x20 ADD PUSH2 0x583 JUMP JUMPDEST PUSH1 0x0 DUP1 SLOAD PUSH1 0x1 PUSH1 0x1 PUSH1 0xA0 SHL SUB DUP4 DUP2 AND PUSH32 0xFFFFFFFFFFFFFFFFFFFFFFFF0000000000000000000000000000000000000000 DUP4 AND DUP2 OR DUP5 SSTORE PUSH1 0x40 MLOAD SWAP2 SWAP1 SWAP3 AND SWAP3 DUP4 SWAP2 PUSH32 0x8BE0079C531659141344CD1FD0A4F28419497F9722A3DAAFE3B4186F6B6457E0 SWAP2 SWAP1 LOG3 POP POP JUMP JUMPDEST PUSH1 0x0 PUSH2 0x745 DUP3 DUP5 PUSH2 0xEF6 JUMP JUMPDEST PUSH1 0x0 PUSH1 0x20 DUP1 DUP4 MSTORE DUP4 MLOAD DUP1 DUP3 DUP6 ADD MSTORE PUSH1 0x0 JUMPDEST DUP2 DUP2 LT ISZERO PUSH2 0xD72 JUMPI DUP6 DUP2 ADD DUP4 ADD MLOAD DUP6 DUP3 ADD PUSH1 0x40 ADD MSTORE DUP3 ADD PUSH2 0xD56 JUMP JUMPDEST POP PUSH1 0x0 PUSH1 0x40 DUP3 DUP7 ADD ADD MSTORE PUSH1 0x40 PUSH1 0x1F NOT PUSH1 0x1F DUP4 ADD AND DUP6 ADD ADD SWAP3 POP POP POP SWAP3 SWAP2 POP POP JUMP JUMPDEST DUP1 CALLDATALOAD PUSH1 0x1 PUSH1 0x1 PUSH1 0xA0 SHL SUB DUP2 AND DUP2 EQ PUSH2 0xDAA JUMPI PUSH1 0x0 DUP1 REVERT JUMPDEST SWAP2 SWAP1 POP JUMP JUMPDEST PUSH1 0x0 DUP1 PUSH1 0x40 DUP4 DUP6 SUB SLT ISZERO PUSH2 0xDC2 JUMPI PUSH1 0x0 DUP1 REVERT JUMPDEST PUSH2 0xDCB DUP4 PUSH2 0xD93 JUMP JUMPDEST SWAP5 PUSH1 0x20 SWAP4 SWAP1 SWAP4 ADD CALLDATALOAD SWAP4 POP POP POP JUMP JUMPDEST PUSH1 0x0 DUP1 PUSH1 0x0 PUSH1 0x60 DUP5 DUP7 SUB SLT ISZERO PUSH2 0xDEE JUMPI PUSH1 0x0 DUP1 REVERT JUMPDEST PUSH2 0xDF7 DUP5 PUSH2 0xD93 JUMP JUMPDEST SWAP3 POP PUSH2 0xE05 PUSH1 0x20 DUP6 ADD PUSH2 0xD93 JUMP JUMPDEST SWAP2 POP PUSH1 0x40 DUP5 ADD CALLDATALOAD SWAP1 POP SWAP3 POP SWAP3 POP SWAP3 JUMP JUMPDEST PUSH1 0x0 PUSH1 0x20 DUP3 DUP5 SUB SLT ISZERO PUSH2 0xE27 JUMPI PUSH1 0x0 DUP1 REVERT JUMPDEST POP CALLDATALOAD SWAP2 SWAP1 POP JUMP JUMPDEST PUSH1 0x0 PUSH1 0x20 DUP3 DUP5 SUB SLT ISZERO PUSH2 0xE40 JUMPI PUSH1 0x0 DUP1 REVERT JUMPDEST PUSH2 0x745 DUP3 PUSH2 0xD93 JUMP JUMPDEST PUSH1 0x0 DUP1 PUSH1 0x40 DUP4 DUP6 SUB SLT ISZERO PUSH2 0xE5C JUMPI PUSH1 0x0 DUP1 REVERT JUMPDEST PUSH2 0xE65 DUP4 PUSH2 0xD93 JUMP JUMPDEST SWAP2 POP PUSH2 0xE73 PUSH1 0x20 DUP5 ADD PUSH2 0xD93 JUMP JUMPDEST SWAP1 POP SWAP3 POP SWAP3 SWAP1 POP JUMP JUMPDEST PUSH1 0x1 DUP2 DUP2 SHR SWAP1 DUP3 AND DUP1 PUSH2 0xE90 JUMPI PUSH1 0x7F DUP3 AND SWAP2 POP JUMPDEST PUSH1 0x20 DUP3 LT DUP2 SUB PUSH2 0xEB0 JUMPI PUSH4 0x4E487B71 PUSH1 0xE0 SHL PUSH1 0x0 MSTORE PUSH1 0x22 PUSH1 0x4 MSTORE PUSH1 0x24 PUSH1 0x0 REVERT JUMPDEST POP SWAP2 SWAP1 POP JUMP JUMPDEST PUSH4 0x4E487B71 PUSH1 0xE0 SHL PUSH1 0x0 MSTORE PUSH1 0x11 PUSH1 0x4 MSTORE PUSH1 0x24 PUSH1 0x0 REVERT JUMPDEST DUP1 DUP3 MUL DUP2 ISZERO DUP3 DUP3 DIV DUP5 EQ OR PUSH2 0x398 JUMPI PUSH2 0x398 PUSH2 0xEB6 JUMP JUMPDEST DUP1 DUP3 ADD DUP1 DUP3 GT ISZERO PUSH2 0x398 JUMPI PUSH2 0x398 PUSH2 0xEB6 JUMP JUMPDEST DUP2 DUP2 SUB DUP2 DUP2 GT ISZERO PUSH2 0x398 JUMPI PUSH2 0x398 PUSH2 0xEB6 JUMP INVALID GASLIMIT MSTORE NUMBER ORIGIN ADDRESS GASPRICE KECCAK256 PUSH21 0x72616E7366657220616D6F756E7420657863656564 PUSH20 0x20616C6C6F77616E636545524332303A20627572 PUSH15 0x20616D6F756E742065786365656473 KECCAK256 PUSH2 0x6C6C PUSH16 0x77616E636545524332303A2064656372 PUSH6 0x617365642061 PUSH13 0x6C6F77616E63652062656C6F77 KECCAK256 PUSH27 0x65726FA2646970667358221220737E588D87774624AC0F43252368 PUSH15 0xF75018FDF460785CDF1687C2C076EE SLT 0x5F PUSH5 0x736F6C6343 STOP ADDMOD GT STOP CALLER "},"gasEstimates":{"creation":{"codeDepositCost":"803200","executionCost":"infinite","totalCost":"infinite"},"external":{"allowance(address,address)":"infinite","approve(address,uint256)":"24644","balanceOf(address)":"2626","burn(uint256)":"infinite","burnFrom(address,uint256)":"infinite","decimals()":"2335","decreaseAllowance(address,uint256)":"infinite","disableMaxSupply()":"26614","enableMaxSupply()":"26599","increaseAllowance(address,uint256)":"infinite","mint(address,uint256)":"infinite","name()":"infinite","owner()":"2346","renounceOwnership()":"infinite","symbol()":"infinite","totalSupply()":"2349","transfer(address,uint256)":"infinite","transferFrom(address,address,uint256)":"infinite","transferOwnership(address)":"28384"},"internal":{"_approve(address,address,uint256)":"infinite","_burn(address,uint256)":"infinite","_transfer(address,address,uint256)":"infinite"}},"methodIdentifiers":{"allowance(address,address)":"dd62ed3e","approve(address,uint256)":"095ea7b3","balanceOf(address)":"70a08231","burn(uint256)":"42966c68","burnFrom(address,uint256)":"79cc6790","decimals()":"313ce567","decreaseAllowance(address,uint256)":"a457c2d7","disableMaxSupply()":"f6808db6","enableMaxSupply()":"8db64cec","increaseAllowance(address,uint256)":"39509351","mint(address,uint256)":"40c10f19","name()":"06fdde03","owner()":"8da5cb5b","renounceOwnership()":"715018a6","symbol()":"95d89b41","totalSupply()":"18160ddd","transfer(address,uint256)":"a9059cbb","transferFrom(address,address,uint256)":"23b872dd","transferOwnership(address)":"f2fde38b"}},"storageLayout":{"storage":[{"astId":7,"contract":"contracts/ICO.sol:MyToken","label":"_owner","offset":0,"slot":"0","type":"t_address"},{"astId":3513,"contract":"contracts/ICO.sol:MyToken","label":"_balances","offset":0,"slot":"1","type":"t_mapping(t_address,t_uint256)"},{"astId":3519,"contract":"contracts/ICO.sol:MyToken","label":"_allowances","offset":0,"slot":"2","type":"t_mapping(t_address,t_mapping(t_address,t_uint256))"},{"astId":3521,"contract":"contracts/ICO.sol:MyToken","label":"_name","offset":0,"slot":"3","type":"t_string_storage"},{"astId":3523,"contract":"contracts/ICO.sol:MyToken","label":"_symbol","offset":0,"slot":"4","type":"t_string_storage"},{"astId":3525,"contract":"contracts/ICO.sol:MyToken","label":"_decimals","offset":0,"slot":"5","type":"t_uint8"},{"astId":3527,"contract":"contracts/ICO.sol:MyToken","label":"_totalSupply","offset":0,"slot":"6","type":"t_uint256"},{"astId":3529,"contract":"contracts/ICO.sol:MyToken","label":"_maxSupply","offset":0,"slot":"7","type":"t_uint256"},{"astId":3531,"contract":"contracts/ICO.sol:MyToken","label":"_maxSupplyEnabled","offset":0,"slot":"8","type":"t_bool"}],"types":{"t_address":{"encoding":"inplace","label":"address","numberOfBytes":"20"},"t_bool":{"encoding":"inplace","label":"bool","numberOfBytes":"1"},"t_mapping(t_address,t_mapping(t_address,t_uint256))":{"encoding":"mapping","key":"t_address","label":"mapping(address => mapping(address => uint256))","numberOfBytes":"32","value":"t_mapping(t_address,t_uint256)"},"t_mapping(t_address,t_uint256)":{"encoding":"mapping","key":"t_address","label":"mapping(address => uint256)","numberOfBytes":"32","value":"t_uint256"},"t_string_storage":{"encoding":"bytes","label":"string","numberOfBytes":"32"},"t_uint256":{"encoding":"inplace","label":"uint256","numberOfBytes":"32"},"t_uint8":{"encoding":"inplace","label":"uint8","numberOfBytes":"1"}}},"userdoc":{"kind":"user","methods":{},"version":1}}}}