{"contracts/ERC1155.sol":{"BNBEnviroment":{"abi":[{"inputs":[],"stateMutability":"nonpayable","type":"constructor"},{"anonymous":false,"inputs":[{"indexed":true,"internalType":"address","name":"account","type":"address"},{"indexed":true,"internalType":"address","name":"operator","type":"address"},{"indexed":false,"internalType":"bool","name":"approved","type":"bool"}],"name":"ApprovalForAll","type":"event"},{"anonymous":false,"inputs":[{"indexed":true,"internalType":"address","name":"owner","type":"address"},{"indexed":true,"internalType":"uint256","name":"_id","type":"uint256"},{"indexed":false,"internalType":"uint256","name":"_amount","type":"uint256"},{"indexed":false,"internalType":"bytes","name":"_data","type":"bytes"}],"name":"CreateToken","type":"event"},{"anonymous":false,"inputs":[{"indexed":true,"internalType":"address","name":"owner","type":"address"},{"indexed":true,"internalType":"uint256","name":"_id","type":"uint256"},{"indexed":false,"internalType":"uint256","name":"_amount","type":"uint256"}],"name":"DeleteToken","type":"event"},{"anonymous":false,"inputs":[{"indexed":true,"internalType":"address","name":"operator","type":"address"},{"indexed":true,"internalType":"address","name":"from","type":"address"},{"indexed":true,"internalType":"address","name":"to","type":"address"},{"indexed":false,"internalType":"uint256[]","name":"ids","type":"uint256[]"},{"indexed":false,"internalType":"uint256[]","name":"values","type":"uint256[]"}],"name":"TransferBatch","type":"event"},{"anonymous":false,"inputs":[{"indexed":true,"internalType":"address","name":"operator","type":"address"},{"indexed":true,"internalType":"address","name":"from","type":"address"},{"indexed":true,"internalType":"address","name":"to","type":"address"},{"indexed":false,"internalType":"uint256","name":"id","type":"uint256"},{"indexed":false,"internalType":"uint256","name":"value","type":"uint256"}],"name":"TransferSingle","type":"event"},{"anonymous":false,"inputs":[{"indexed":false,"internalType":"string","name":"value","type":"string"},{"indexed":true,"internalType":"uint256","name":"id","type":"uint256"}],"name":"URI","type":"event"},{"inputs":[],"name":"BNB_TOKEN","outputs":[{"internalType":"uint256","name":"","type":"uint256"}],"stateMutability":"view","type":"function"},{"inputs":[{"internalType":"address","name":"account","type":"address"},{"internalType":"uint256","name":"id","type":"uint256"}],"name":"balanceOf","outputs":[{"internalType":"uint256","name":"","type":"uint256"}],"stateMutability":"view","type":"function"},{"inputs":[{"internalType":"address[]","name":"accounts","type":"address[]"},{"internalType":"uint256[]","name":"ids","type":"uint256[]"}],"name":"balanceOfBatch","outputs":[{"internalType":"uint256[]","name":"","type":"uint256[]"}],"stateMutability":"view","type":"function"},{"inputs":[{"internalType":"address","name":"_owner","type":"address"}],"name":"balanceOfFNFT","outputs":[{"internalType":"uint256","name":"","type":"uint256"}],"stateMutability":"view","type":"function"},{"inputs":[],"name":"balanceOfToken","outputs":[{"internalType":"uint256","name":"","type":"uint256"}],"stateMutability":"view","type":"function"},{"inputs":[{"internalType":"string","name":"_urlURI","type":"string"}],"name":"createFNFT","outputs":[{"internalType":"uint256","name":"","type":"uint256"}],"stateMutability":"nonpayable","type":"function"},{"inputs":[{"internalType":"string[]","name":"_urlURI","type":"string[]"}],"name":"createFNFTBatch","outputs":[{"internalType":"uint256[]","name":"","type":"uint256[]"}],"stateMutability":"nonpayable","type":"function"},{"inputs":[],"name":"decimalsToken","outputs":[{"internalType":"uint8","name":"","type":"uint8"}],"stateMutability":"view","type":"function"},{"inputs":[{"internalType":"address","name":"account","type":"address"},{"internalType":"address","name":"operator","type":"address"}],"name":"isApprovedForAll","outputs":[{"internalType":"bool","name":"","type":"bool"}],"stateMutability":"view","type":"function"},{"inputs":[],"name":"nameToken","outputs":[{"internalType":"string","name":"","type":"string"}],"stateMutability":"view","type":"function"},{"inputs":[{"internalType":"address","name":"from","type":"address"},{"internalType":"address","name":"to","type":"address"},{"internalType":"uint256[]","name":"ids","type":"uint256[]"},{"internalType":"uint256[]","name":"amounts","type":"uint256[]"},{"internalType":"bytes","name":"data","type":"bytes"}],"name":"safeBatchTransferFrom","outputs":[],"stateMutability":"nonpayable","type":"function"},{"inputs":[{"internalType":"address","name":"from","type":"address"},{"internalType":"address","name":"to","type":"address"},{"internalType":"uint256","name":"id","type":"uint256"},{"internalType":"uint256","name":"amount","type":"uint256"},{"internalType":"bytes","name":"data","type":"bytes"}],"name":"safeTransferFrom","outputs":[],"stateMutability":"nonpayable","type":"function"},{"inputs":[{"internalType":"address","name":"operator","type":"address"},{"internalType":"bool","name":"approved","type":"bool"}],"name":"setApprovalForAll","outputs":[],"stateMutability":"nonpayable","type":"function"},{"inputs":[{"internalType":"bytes4","name":"interfaceId","type":"bytes4"}],"name":"supportsInterface","outputs":[{"internalType":"bool","name":"","type":"bool"}],"stateMutability":"view","type":"function"},{"inputs":[],"name":"symbolToken","outputs":[{"internalType":"string","name":"","type":"string"}],"stateMutability":"view","type":"function"},{"inputs":[],"name":"totalSupplyToken","outputs":[{"internalType":"uint256","name":"","type":"uint256"}],"stateMutability":"view","type":"function"},{"inputs":[{"internalType":"address","name":"_to","type":"address"},{"internalType":"uint256","name":"_amount","type":"uint256"}],"name":"transferToken","outputs":[],"stateMutability":"nonpayable","type":"function"},{"inputs":[{"internalType":"uint256","name":"_tokenid","type":"uint256"}],"name":"uri","outputs":[{"internalType":"string","name":"","type":"string"}],"stateMutability":"view","type":"function"}],"devdoc":{"kind":"dev","methods":{"balanceOf(address,uint256)":{"details":"See {IERC1155-balanceOf}. Requirements: - `account` cannot be the zero address."},"balanceOfBatch(address[],uint256[])":{"details":"See {IERC1155-balanceOfBatch}. Requirements: - `accounts` and `ids` must have the same length."},"isApprovedForAll(address,address)":{"details":"See {IERC1155-isApprovedForAll}."},"safeBatchTransferFrom(address,address,uint256[],uint256[],bytes)":{"details":"See {IERC1155-safeBatchTransferFrom}."},"safeTransferFrom(address,address,uint256,uint256,bytes)":{"details":"See {IERC1155-safeTransferFrom}."},"setApprovalForAll(address,bool)":{"details":"See {IERC1155-setApprovalForAll}."},"supportsInterface(bytes4)":{"details":"See {IERC165-supportsInterface}."}},"version":1},"evm":{"bytecode":{"linkReferences":{},"object":"60806040523480156200001157600080fd5b506040805160208101909152600081526200002c816200011e565b50604080518082019091526009815268212721102a37b5b2b760b91b60208201526005906200005c908262000524565b5060408051808201909152600381526221272160e91b602082015260069062000086908262000524565b506007805460ff19166012908117909155620000a490600a62000705565b600881905560408051602081019091526000808252620000c692339262000130565b604051806080016040528060598152602001620025bf605991396000805260046020527f17ef568e3e12ab5b9c7254a8d58478811de00f9e6eb34345acd53bf8fd09d3ec9062000117908262000524565b50620008f4565b60026200012c828262000524565b5050565b6001600160a01b038416620001965760405162461bcd60e51b815260206004820152602160248201527f455243313135353a206d696e7420746f20746865207a65726f206164647265736044820152607360f81b60648201526084015b60405180910390fd5b336000620001a48562000252565b90506000620001b38562000252565b90506000868152602081815260408083206001600160a01b038b16845290915281208054879290620001e79084906200071d565b909155505060408051878152602081018790526001600160a01b03808a1692600092918716917fc3d58168c5ae7397731d063d5bbf3d657854427343f4c083240f7aacaa2d0f62910160405180910390a46200024983600089898989620002a8565b50505050505050565b604080516001808252818301909252606091600091906020808301908036833701905050905082816000815181106200028f576200028f62000733565b602090810291909101015292915050565b505050505050565b620002c7846001600160a01b03166200047460201b62000a071760201c565b15620002a05760405163f23a6e6160e01b81526001600160a01b0385169063f23a6e619062000303908990899088908890889060040162000791565b6020604051808303816000875af192505050801562000341575060408051601f3d908101601f191682019092526200033e91810190620007d8565b60015b62000401576200035062000804565b806308c379a0036200039057506200036762000850565b8062000374575062000392565b8060405162461bcd60e51b81526004016200018d9190620008df565b505b60405162461bcd60e51b815260206004820152603460248201527f455243313135353a207472616e7366657220746f206e6f6e2d4552433131353560448201527f526563656976657220696d706c656d656e74657200000000000000000000000060648201526084016200018d565b6001600160e01b0319811663f23a6e6160e01b14620002495760405162461bcd60e51b815260206004820152602860248201527f455243313135353a204552433131353552656365697665722072656a656374656044820152676420746f6b656e7360c01b60648201526084016200018d565b6001600160a01b03163b151590565b634e487b7160e01b600052604160045260246000fd5b600181811c90821680620004ae57607f821691505b602082108103620004cf57634e487b7160e01b600052602260045260246000fd5b50919050565b601f8211156200051f57600081815260208120601f850160051c81016020861015620004fe5750805b601f850160051c820191505b81811015620002a0578281556001016200050a565b505050565b81516001600160401b0381111562000540576200054062000483565b620005588162000551845462000499565b84620004d5565b602080601f831160018114620005905760008415620005775750858301515b600019600386901b1c1916600185901b178555620002a0565b600085815260208120601f198616915b82811015620005c157888601518255948401946001909101908401620005a0565b5085821015620005e05787850151600019600388901b60f8161c191681555b5050505050600190811b01905550565b634e487b7160e01b600052601160045260246000fd5b600181815b80851115620006475781600019048211156200062b576200062b620005f0565b808516156200063957918102915b93841c93908002906200060b565b509250929050565b6000826200066057506001620006ff565b816200066f57506000620006ff565b81600181146200068857600281146200069357620006b3565b6001915050620006ff565b60ff841115620006a757620006a7620005f0565b50506001821b620006ff565b5060208310610133831016604e8410600b8410161715620006d8575081810a620006ff565b620006e4838362000606565b8060001904821115620006fb57620006fb620005f0565b0290505b92915050565b60006200071660ff8416836200064f565b9392505050565b80820180821115620006ff57620006ff620005f0565b634e487b7160e01b600052603260045260246000fd5b6000815180845260005b81811015620007715760208185018101518683018201520162000753565b506000602082860101526020601f19601f83011685010191505092915050565b6001600160a01b03868116825285166020820152604081018490526060810183905260a060808201819052600090620007cd9083018462000749565b979650505050505050565b600060208284031215620007eb57600080fd5b81516001600160e01b0319811681146200071657600080fd5b600060033d11156200081e5760046000803e5060005160e01c5b90565b601f8201601f191681016001600160401b038111828210171562000849576200084962000483565b6040525050565b600060443d10156200085f5790565b6040516003193d81016004833e81513d6001600160401b0380831160248401831017156200088f57505050505090565b8285019150815181811115620008a85750505050505090565b843d8701016020828501011115620008c35750505050505090565b620008d46020828601018762000821565b509095945050505050565b60208152600062000716602083018462000749565b611cbb80620009046000396000f3fe608060405234801561001057600080fd5b50600436106101355760003560e01c80634e1273f4116100b2578063a22cb46511610081578063e985e9c511610066578063e985e9c514610262578063ec45a25c1461029e578063f242432a146102b157600080fd5b8063a22cb46514610247578063dd12d8a51461025a57600080fd5b80634e1273f41461021c578063505442111461022f5780636b0f1c81146102375780636e3117841461023f57600080fd5b806327213345116101095780632a99e915116100ee5780632a99e915146101e05780632eb2c2d6146101f557806338a9188a1461020857600080fd5b806327213345146101b85780632a78a58a146101c057600080fd5b8062fdd58e1461013a57806301ffc9a7146101605780630e89341c146101835780631072cbea146101a3575b600080fd5b61014d610148366004611386565b6102c4565b6040519081526020015b60405180910390f35b61017361016e3660046113c9565b610370565b6040519015158152602001610157565b6101966101913660046113ed565b61040b565b604051610157919061144c565b6101b66101b1366004611386565b6104ad565b005b60085461014d565b6101d36101ce36600461153a565b6104ce565b6040516101579190611631565b60075460405160ff9091168152602001610157565b6101b66102033660046116b5565b610621565b61014d61021636600461175f565b50600090565b6101d361022a36600461177a565b6106c3565b61014d600081565b61014d610801565b610196610813565b6101b6610255366004611845565b6108a5565b6101966108b0565b610173610270366004611881565b6001600160a01b03918216600090815260016020908152604080832093909416825291909152205460ff1690565b61014d6102ac3660046118b4565b6108bf565b6101b66102bf3660046118f1565b61096c565b60006001600160a01b0383166103475760405162461bcd60e51b815260206004820152602a60248201527f455243313135353a2061646472657373207a65726f206973206e6f742061207660448201527f616c6964206f776e65720000000000000000000000000000000000000000000060648201526084015b60405180910390fd5b506000818152602081815260408083206001600160a01b03861684529091529020545b92915050565b60006001600160e01b031982167fd9b67a260000000000000000000000000000000000000000000000000000000014806103d357506001600160e01b031982167f0e89341c00000000000000000000000000000000000000000000000000000000145b8061036a57507f01ffc9a7000000000000000000000000000000000000000000000000000000006001600160e01b031983161461036a565b600081815260046020526040902080546060919061042890611956565b80601f016020809104026020016040519081016040528092919081815260200182805461045490611956565b80156104a15780601f10610476576101008083540402835291602001916104a1565b820191906000526020600020905b81548152906001019060200180831161048457829003601f168201915b50505050509050919050565b6104ca33836000846040518060200160405280600081525061096c565b5050565b60606000825167ffffffffffffffff8111156104ec576104ec61145f565b604051908082528060200260200182016040528015610515578160200160208202803683370190505b50905060005b835181101561061a57610532600380546001019055565b600061053d60035490565b905084828151811061055157610551611990565b602002602001015160046000838152602001908152602001600020908161057891906119f1565b506105953382600160405180602001604052806000815250610a16565b80336001600160a01b03167f1a605a604be68e06f6e1ae798a19cc74dd3fea9199ce4b6119da8cae33cf4aa860016040516105e191815260406020820181905260009082015260600190565b60405180910390a3808383815181106105fc576105fc611990565b6020908102919091010152508061061281611ac7565b91505061051b565b5092915050565b6001600160a01b03851633148061063d575061063d8533610270565b6106af5760405162461bcd60e51b815260206004820152602e60248201527f455243313135353a2063616c6c6572206973206e6f7420746f6b656e206f776e60448201527f6572206f7220617070726f766564000000000000000000000000000000000000606482015260840161033e565b6106bc8585858585610b46565b5050505050565b6060815183511461073c5760405162461bcd60e51b815260206004820152602960248201527f455243313135353a206163636f756e747320616e6420696473206c656e67746860448201527f206d69736d617463680000000000000000000000000000000000000000000000606482015260840161033e565b6000835167ffffffffffffffff8111156107585761075861145f565b604051908082528060200260200182016040528015610781578160200160208202803683370190505b50905060005b84518110156107f9576107cc8582815181106107a5576107a5611990565b60200260200101518583815181106107bf576107bf611990565b60200260200101516102c4565b8282815181106107de576107de611990565b60209081029190910101526107f281611ac7565b9050610787565b509392505050565b600061080e3360006102c4565b905090565b60606005805461082290611956565b80601f016020809104026020016040519081016040528092919081815260200182805461084e90611956565b801561089b5780601f106108705761010080835404028352916020019161089b565b820191906000526020600020905b81548152906001019060200180831161087e57829003601f168201915b5050505050905090565b6104ca338383610dcc565b60606006805461082290611956565b60006108cf600380546001019055565b60006108da60035490565b60008181526004602052604090209091506108f584826119f1565b506109123382600160405180602001604052806000815250610a16565b80336001600160a01b03167f1a605a604be68e06f6e1ae798a19cc74dd3fea9199ce4b6119da8cae33cf4aa8600160405161095e91815260406020820181905260009082015260600190565b60405180910390a392915050565b6001600160a01b03851633148061098857506109888533610270565b6109fa5760405162461bcd60e51b815260206004820152602e60248201527f455243313135353a2063616c6c6572206973206e6f7420746f6b656e206f776e60448201527f6572206f7220617070726f766564000000000000000000000000000000000000606482015260840161033e565b6106bc8585858585610ec0565b6001600160a01b03163b151590565b6001600160a01b038416610a925760405162461bcd60e51b815260206004820152602160248201527f455243313135353a206d696e7420746f20746865207a65726f2061646472657360448201527f7300000000000000000000000000000000000000000000000000000000000000606482015260840161033e565b336000610a9e8561107e565b90506000610aab8561107e565b90506000868152602081815260408083206001600160a01b038b16845290915281208054879290610add908490611ae0565b909155505060408051878152602081018790526001600160a01b03808a1692600092918716917fc3d58168c5ae7397731d063d5bbf3d657854427343f4c083240f7aacaa2d0f62910160405180910390a4610b3d836000898989896110c9565b50505050505050565b8151835114610bbd5760405162461bcd60e51b815260206004820152602860248201527f455243313135353a2069647320616e6420616d6f756e7473206c656e6774682060448201527f6d69736d61746368000000000000000000000000000000000000000000000000606482015260840161033e565b6001600160a01b038416610c215760405162461bcd60e51b815260206004820152602560248201527f455243313135353a207472616e7366657220746f20746865207a65726f206164604482015264647265737360d81b606482015260840161033e565b3360005b8451811015610d5e576000858281518110610c4257610c42611990565b602002602001015190506000858381518110610c6057610c60611990565b602090810291909101810151600084815280835260408082206001600160a01b038e168352909352919091205490915081811015610d065760405162461bcd60e51b815260206004820152602a60248201527f455243313135353a20696e73756666696369656e742062616c616e636520666f60448201527f72207472616e7366657200000000000000000000000000000000000000000000606482015260840161033e565b6000838152602081815260408083206001600160a01b038e8116855292528083208585039055908b16825281208054849290610d43908490611ae0565b9250508190555050505080610d5790611ac7565b9050610c25565b50846001600160a01b0316866001600160a01b0316826001600160a01b03167f4a39dc06d4c0dbc64b70af90fd698a233a518aa5d07e595d983b8c0526c8f7fb8787604051610dae929190611af3565b60405180910390a4610dc481878787878761126e565b505050505050565b816001600160a01b0316836001600160a01b031603610e535760405162461bcd60e51b815260206004820152602960248201527f455243313135353a2073657474696e6720617070726f76616c2073746174757360448201527f20666f722073656c660000000000000000000000000000000000000000000000606482015260840161033e565b6001600160a01b03838116600081815260016020908152604080832094871680845294825291829020805460ff191686151590811790915591519182527f17307eab39ab6107e8899845ad3d59bd9653f200f220920489ca2b5937696c31910160405180910390a3505050565b6001600160a01b038416610f245760405162461bcd60e51b815260206004820152602560248201527f455243313135353a207472616e7366657220746f20746865207a65726f206164604482015264647265737360d81b606482015260840161033e565b336000610f308561107e565b90506000610f3d8561107e565b90506000868152602081815260408083206001600160a01b038c16845290915290205485811015610fd65760405162461bcd60e51b815260206004820152602a60248201527f455243313135353a20696e73756666696369656e742062616c616e636520666f60448201527f72207472616e7366657200000000000000000000000000000000000000000000606482015260840161033e565b6000878152602081815260408083206001600160a01b038d8116855292528083208985039055908a16825281208054889290611013908490611ae0565b909155505060408051888152602081018890526001600160a01b03808b16928c821692918816917fc3d58168c5ae7397731d063d5bbf3d657854427343f4c083240f7aacaa2d0f62910160405180910390a4611073848a8a8a8a8a6110c9565b505050505050505050565b604080516001808252818301909252606091600091906020808301908036833701905050905082816000815181106110b8576110b8611990565b602090810291909101015292915050565b6001600160a01b0384163b15610dc45760405163f23a6e6160e01b81526001600160a01b0385169063f23a6e619061110d9089908990889088908890600401611b21565b6020604051808303816000875af1925050508015611148575060408051601f3d908101601f1916820190925261114591810190611b64565b60015b6111fd57611154611b81565b806308c379a00361118d5750611168611b9d565b80611173575061118f565b8060405162461bcd60e51b815260040161033e919061144c565b505b60405162461bcd60e51b815260206004820152603460248201527f455243313135353a207472616e7366657220746f206e6f6e2d4552433131353560448201527f526563656976657220696d706c656d656e746572000000000000000000000000606482015260840161033e565b6001600160e01b0319811663f23a6e6160e01b14610b3d5760405162461bcd60e51b815260206004820152602860248201527f455243313135353a204552433131353552656365697665722072656a656374656044820152676420746f6b656e7360c01b606482015260840161033e565b6001600160a01b0384163b15610dc45760405163bc197c8160e01b81526001600160a01b0385169063bc197c81906112b29089908990889088908890600401611c27565b6020604051808303816000875af19250505080156112ed575060408051601f3d908101601f191682019092526112ea91810190611b64565b60015b6112f957611154611b81565b6001600160e01b0319811663bc197c8160e01b14610b3d5760405162461bcd60e51b815260206004820152602860248201527f455243313135353a204552433131353552656365697665722072656a656374656044820152676420746f6b656e7360c01b606482015260840161033e565b80356001600160a01b038116811461138157600080fd5b919050565b6000806040838503121561139957600080fd5b6113a28361136a565b946020939093013593505050565b6001600160e01b0319811681146113c657600080fd5b50565b6000602082840312156113db57600080fd5b81356113e6816113b0565b9392505050565b6000602082840312156113ff57600080fd5b5035919050565b6000815180845260005b8181101561142c57602081850181015186830182015201611410565b506000602082860101526020601f19601f83011685010191505092915050565b6020815260006113e66020830184611406565b634e487b7160e01b600052604160045260246000fd5b601f8201601f1916810167ffffffffffffffff8111828210171561149b5761149b61145f565b6040525050565b600067ffffffffffffffff8211156114bc576114bc61145f565b5060051b60200190565b600082601f8301126114d757600080fd5b813567ffffffffffffffff8111156114f1576114f161145f565b604051611508601f8301601f191660200182611475565b81815284602083860101111561151d57600080fd5b816020850160208301376000918101602001919091529392505050565b6000602080838503121561154d57600080fd5b823567ffffffffffffffff8082111561156557600080fd5b818501915085601f83011261157957600080fd5b8135611584816114a2565b6040516115918282611475565b82815260059290921b84018501918581019150888311156115b157600080fd5b8585015b838110156115e9578035858111156115cd5760008081fd5b6115db8b89838a01016114c6565b8452509186019186016115b5565b5098975050505050505050565b600081518084526020808501945080840160005b838110156116265781518752958201959082019060010161160a565b509495945050505050565b6020815260006113e660208301846115f6565b600082601f83011261165557600080fd5b81356020611662826114a2565b60405161166f8282611475565b83815260059390931b850182019282810191508684111561168f57600080fd5b8286015b848110156116aa5780358352918301918301611693565b509695505050505050565b600080600080600060a086880312156116cd57600080fd5b6116d68661136a565b94506116e46020870161136a565b9350604086013567ffffffffffffffff8082111561170157600080fd5b61170d89838a01611644565b9450606088013591508082111561172357600080fd5b61172f89838a01611644565b9350608088013591508082111561174557600080fd5b50611752888289016114c6565b9150509295509295909350565b60006020828403121561177157600080fd5b6113e68261136a565b6000806040838503121561178d57600080fd5b823567ffffffffffffffff808211156117a557600080fd5b818501915085601f8301126117b957600080fd5b813560206117c6826114a2565b6040516117d38282611475565b83815260059390931b85018201928281019150898411156117f357600080fd5b948201945b83861015611818576118098661136a565b825294820194908201906117f8565b9650508601359250508082111561182e57600080fd5b5061183b85828601611644565b9150509250929050565b6000806040838503121561185857600080fd5b6118618361136a565b91506020830135801515811461187657600080fd5b809150509250929050565b6000806040838503121561189457600080fd5b61189d8361136a565b91506118ab6020840161136a565b90509250929050565b6000602082840312156118c657600080fd5b813567ffffffffffffffff8111156118dd57600080fd5b6118e9848285016114c6565b949350505050565b600080600080600060a0868803121561190957600080fd5b6119128661136a565b94506119206020870161136a565b93506040860135925060608601359150608086013567ffffffffffffffff81111561194a57600080fd5b611752888289016114c6565b600181811c9082168061196a57607f821691505b60208210810361198a57634e487b7160e01b600052602260045260246000fd5b50919050565b634e487b7160e01b600052603260045260246000fd5b601f8211156119ec57600081815260208120601f850160051c810160208610156119cd5750805b601f850160051c820191505b81811015610dc4578281556001016119d9565b505050565b815167ffffffffffffffff811115611a0b57611a0b61145f565b611a1f81611a198454611956565b846119a6565b602080601f831160018114611a545760008415611a3c5750858301515b600019600386901b1c1916600185901b178555610dc4565b600085815260208120601f198616915b82811015611a8357888601518255948401946001909101908401611a64565b5085821015611aa15787850151600019600388901b60f8161c191681555b5050505050600190811b01905550565b634e487b7160e01b600052601160045260246000fd5b600060018201611ad957611ad9611ab1565b5060010190565b8082018082111561036a5761036a611ab1565b604081526000611b0660408301856115f6565b8281036020840152611b1881856115f6565b95945050505050565b60006001600160a01b03808816835280871660208401525084604083015283606083015260a06080830152611b5960a0830184611406565b979650505050505050565b600060208284031215611b7657600080fd5b81516113e6816113b0565b600060033d1115611b9a5760046000803e5060005160e01c5b90565b600060443d1015611bab5790565b6040516003193d81016004833e81513d67ffffffffffffffff8160248401118184111715611bdb57505050505090565b8285019150815181811115611bf35750505050505090565b843d8701016020828501011115611c0d5750505050505090565b611c1c60208286010187611475565b509095945050505050565b60006001600160a01b03808816835280871660208401525060a06040830152611c5360a08301866115f6565b8281036060840152611c6581866115f6565b90508281036080840152611c798185611406565b9897505050505050505056fea264697066735822122055a6a617c65a0ecc5744810a47d35fa9b6c900016cc05d77f1dfdf0d8d272ee064736f6c6343000811003368747470733a2f2f6261666b72656967616f646366327961697562687668376a6b6f35377a6572757772366b327a63656a366674763461676c67376d746f6f737a37752e697066732e6e667473746f726167652e6c696e6b2f","opcodes":"PUSH1 0x80 PUSH1 0x40 MSTORE CALLVALUE DUP1 ISZERO PUSH3 0x11 JUMPI PUSH1 0x0 DUP1 REVERT JUMPDEST POP PUSH1 0x40 DUP1 MLOAD PUSH1 0x20 DUP2 ADD SWAP1 SWAP2 MSTORE PUSH1 0x0 DUP2 MSTORE PUSH3 0x2C DUP2 PUSH3 0x11E JUMP JUMPDEST POP PUSH1 0x40 DUP1 MLOAD DUP1 DUP3 ADD SWAP1 SWAP2 MSTORE PUSH1 0x9 DUP2 MSTORE PUSH9 0x212721102A37B5B2B7 PUSH1 0xB9 SHL PUSH1 0x20 DUP3 ADD MSTORE PUSH1 0x5 SWAP1 PUSH3 0x5C SWAP1 DUP3 PUSH3 0x524 JUMP JUMPDEST POP PUSH1 0x40 DUP1 MLOAD DUP1 DUP3 ADD SWAP1 SWAP2 MSTORE PUSH1 0x3 DUP2 MSTORE PUSH3 0x212721 PUSH1 0xE9 SHL PUSH1 0x20 DUP3 ADD MSTORE PUSH1 0x6 SWAP1 PUSH3 0x86 SWAP1 DUP3 PUSH3 0x524 JUMP JUMPDEST POP PUSH1 0x7 DUP1 SLOAD PUSH1 0xFF NOT AND PUSH1 0x12 SWAP1 DUP2 OR SWAP1 SWAP2 SSTORE PUSH3 0xA4 SWAP1 PUSH1 0xA PUSH3 0x705 JUMP JUMPDEST PUSH1 0x8 DUP2 SWAP1 SSTORE PUSH1 0x40 DUP1 MLOAD PUSH1 0x20 DUP2 ADD SWAP1 SWAP2 MSTORE PUSH1 0x0 DUP1 DUP3 MSTORE PUSH3 0xC6 SWAP3 CALLER SWAP3 PUSH3 0x130 JUMP JUMPDEST PUSH1 0x40 MLOAD DUP1 PUSH1 0x80 ADD PUSH1 0x40 MSTORE DUP1 PUSH1 0x59 DUP2 MSTORE PUSH1 0x20 ADD PUSH3 0x25BF PUSH1 0x59 SWAP2 CODECOPY PUSH1 0x0 DUP1 MSTORE PUSH1 0x4 PUSH1 0x20 MSTORE PUSH32 0x17EF568E3E12AB5B9C7254A8D58478811DE00F9E6EB34345ACD53BF8FD09D3EC SWAP1 PUSH3 0x117 SWAP1 DUP3 PUSH3 0x524 JUMP JUMPDEST POP PUSH3 0x8F4 JUMP JUMPDEST PUSH1 0x2 PUSH3 0x12C DUP3 DUP3 PUSH3 0x524 JUMP JUMPDEST POP POP JUMP JUMPDEST PUSH1 0x1 PUSH1 0x1 PUSH1 0xA0 SHL SUB DUP5 AND PUSH3 0x196 JUMPI PUSH1 0x40 MLOAD PUSH3 0x461BCD PUSH1 0xE5 SHL DUP2 MSTORE PUSH1 0x20 PUSH1 0x4 DUP3 ADD MSTORE PUSH1 0x21 PUSH1 0x24 DUP3 ADD MSTORE PUSH32 0x455243313135353A206D696E7420746F20746865207A65726F20616464726573 PUSH1 0x44 DUP3 ADD MSTORE PUSH1 0x73 PUSH1 0xF8 SHL PUSH1 0x64 DUP3 ADD MSTORE PUSH1 0x84 ADD JUMPDEST PUSH1 0x40 MLOAD DUP1 SWAP2 SUB SWAP1 REVERT JUMPDEST CALLER PUSH1 0x0 PUSH3 0x1A4 DUP6 PUSH3 0x252 JUMP JUMPDEST SWAP1 POP PUSH1 0x0 PUSH3 0x1B3 DUP6 PUSH3 0x252 JUMP JUMPDEST SWAP1 POP PUSH1 0x0 DUP7 DUP2 MSTORE PUSH1 0x20 DUP2 DUP2 MSTORE PUSH1 0x40 DUP1 DUP4 KECCAK256 PUSH1 0x1 PUSH1 0x1 PUSH1 0xA0 SHL SUB DUP12 AND DUP5 MSTORE SWAP1 SWAP2 MSTORE DUP2 KECCAK256 DUP1 SLOAD DUP8 SWAP3 SWAP1 PUSH3 0x1E7 SWAP1 DUP5 SWAP1 PUSH3 0x71D JUMP JUMPDEST SWAP1 SWAP2 SSTORE POP POP PUSH1 0x40 DUP1 MLOAD DUP8 DUP2 MSTORE PUSH1 0x20 DUP2 ADD DUP8 SWAP1 MSTORE PUSH1 0x1 PUSH1 0x1 PUSH1 0xA0 SHL SUB DUP1 DUP11 AND SWAP3 PUSH1 0x0 SWAP3 SWAP2 DUP8 AND SWAP2 PUSH32 0xC3D58168C5AE7397731D063D5BBF3D657854427343F4C083240F7AACAA2D0F62 SWAP2 ADD PUSH1 0x40 MLOAD DUP1 SWAP2 SUB SWAP1 LOG4 PUSH3 0x249 DUP4 PUSH1 0x0 DUP10 DUP10 DUP10 DUP10 PUSH3 0x2A8 JUMP JUMPDEST POP POP POP POP POP POP POP JUMP JUMPDEST PUSH1 0x40 DUP1 MLOAD PUSH1 0x1 DUP1 DUP3 MSTORE DUP2 DUP4 ADD SWAP1 SWAP3 MSTORE PUSH1 0x60 SWAP2 PUSH1 0x0 SWAP2 SWAP1 PUSH1 0x20 DUP1 DUP4 ADD SWAP1 DUP1 CALLDATASIZE DUP4 CALLDATACOPY ADD SWAP1 POP POP SWAP1 POP DUP3 DUP2 PUSH1 0x0 DUP2 MLOAD DUP2 LT PUSH3 0x28F JUMPI PUSH3 0x28F PUSH3 0x733 JUMP JUMPDEST PUSH1 0x20 SWAP1 DUP2 MUL SWAP2 SWAP1 SWAP2 ADD ADD MSTORE SWAP3 SWAP2 POP POP JUMP JUMPDEST POP POP POP POP POP POP JUMP JUMPDEST PUSH3 0x2C7 DUP5 PUSH1 0x1 PUSH1 0x1 PUSH1 0xA0 SHL SUB AND PUSH3 0x474 PUSH1 0x20 SHL PUSH3 0xA07 OR PUSH1 0x20 SHR JUMP JUMPDEST ISZERO PUSH3 0x2A0 JUMPI PUSH1 0x40 MLOAD PUSH4 0xF23A6E61 PUSH1 0xE0 SHL DUP2 MSTORE PUSH1 0x1 PUSH1 0x1 PUSH1 0xA0 SHL SUB DUP6 AND SWAP1 PUSH4 0xF23A6E61 SWAP1 PUSH3 0x303 SWAP1 DUP10 SWAP1 DUP10 SWAP1 DUP9 SWAP1 DUP9 SWAP1 DUP9 SWAP1 PUSH1 0x4 ADD PUSH3 0x791 JUMP JUMPDEST PUSH1 0x20 PUSH1 0x40 MLOAD DUP1 DUP4 SUB DUP2 PUSH1 0x0 DUP8 GAS CALL SWAP3 POP POP POP DUP1 ISZERO PUSH3 0x341 JUMPI POP PUSH1 0x40 DUP1 MLOAD PUSH1 0x1F RETURNDATASIZE SWAP1 DUP2 ADD PUSH1 0x1F NOT AND DUP3 ADD SWAP1 SWAP3 MSTORE PUSH3 0x33E SWAP2 DUP2 ADD SWAP1 PUSH3 0x7D8 JUMP JUMPDEST PUSH1 0x1 JUMPDEST PUSH3 0x401 JUMPI PUSH3 0x350 PUSH3 0x804 JUMP JUMPDEST DUP1 PUSH4 0x8C379A0 SUB PUSH3 0x390 JUMPI POP PUSH3 0x367 PUSH3 0x850 JUMP JUMPDEST DUP1 PUSH3 0x374 JUMPI POP PUSH3 0x392 JUMP JUMPDEST DUP1 PUSH1 0x40 MLOAD PUSH3 0x461BCD PUSH1 0xE5 SHL DUP2 MSTORE PUSH1 0x4 ADD PUSH3 0x18D SWAP2 SWAP1 PUSH3 0x8DF JUMP JUMPDEST POP JUMPDEST PUSH1 0x40 MLOAD PUSH3 0x461BCD PUSH1 0xE5 SHL DUP2 MSTORE PUSH1 0x20 PUSH1 0x4 DUP3 ADD MSTORE PUSH1 0x34 PUSH1 0x24 DUP3 ADD MSTORE PUSH32 0x455243313135353A207472616E7366657220746F206E6F6E2D45524331313535 PUSH1 0x44 DUP3 ADD MSTORE PUSH32 0x526563656976657220696D706C656D656E746572000000000000000000000000 PUSH1 0x64 DUP3 ADD MSTORE PUSH1 0x84 ADD PUSH3 0x18D JUMP JUMPDEST PUSH1 0x1 PUSH1 0x1 PUSH1 0xE0 SHL SUB NOT DUP2 AND PUSH4 0xF23A6E61 PUSH1 0xE0 SHL EQ PUSH3 0x249 JUMPI PUSH1 0x40 MLOAD PUSH3 0x461BCD PUSH1 0xE5 SHL DUP2 MSTORE PUSH1 0x20 PUSH1 0x4 DUP3 ADD MSTORE PUSH1 0x28 PUSH1 0x24 DUP3 ADD MSTORE PUSH32 0x455243313135353A204552433131353552656365697665722072656A65637465 PUSH1 0x44 DUP3 ADD MSTORE PUSH8 0x6420746F6B656E73 PUSH1 0xC0 SHL PUSH1 0x64 DUP3 ADD MSTORE PUSH1 0x84 ADD PUSH3 0x18D JUMP JUMPDEST PUSH1 0x1 PUSH1 0x1 PUSH1 0xA0 SHL SUB AND EXTCODESIZE ISZERO ISZERO SWAP1 JUMP JUMPDEST PUSH4 0x4E487B71 PUSH1 0xE0 SHL PUSH1 0x0 MSTORE PUSH1 0x41 PUSH1 0x4 MSTORE PUSH1 0x24 PUSH1 0x0 REVERT JUMPDEST PUSH1 0x1 DUP2 DUP2 SHR SWAP1 DUP3 AND DUP1 PUSH3 0x4AE JUMPI PUSH1 0x7F DUP3 AND SWAP2 POP JUMPDEST PUSH1 0x20 DUP3 LT DUP2 SUB PUSH3 0x4CF JUMPI PUSH4 0x4E487B71 PUSH1 0xE0 SHL PUSH1 0x0 MSTORE PUSH1 0x22 PUSH1 0x4 MSTORE PUSH1 0x24 PUSH1 0x0 REVERT JUMPDEST POP SWAP2 SWAP1 POP JUMP JUMPDEST PUSH1 0x1F DUP3 GT ISZERO PUSH3 0x51F JUMPI PUSH1 0x0 DUP2 DUP2 MSTORE PUSH1 0x20 DUP2 KECCAK256 PUSH1 0x1F DUP6 ADD PUSH1 0x5 SHR DUP2 ADD PUSH1 0x20 DUP7 LT ISZERO PUSH3 0x4FE JUMPI POP DUP1 JUMPDEST PUSH1 0x1F DUP6 ADD PUSH1 0x5 SHR DUP3 ADD SWAP2 POP JUMPDEST DUP2 DUP2 LT ISZERO PUSH3 0x2A0 JUMPI DUP3 DUP2 SSTORE PUSH1 0x1 ADD PUSH3 0x50A JUMP JUMPDEST POP POP POP JUMP JUMPDEST DUP2 MLOAD PUSH1 0x1 PUSH1 0x1 PUSH1 0x40 SHL SUB DUP2 GT ISZERO PUSH3 0x540 JUMPI PUSH3 0x540 PUSH3 0x483 JUMP JUMPDEST PUSH3 0x558 DUP2 PUSH3 0x551 DUP5 SLOAD PUSH3 0x499 JUMP JUMPDEST DUP5 PUSH3 0x4D5 JUMP JUMPDEST PUSH1 0x20 DUP1 PUSH1 0x1F DUP4 GT PUSH1 0x1 DUP2 EQ PUSH3 0x590 JUMPI PUSH1 0x0 DUP5 ISZERO PUSH3 0x577 JUMPI POP DUP6 DUP4 ADD MLOAD JUMPDEST PUSH1 0x0 NOT PUSH1 0x3 DUP7 SWAP1 SHL SHR NOT AND PUSH1 0x1 DUP6 SWAP1 SHL OR DUP6 SSTORE PUSH3 0x2A0 JUMP JUMPDEST PUSH1 0x0 DUP6 DUP2 MSTORE PUSH1 0x20 DUP2 KECCAK256 PUSH1 0x1F NOT DUP7 AND SWAP2 JUMPDEST DUP3 DUP2 LT ISZERO PUSH3 0x5C1 JUMPI DUP9 DUP7 ADD MLOAD DUP3 SSTORE SWAP5 DUP5 ADD SWAP5 PUSH1 0x1 SWAP1 SWAP2 ADD SWAP1 DUP5 ADD PUSH3 0x5A0 JUMP JUMPDEST POP DUP6 DUP3 LT ISZERO PUSH3 0x5E0 JUMPI DUP8 DUP6 ADD MLOAD PUSH1 0x0 NOT PUSH1 0x3 DUP9 SWAP1 SHL PUSH1 0xF8 AND SHR NOT AND DUP2 SSTORE JUMPDEST POP POP POP POP POP PUSH1 0x1 SWAP1 DUP2 SHL ADD SWAP1 SSTORE POP JUMP JUMPDEST PUSH4 0x4E487B71 PUSH1 0xE0 SHL PUSH1 0x0 MSTORE PUSH1 0x11 PUSH1 0x4 MSTORE PUSH1 0x24 PUSH1 0x0 REVERT JUMPDEST PUSH1 0x1 DUP2 DUP2 JUMPDEST DUP1 DUP6 GT ISZERO PUSH3 0x647 JUMPI DUP2 PUSH1 0x0 NOT DIV DUP3 GT ISZERO PUSH3 0x62B JUMPI PUSH3 0x62B PUSH3 0x5F0 JUMP JUMPDEST DUP1 DUP6 AND ISZERO PUSH3 0x639 JUMPI SWAP2 DUP2 MUL SWAP2 JUMPDEST SWAP4 DUP5 SHR SWAP4 SWAP1 DUP1 MUL SWAP1 PUSH3 0x60B JUMP JUMPDEST POP SWAP3 POP SWAP3 SWAP1 POP JUMP JUMPDEST PUSH1 0x0 DUP3 PUSH3 0x660 JUMPI POP PUSH1 0x1 PUSH3 0x6FF JUMP JUMPDEST DUP2 PUSH3 0x66F JUMPI POP PUSH1 0x0 PUSH3 0x6FF JUMP JUMPDEST DUP2 PUSH1 0x1 DUP2 EQ PUSH3 0x688 JUMPI PUSH1 0x2 DUP2 EQ PUSH3 0x693 JUMPI PUSH3 0x6B3 JUMP JUMPDEST PUSH1 0x1 SWAP2 POP POP PUSH3 0x6FF JUMP JUMPDEST PUSH1 0xFF DUP5 GT ISZERO PUSH3 0x6A7 JUMPI PUSH3 0x6A7 PUSH3 0x5F0 JUMP JUMPDEST POP POP PUSH1 0x1 DUP3 SHL PUSH3 0x6FF JUMP JUMPDEST POP PUSH1 0x20 DUP4 LT PUSH2 0x133 DUP4 LT AND PUSH1 0x4E DUP5 LT PUSH1 0xB DUP5 LT AND OR ISZERO PUSH3 0x6D8 JUMPI POP DUP2 DUP2 EXP PUSH3 0x6FF JUMP JUMPDEST PUSH3 0x6E4 DUP4 DUP4 PUSH3 0x606 JUMP JUMPDEST DUP1 PUSH1 0x0 NOT DIV DUP3 GT ISZERO PUSH3 0x6FB JUMPI PUSH3 0x6FB PUSH3 0x5F0 JUMP JUMPDEST MUL SWAP1 POP JUMPDEST SWAP3 SWAP2 POP POP JUMP JUMPDEST PUSH1 0x0 PUSH3 0x716 PUSH1 0xFF DUP5 AND DUP4 PUSH3 0x64F JUMP JUMPDEST SWAP4 SWAP3 POP POP POP JUMP JUMPDEST DUP1 DUP3 ADD DUP1 DUP3 GT ISZERO PUSH3 0x6FF JUMPI PUSH3 0x6FF PUSH3 0x5F0 JUMP JUMPDEST PUSH4 0x4E487B71 PUSH1 0xE0 SHL PUSH1 0x0 MSTORE PUSH1 0x32 PUSH1 0x4 MSTORE PUSH1 0x24 PUSH1 0x0 REVERT JUMPDEST PUSH1 0x0 DUP2 MLOAD DUP1 DUP5 MSTORE PUSH1 0x0 JUMPDEST DUP2 DUP2 LT ISZERO PUSH3 0x771 JUMPI PUSH1 0x20 DUP2 DUP6 ADD DUP2 ADD MLOAD DUP7 DUP4 ADD DUP3 ADD MSTORE ADD PUSH3 0x753 JUMP JUMPDEST POP PUSH1 0x0 PUSH1 0x20 DUP3 DUP7 ADD ADD MSTORE PUSH1 0x20 PUSH1 0x1F NOT PUSH1 0x1F DUP4 ADD AND DUP6 ADD ADD SWAP2 POP POP SWAP3 SWAP2 POP POP JUMP JUMPDEST PUSH1 0x1 PUSH1 0x1 PUSH1 0xA0 SHL SUB DUP7 DUP2 AND DUP3 MSTORE DUP6 AND PUSH1 0x20 DUP3 ADD MSTORE PUSH1 0x40 DUP2 ADD DUP5 SWAP1 MSTORE PUSH1 0x60 DUP2 ADD DUP4 SWAP1 MSTORE PUSH1 0xA0 PUSH1 0x80 DUP3 ADD DUP2 SWAP1 MSTORE PUSH1 0x0 SWAP1 PUSH3 0x7CD SWAP1 DUP4 ADD DUP5 PUSH3 0x749 JUMP JUMPDEST SWAP8 SWAP7 POP POP POP POP POP POP POP JUMP JUMPDEST PUSH1 0x0 PUSH1 0x20 DUP3 DUP5 SUB SLT ISZERO PUSH3 0x7EB JUMPI PUSH1 0x0 DUP1 REVERT JUMPDEST DUP2 MLOAD PUSH1 0x1 PUSH1 0x1 PUSH1 0xE0 SHL SUB NOT DUP2 AND DUP2 EQ PUSH3 0x716 JUMPI PUSH1 0x0 DUP1 REVERT JUMPDEST PUSH1 0x0 PUSH1 0x3 RETURNDATASIZE GT ISZERO PUSH3 0x81E JUMPI PUSH1 0x4 PUSH1 0x0 DUP1 RETURNDATACOPY POP PUSH1 0x0 MLOAD PUSH1 0xE0 SHR JUMPDEST SWAP1 JUMP JUMPDEST PUSH1 0x1F DUP3 ADD PUSH1 0x1F NOT AND DUP2 ADD PUSH1 0x1 PUSH1 0x1 PUSH1 0x40 SHL SUB DUP2 GT DUP3 DUP3 LT OR ISZERO PUSH3 0x849 JUMPI PUSH3 0x849 PUSH3 0x483 JUMP JUMPDEST PUSH1 0x40 MSTORE POP POP JUMP JUMPDEST PUSH1 0x0 PUSH1 0x44 RETURNDATASIZE LT ISZERO PUSH3 0x85F JUMPI SWAP1 JUMP JUMPDEST PUSH1 0x40 MLOAD PUSH1 0x3 NOT RETURNDATASIZE DUP2 ADD PUSH1 0x4 DUP4 RETURNDATACOPY DUP2 MLOAD RETURNDATASIZE PUSH1 0x1 PUSH1 0x1 PUSH1 0x40 SHL SUB DUP1 DUP4 GT PUSH1 0x24 DUP5 ADD DUP4 LT OR ISZERO PUSH3 0x88F JUMPI POP POP POP POP POP SWAP1 JUMP JUMPDEST DUP3 DUP6 ADD SWAP2 POP DUP2 MLOAD DUP2 DUP2 GT ISZERO PUSH3 0x8A8 JUMPI POP POP POP POP POP POP SWAP1 JUMP JUMPDEST DUP5 RETURNDATASIZE DUP8 ADD ADD PUSH1 0x20 DUP3 DUP6 ADD ADD GT ISZERO PUSH3 0x8C3 JUMPI POP POP POP POP POP POP SWAP1 JUMP JUMPDEST PUSH3 0x8D4 PUSH1 0x20 DUP3 DUP7 ADD ADD DUP8 PUSH3 0x821 JUMP JUMPDEST POP SWAP1 SWAP6 SWAP5 POP POP POP POP POP JUMP JUMPDEST PUSH1 0x20 DUP2 MSTORE PUSH1 0x0 PUSH3 0x716 PUSH1 0x20 DUP4 ADD DUP5 PUSH3 0x749 JUMP JUMPDEST PUSH2 0x1CBB DUP1 PUSH3 0x904 PUSH1 0x0 CODECOPY PUSH1 0x0 RETURN INVALID PUSH1 0x80 PUSH1 0x40 MSTORE CALLVALUE DUP1 ISZERO PUSH2 0x10 JUMPI PUSH1 0x0 DUP1 REVERT JUMPDEST POP PUSH1 0x4 CALLDATASIZE LT PUSH2 0x135 JUMPI PUSH1 0x0 CALLDATALOAD PUSH1 0xE0 SHR DUP1 PUSH4 0x4E1273F4 GT PUSH2 0xB2 JUMPI DUP1 PUSH4 0xA22CB465 GT PUSH2 0x81 JUMPI DUP1 PUSH4 0xE985E9C5 GT PUSH2 0x66 JUMPI DUP1 PUSH4 0xE985E9C5 EQ PUSH2 0x262 JUMPI DUP1 PUSH4 0xEC45A25C EQ PUSH2 0x29E JUMPI DUP1 PUSH4 0xF242432A EQ PUSH2 0x2B1 JUMPI PUSH1 0x0 DUP1 REVERT JUMPDEST DUP1 PUSH4 0xA22CB465 EQ PUSH2 0x247 JUMPI DUP1 PUSH4 0xDD12D8A5 EQ PUSH2 0x25A JUMPI PUSH1 0x0 DUP1 REVERT JUMPDEST DUP1 PUSH4 0x4E1273F4 EQ PUSH2 0x21C JUMPI DUP1 PUSH4 0x50544211 EQ PUSH2 0x22F JUMPI DUP1 PUSH4 0x6B0F1C81 EQ PUSH2 0x237 JUMPI DUP1 PUSH4 0x6E311784 EQ PUSH2 0x23F JUMPI PUSH1 0x0 DUP1 REVERT JUMPDEST DUP1 PUSH4 0x27213345 GT PUSH2 0x109 JUMPI DUP1 PUSH4 0x2A99E915 GT PUSH2 0xEE JUMPI DUP1 PUSH4 0x2A99E915 EQ PUSH2 0x1E0 JUMPI DUP1 PUSH4 0x2EB2C2D6 EQ PUSH2 0x1F5 JUMPI DUP1 PUSH4 0x38A9188A EQ PUSH2 0x208 JUMPI PUSH1 0x0 DUP1 REVERT JUMPDEST DUP1 PUSH4 0x27213345 EQ PUSH2 0x1B8 JUMPI DUP1 PUSH4 0x2A78A58A EQ PUSH2 0x1C0 JUMPI PUSH1 0x0 DUP1 REVERT JUMPDEST DUP1 PUSH3 0xFDD58E EQ PUSH2 0x13A JUMPI DUP1 PUSH4 0x1FFC9A7 EQ PUSH2 0x160 JUMPI DUP1 PUSH4 0xE89341C EQ PUSH2 0x183 JUMPI DUP1 PUSH4 0x1072CBEA EQ PUSH2 0x1A3 JUMPI JUMPDEST PUSH1 0x0 DUP1 REVERT JUMPDEST PUSH2 0x14D PUSH2 0x148 CALLDATASIZE PUSH1 0x4 PUSH2 0x1386 JUMP JUMPDEST PUSH2 0x2C4 JUMP JUMPDEST PUSH1 0x40 MLOAD SWAP1 DUP2 MSTORE PUSH1 0x20 ADD JUMPDEST PUSH1 0x40 MLOAD DUP1 SWAP2 SUB SWAP1 RETURN JUMPDEST PUSH2 0x173 PUSH2 0x16E CALLDATASIZE PUSH1 0x4 PUSH2 0x13C9 JUMP JUMPDEST PUSH2 0x370 JUMP JUMPDEST PUSH1 0x40 MLOAD SWAP1 ISZERO ISZERO DUP2 MSTORE PUSH1 0x20 ADD PUSH2 0x157 JUMP JUMPDEST PUSH2 0x196 PUSH2 0x191 CALLDATASIZE PUSH1 0x4 PUSH2 0x13ED JUMP JUMPDEST PUSH2 0x40B JUMP JUMPDEST PUSH1 0x40 MLOAD PUSH2 0x157 SWAP2 SWAP1 PUSH2 0x144C JUMP JUMPDEST PUSH2 0x1B6 PUSH2 0x1B1 CALLDATASIZE PUSH1 0x4 PUSH2 0x1386 JUMP JUMPDEST PUSH2 0x4AD JUMP JUMPDEST STOP JUMPDEST PUSH1 0x8 SLOAD PUSH2 0x14D JUMP JUMPDEST PUSH2 0x1D3 PUSH2 0x1CE CALLDATASIZE PUSH1 0x4 PUSH2 0x153A JUMP JUMPDEST PUSH2 0x4CE JUMP JUMPDEST PUSH1 0x40 MLOAD PUSH2 0x157 SWAP2 SWAP1 PUSH2 0x1631 JUMP JUMPDEST PUSH1 0x7 SLOAD PUSH1 0x40 MLOAD PUSH1 0xFF SWAP1 SWAP2 AND DUP2 MSTORE PUSH1 0x20 ADD PUSH2 0x157 JUMP JUMPDEST PUSH2 0x1B6 PUSH2 0x203 CALLDATASIZE PUSH1 0x4 PUSH2 0x16B5 JUMP JUMPDEST PUSH2 0x621 JUMP JUMPDEST PUSH2 0x14D PUSH2 0x216 CALLDATASIZE PUSH1 0x4 PUSH2 0x175F JUMP JUMPDEST POP PUSH1 0x0 SWAP1 JUMP JUMPDEST PUSH2 0x1D3 PUSH2 0x22A CALLDATASIZE PUSH1 0x4 PUSH2 0x177A JUMP JUMPDEST PUSH2 0x6C3 JUMP JUMPDEST PUSH2 0x14D PUSH1 0x0 DUP2 JUMP JUMPDEST PUSH2 0x14D PUSH2 0x801 JUMP JUMPDEST PUSH2 0x196 PUSH2 0x813 JUMP JUMPDEST PUSH2 0x1B6 PUSH2 0x255 CALLDATASIZE PUSH1 0x4 PUSH2 0x1845 JUMP JUMPDEST PUSH2 0x8A5 JUMP JUMPDEST PUSH2 0x196 PUSH2 0x8B0 JUMP JUMPDEST PUSH2 0x173 PUSH2 0x270 CALLDATASIZE PUSH1 0x4 PUSH2 0x1881 JUMP JUMPDEST PUSH1 0x1 PUSH1 0x1 PUSH1 0xA0 SHL SUB SWAP2 DUP3 AND PUSH1 0x0 SWAP1 DUP2 MSTORE PUSH1 0x1 PUSH1 0x20 SWAP1 DUP2 MSTORE PUSH1 0x40 DUP1 DUP4 KECCAK256 SWAP4 SWAP1 SWAP5 AND DUP3 MSTORE SWAP2 SWAP1 SWAP2 MSTORE KECCAK256 SLOAD PUSH1 0xFF AND SWAP1 JUMP JUMPDEST PUSH2 0x14D PUSH2 0x2AC CALLDATASIZE PUSH1 0x4 PUSH2 0x18B4 JUMP JUMPDEST PUSH2 0x8BF JUMP JUMPDEST PUSH2 0x1B6 PUSH2 0x2BF CALLDATASIZE PUSH1 0x4 PUSH2 0x18F1 JUMP JUMPDEST PUSH2 0x96C JUMP JUMPDEST PUSH1 0x0 PUSH1 0x1 PUSH1 0x1 PUSH1 0xA0 SHL SUB DUP4 AND PUSH2 0x347 JUMPI PUSH1 0x40 MLOAD PUSH3 0x461BCD PUSH1 0xE5 SHL DUP2 MSTORE PUSH1 0x20 PUSH1 0x4 DUP3 ADD MSTORE PUSH1 0x2A PUSH1 0x24 DUP3 ADD MSTORE PUSH32 0x455243313135353A2061646472657373207A65726F206973206E6F7420612076 PUSH1 0x44 DUP3 ADD MSTORE PUSH32 0x616C6964206F776E657200000000000000000000000000000000000000000000 PUSH1 0x64 DUP3 ADD MSTORE PUSH1 0x84 ADD JUMPDEST PUSH1 0x40 MLOAD DUP1 SWAP2 SUB SWAP1 REVERT JUMPDEST POP PUSH1 0x0 DUP2 DUP2 MSTORE PUSH1 0x20 DUP2 DUP2 MSTORE PUSH1 0x40 DUP1 DUP4 KECCAK256 PUSH1 0x1 PUSH1 0x1 PUSH1 0xA0 SHL SUB DUP7 AND DUP5 MSTORE SWAP1 SWAP2 MSTORE SWAP1 KECCAK256 SLOAD JUMPDEST SWAP3 SWAP2 POP POP JUMP JUMPDEST PUSH1 0x0 PUSH1 0x1 PUSH1 0x1 PUSH1 0xE0 SHL SUB NOT DUP3 AND PUSH32 0xD9B67A2600000000000000000000000000000000000000000000000000000000 EQ DUP1 PUSH2 0x3D3 JUMPI POP PUSH1 0x1 PUSH1 0x1 PUSH1 0xE0 SHL SUB NOT DUP3 AND PUSH32 0xE89341C00000000000000000000000000000000000000000000000000000000 EQ JUMPDEST DUP1 PUSH2 0x36A JUMPI POP PUSH32 0x1FFC9A700000000000000000000000000000000000000000000000000000000 PUSH1 0x1 PUSH1 0x1 PUSH1 0xE0 SHL SUB NOT DUP4 AND EQ PUSH2 0x36A JUMP JUMPDEST PUSH1 0x0 DUP2 DUP2 MSTORE PUSH1 0x4 PUSH1 0x20 MSTORE PUSH1 0x40 SWAP1 KECCAK256 DUP1 SLOAD PUSH1 0x60 SWAP2 SWAP1 PUSH2 0x428 SWAP1 PUSH2 0x1956 JUMP JUMPDEST DUP1 PUSH1 0x1F ADD PUSH1 0x20 DUP1 SWAP2 DIV MUL PUSH1 0x20 ADD PUSH1 0x40 MLOAD SWAP1 DUP2 ADD PUSH1 0x40 MSTORE DUP1 SWAP3 SWAP2 SWAP1 DUP2 DUP2 MSTORE PUSH1 0x20 ADD DUP3 DUP1 SLOAD PUSH2 0x454 SWAP1 PUSH2 0x1956 JUMP JUMPDEST DUP1 ISZERO PUSH2 0x4A1 JUMPI DUP1 PUSH1 0x1F LT PUSH2 0x476 JUMPI PUSH2 0x100 DUP1 DUP4 SLOAD DIV MUL DUP4 MSTORE SWAP2 PUSH1 0x20 ADD SWAP2 PUSH2 0x4A1 JUMP JUMPDEST DUP3 ADD SWAP2 SWAP1 PUSH1 0x0 MSTORE PUSH1 0x20 PUSH1 0x0 KECCAK256 SWAP1 JUMPDEST DUP2 SLOAD DUP2 MSTORE SWAP1 PUSH1 0x1 ADD SWAP1 PUSH1 0x20 ADD DUP1 DUP4 GT PUSH2 0x484 JUMPI DUP3 SWAP1 SUB PUSH1 0x1F AND DUP3 ADD SWAP2 JUMPDEST POP POP POP POP POP SWAP1 POP SWAP2 SWAP1 POP JUMP JUMPDEST PUSH2 0x4CA CALLER DUP4 PUSH1 0x0 DUP5 PUSH1 0x40 MLOAD DUP1 PUSH1 0x20 ADD PUSH1 0x40 MSTORE DUP1 PUSH1 0x0 DUP2 MSTORE POP PUSH2 0x96C JUMP JUMPDEST POP POP JUMP JUMPDEST PUSH1 0x60 PUSH1 0x0 DUP3 MLOAD PUSH8 0xFFFFFFFFFFFFFFFF DUP2 GT ISZERO PUSH2 0x4EC JUMPI PUSH2 0x4EC PUSH2 0x145F JUMP JUMPDEST PUSH1 0x40 MLOAD SWAP1 DUP1 DUP3 MSTORE DUP1 PUSH1 0x20 MUL PUSH1 0x20 ADD DUP3 ADD PUSH1 0x40 MSTORE DUP1 ISZERO PUSH2 0x515 JUMPI DUP2 PUSH1 0x20 ADD PUSH1 0x20 DUP3 MUL DUP1 CALLDATASIZE DUP4 CALLDATACOPY ADD SWAP1 POP JUMPDEST POP SWAP1 POP PUSH1 0x0 JUMPDEST DUP4 MLOAD DUP2 LT ISZERO PUSH2 0x61A JUMPI PUSH2 0x532 PUSH1 0x3 DUP1 SLOAD PUSH1 0x1 ADD SWAP1 SSTORE JUMP JUMPDEST PUSH1 0x0 PUSH2 0x53D PUSH1 0x3 SLOAD SWAP1 JUMP JUMPDEST SWAP1 POP DUP5 DUP3 DUP2 MLOAD DUP2 LT PUSH2 0x551 JUMPI PUSH2 0x551 PUSH2 0x1990 JUMP JUMPDEST PUSH1 0x20 MUL PUSH1 0x20 ADD ADD MLOAD PUSH1 0x4 PUSH1 0x0 DUP4 DUP2 MSTORE PUSH1 0x20 ADD SWAP1 DUP2 MSTORE PUSH1 0x20 ADD PUSH1 0x0 KECCAK256 SWAP1 DUP2 PUSH2 0x578 SWAP2 SWAP1 PUSH2 0x19F1 JUMP JUMPDEST POP PUSH2 0x595 CALLER DUP3 PUSH1 0x1 PUSH1 0x40 MLOAD DUP1 PUSH1 0x20 ADD PUSH1 0x40 MSTORE DUP1 PUSH1 0x0 DUP2 MSTORE POP PUSH2 0xA16 JUMP JUMPDEST DUP1 CALLER PUSH1 0x1 PUSH1 0x1 PUSH1 0xA0 SHL SUB AND PUSH32 0x1A605A604BE68E06F6E1AE798A19CC74DD3FEA9199CE4B6119DA8CAE33CF4AA8 PUSH1 0x1 PUSH1 0x40 MLOAD PUSH2 0x5E1 SWAP2 DUP2 MSTORE PUSH1 0x40 PUSH1 0x20 DUP3 ADD DUP2 SWAP1 MSTORE PUSH1 0x0 SWAP1 DUP3 ADD MSTORE PUSH1 0x60 ADD SWAP1 JUMP JUMPDEST PUSH1 0x40 MLOAD DUP1 SWAP2 SUB SWAP1 LOG3 DUP1 DUP4 DUP4 DUP2 MLOAD DUP2 LT PUSH2 0x5FC JUMPI PUSH2 0x5FC PUSH2 0x1990 JUMP JUMPDEST PUSH1 0x20 SWAP1 DUP2 MUL SWAP2 SWAP1 SWAP2 ADD ADD MSTORE POP DUP1 PUSH2 0x612 DUP2 PUSH2 0x1AC7 JUMP JUMPDEST SWAP2 POP POP PUSH2 0x51B JUMP JUMPDEST POP SWAP3 SWAP2 POP POP JUMP JUMPDEST PUSH1 0x1 PUSH1 0x1 PUSH1 0xA0 SHL SUB DUP6 AND CALLER EQ DUP1 PUSH2 0x63D JUMPI POP PUSH2 0x63D DUP6 CALLER PUSH2 0x270 JUMP JUMPDEST PUSH2 0x6AF JUMPI PUSH1 0x40 MLOAD PUSH3 0x461BCD PUSH1 0xE5 SHL DUP2 MSTORE PUSH1 0x20 PUSH1 0x4 DUP3 ADD MSTORE PUSH1 0x2E PUSH1 0x24 DUP3 ADD MSTORE PUSH32 0x455243313135353A2063616C6C6572206973206E6F7420746F6B656E206F776E PUSH1 0x44 DUP3 ADD MSTORE PUSH32 0x6572206F7220617070726F766564000000000000000000000000000000000000 PUSH1 0x64 DUP3 ADD MSTORE PUSH1 0x84 ADD PUSH2 0x33E JUMP JUMPDEST PUSH2 0x6BC DUP6 DUP6 DUP6 DUP6 DUP6 PUSH2 0xB46 JUMP JUMPDEST POP POP POP POP POP JUMP JUMPDEST PUSH1 0x60 DUP2 MLOAD DUP4 MLOAD EQ PUSH2 0x73C JUMPI PUSH1 0x40 MLOAD PUSH3 0x461BCD PUSH1 0xE5 SHL DUP2 MSTORE PUSH1 0x20 PUSH1 0x4 DUP3 ADD MSTORE PUSH1 0x29 PUSH1 0x24 DUP3 ADD MSTORE PUSH32 0x455243313135353A206163636F756E747320616E6420696473206C656E677468 PUSH1 0x44 DUP3 ADD MSTORE PUSH32 0x206D69736D617463680000000000000000000000000000000000000000000000 PUSH1 0x64 DUP3 ADD MSTORE PUSH1 0x84 ADD PUSH2 0x33E JUMP JUMPDEST PUSH1 0x0 DUP4 MLOAD PUSH8 0xFFFFFFFFFFFFFFFF DUP2 GT ISZERO PUSH2 0x758 JUMPI PUSH2 0x758 PUSH2 0x145F JUMP JUMPDEST PUSH1 0x40 MLOAD SWAP1 DUP1 DUP3 MSTORE DUP1 PUSH1 0x20 MUL PUSH1 0x20 ADD DUP3 ADD PUSH1 0x40 MSTORE DUP1 ISZERO PUSH2 0x781 JUMPI DUP2 PUSH1 0x20 ADD PUSH1 0x20 DUP3 MUL DUP1 CALLDATASIZE DUP4 CALLDATACOPY ADD SWAP1 POP JUMPDEST POP SWAP1 POP PUSH1 0x0 JUMPDEST DUP5 MLOAD DUP2 LT ISZERO PUSH2 0x7F9 JUMPI PUSH2 0x7CC DUP6 DUP3 DUP2 MLOAD DUP2 LT PUSH2 0x7A5 JUMPI PUSH2 0x7A5 PUSH2 0x1990 JUMP JUMPDEST PUSH1 0x20 MUL PUSH1 0x20 ADD ADD MLOAD DUP6 DUP4 DUP2 MLOAD DUP2 LT PUSH2 0x7BF JUMPI PUSH2 0x7BF PUSH2 0x1990 JUMP JUMPDEST PUSH1 0x20 MUL PUSH1 0x20 ADD ADD MLOAD PUSH2 0x2C4 JUMP JUMPDEST DUP3 DUP3 DUP2 MLOAD DUP2 LT PUSH2 0x7DE JUMPI PUSH2 0x7DE PUSH2 0x1990 JUMP JUMPDEST PUSH1 0x20 SWAP1 DUP2 MUL SWAP2 SWAP1 SWAP2 ADD ADD MSTORE PUSH2 0x7F2 DUP2 PUSH2 0x1AC7 JUMP JUMPDEST SWAP1 POP PUSH2 0x787 JUMP JUMPDEST POP SWAP4 SWAP3 POP POP POP JUMP JUMPDEST PUSH1 0x0 PUSH2 0x80E CALLER PUSH1 0x0 PUSH2 0x2C4 JUMP JUMPDEST SWAP1 POP SWAP1 JUMP JUMPDEST PUSH1 0x60 PUSH1 0x5 DUP1 SLOAD PUSH2 0x822 SWAP1 PUSH2 0x1956 JUMP JUMPDEST DUP1 PUSH1 0x1F ADD PUSH1 0x20 DUP1 SWAP2 DIV MUL PUSH1 0x20 ADD PUSH1 0x40 MLOAD SWAP1 DUP2 ADD PUSH1 0x40 MSTORE DUP1 SWAP3 SWAP2 SWAP1 DUP2 DUP2 MSTORE PUSH1 0x20 ADD DUP3 DUP1 SLOAD PUSH2 0x84E SWAP1 PUSH2 0x1956 JUMP JUMPDEST DUP1 ISZERO PUSH2 0x89B JUMPI DUP1 PUSH1 0x1F LT PUSH2 0x870 JUMPI PUSH2 0x100 DUP1 DUP4 SLOAD DIV MUL DUP4 MSTORE SWAP2 PUSH1 0x20 ADD SWAP2 PUSH2 0x89B JUMP JUMPDEST DUP3 ADD SWAP2 SWAP1 PUSH1 0x0 MSTORE PUSH1 0x20 PUSH1 0x0 KECCAK256 SWAP1 JUMPDEST DUP2 SLOAD DUP2 MSTORE SWAP1 PUSH1 0x1 ADD SWAP1 PUSH1 0x20 ADD DUP1 DUP4 GT PUSH2 0x87E JUMPI DUP3 SWAP1 SUB PUSH1 0x1F AND DUP3 ADD SWAP2 JUMPDEST POP POP POP POP POP SWAP1 POP SWAP1 JUMP JUMPDEST PUSH2 0x4CA CALLER DUP4 DUP4 PUSH2 0xDCC JUMP JUMPDEST PUSH1 0x60 PUSH1 0x6 DUP1 SLOAD PUSH2 0x822 SWAP1 PUSH2 0x1956 JUMP JUMPDEST PUSH1 0x0 PUSH2 0x8CF PUSH1 0x3 DUP1 SLOAD PUSH1 0x1 ADD SWAP1 SSTORE JUMP JUMPDEST PUSH1 0x0 PUSH2 0x8DA PUSH1 0x3 SLOAD SWAP1 JUMP JUMPDEST PUSH1 0x0 DUP2 DUP2 MSTORE PUSH1 0x4 PUSH1 0x20 MSTORE PUSH1 0x40 SWAP1 KECCAK256 SWAP1 SWAP2 POP PUSH2 0x8F5 DUP5 DUP3 PUSH2 0x19F1 JUMP JUMPDEST POP PUSH2 0x912 CALLER DUP3 PUSH1 0x1 PUSH1 0x40 MLOAD DUP1 PUSH1 0x20 ADD PUSH1 0x40 MSTORE DUP1 PUSH1 0x0 DUP2 MSTORE POP PUSH2 0xA16 JUMP JUMPDEST DUP1 CALLER PUSH1 0x1 PUSH1 0x1 PUSH1 0xA0 SHL SUB AND PUSH32 0x1A605A604BE68E06F6E1AE798A19CC74DD3FEA9199CE4B6119DA8CAE33CF4AA8 PUSH1 0x1 PUSH1 0x40 MLOAD PUSH2 0x95E SWAP2 DUP2 MSTORE PUSH1 0x40 PUSH1 0x20 DUP3 ADD DUP2 SWAP1 MSTORE PUSH1 0x0 SWAP1 DUP3 ADD MSTORE PUSH1 0x60 ADD SWAP1 JUMP JUMPDEST PUSH1 0x40 MLOAD DUP1 SWAP2 SUB SWAP1 LOG3 SWAP3 SWAP2 POP POP JUMP JUMPDEST PUSH1 0x1 PUSH1 0x1 PUSH1 0xA0 SHL SUB DUP6 AND CALLER EQ DUP1 PUSH2 0x988 JUMPI POP PUSH2 0x988 DUP6 CALLER PUSH2 0x270 JUMP JUMPDEST PUSH2 0x9FA JUMPI PUSH1 0x40 MLOAD PUSH3 0x461BCD PUSH1 0xE5 SHL DUP2 MSTORE PUSH1 0x20 PUSH1 0x4 DUP3 ADD MSTORE PUSH1 0x2E PUSH1 0x24 DUP3 ADD MSTORE PUSH32 0x455243313135353A2063616C6C6572206973206E6F7420746F6B656E206F776E PUSH1 0x44 DUP3 ADD MSTORE PUSH32 0x6572206F7220617070726F766564000000000000000000000000000000000000 PUSH1 0x64 DUP3 ADD MSTORE PUSH1 0x84 ADD PUSH2 0x33E JUMP JUMPDEST PUSH2 0x6BC DUP6 DUP6 DUP6 DUP6 DUP6 PUSH2 0xEC0 JUMP JUMPDEST PUSH1 0x1 PUSH1 0x1 PUSH1 0xA0 SHL SUB AND EXTCODESIZE ISZERO ISZERO SWAP1 JUMP JUMPDEST PUSH1 0x1 PUSH1 0x1 PUSH1 0xA0 SHL SUB DUP5 AND PUSH2 0xA92 JUMPI PUSH1 0x40 MLOAD PUSH3 0x461BCD PUSH1 0xE5 SHL DUP2 MSTORE PUSH1 0x20 PUSH1 0x4 DUP3 ADD MSTORE PUSH1 0x21 PUSH1 0x24 DUP3 ADD MSTORE PUSH32 0x455243313135353A206D696E7420746F20746865207A65726F20616464726573 PUSH1 0x44 DUP3 ADD MSTORE PUSH32 0x7300000000000000000000000000000000000000000000000000000000000000 PUSH1 0x64 DUP3 ADD MSTORE PUSH1 0x84 ADD PUSH2 0x33E JUMP JUMPDEST CALLER PUSH1 0x0 PUSH2 0xA9E DUP6 PUSH2 0x107E JUMP JUMPDEST SWAP1 POP PUSH1 0x0 PUSH2 0xAAB DUP6 PUSH2 0x107E JUMP JUMPDEST SWAP1 POP PUSH1 0x0 DUP7 DUP2 MSTORE PUSH1 0x20 DUP2 DUP2 MSTORE PUSH1 0x40 DUP1 DUP4 KECCAK256 PUSH1 0x1 PUSH1 0x1 PUSH1 0xA0 SHL SUB DUP12 AND DUP5 MSTORE SWAP1 SWAP2 MSTORE DUP2 KECCAK256 DUP1 SLOAD DUP8 SWAP3 SWAP1 PUSH2 0xADD SWAP1 DUP5 SWAP1 PUSH2 0x1AE0 JUMP JUMPDEST SWAP1 SWAP2 SSTORE POP POP PUSH1 0x40 DUP1 MLOAD DUP8 DUP2 MSTORE PUSH1 0x20 DUP2 ADD DUP8 SWAP1 MSTORE PUSH1 0x1 PUSH1 0x1 PUSH1 0xA0 SHL SUB DUP1 DUP11 AND SWAP3 PUSH1 0x0 SWAP3 SWAP2 DUP8 AND SWAP2 PUSH32 0xC3D58168C5AE7397731D063D5BBF3D657854427343F4C083240F7AACAA2D0F62 SWAP2 ADD PUSH1 0x40 MLOAD DUP1 SWAP2 SUB SWAP1 LOG4 PUSH2 0xB3D DUP4 PUSH1 0x0 DUP10 DUP10 DUP10 DUP10 PUSH2 0x10C9 JUMP JUMPDEST POP POP POP POP POP POP POP JUMP JUMPDEST DUP2 MLOAD DUP4 MLOAD EQ PUSH2 0xBBD JUMPI PUSH1 0x40 MLOAD PUSH3 0x461BCD PUSH1 0xE5 SHL DUP2 MSTORE PUSH1 0x20 PUSH1 0x4 DUP3 ADD MSTORE PUSH1 0x28 PUSH1 0x24 DUP3 ADD MSTORE PUSH32 0x455243313135353A2069647320616E6420616D6F756E7473206C656E67746820 PUSH1 0x44 DUP3 ADD MSTORE PUSH32 0x6D69736D61746368000000000000000000000000000000000000000000000000 PUSH1 0x64 DUP3 ADD MSTORE PUSH1 0x84 ADD PUSH2 0x33E JUMP JUMPDEST PUSH1 0x1 PUSH1 0x1 PUSH1 0xA0 SHL SUB DUP5 AND PUSH2 0xC21 JUMPI PUSH1 0x40 MLOAD PUSH3 0x461BCD PUSH1 0xE5 SHL DUP2 MSTORE PUSH1 0x20 PUSH1 0x4 DUP3 ADD MSTORE PUSH1 0x25 PUSH1 0x24 DUP3 ADD MSTORE PUSH32 0x455243313135353A207472616E7366657220746F20746865207A65726F206164 PUSH1 0x44 DUP3 ADD MSTORE PUSH5 0x6472657373 PUSH1 0xD8 SHL PUSH1 0x64 DUP3 ADD MSTORE PUSH1 0x84 ADD PUSH2 0x33E JUMP JUMPDEST CALLER PUSH1 0x0 JUMPDEST DUP5 MLOAD DUP2 LT ISZERO PUSH2 0xD5E JUMPI PUSH1 0x0 DUP6 DUP3 DUP2 MLOAD DUP2 LT PUSH2 0xC42 JUMPI PUSH2 0xC42 PUSH2 0x1990 JUMP JUMPDEST PUSH1 0x20 MUL PUSH1 0x20 ADD ADD MLOAD SWAP1 POP PUSH1 0x0 DUP6 DUP4 DUP2 MLOAD DUP2 LT PUSH2 0xC60 JUMPI PUSH2 0xC60 PUSH2 0x1990 JUMP JUMPDEST PUSH1 0x20 SWAP1 DUP2 MUL SWAP2 SWAP1 SWAP2 ADD DUP2 ADD MLOAD PUSH1 0x0 DUP5 DUP2 MSTORE DUP1 DUP4 MSTORE PUSH1 0x40 DUP1 DUP3 KECCAK256 PUSH1 0x1 PUSH1 0x1 PUSH1 0xA0 SHL SUB DUP15 AND DUP4 MSTORE SWAP1 SWAP4 MSTORE SWAP2 SWAP1 SWAP2 KECCAK256 SLOAD SWAP1 SWAP2 POP DUP2 DUP2 LT ISZERO PUSH2 0xD06 JUMPI PUSH1 0x40 MLOAD PUSH3 0x461BCD PUSH1 0xE5 SHL DUP2 MSTORE PUSH1 0x20 PUSH1 0x4 DUP3 ADD MSTORE PUSH1 0x2A PUSH1 0x24 DUP3 ADD MSTORE PUSH32 0x455243313135353A20696E73756666696369656E742062616C616E636520666F PUSH1 0x44 DUP3 ADD MSTORE PUSH32 0x72207472616E7366657200000000000000000000000000000000000000000000 PUSH1 0x64 DUP3 ADD MSTORE PUSH1 0x84 ADD PUSH2 0x33E JUMP JUMPDEST PUSH1 0x0 DUP4 DUP2 MSTORE PUSH1 0x20 DUP2 DUP2 MSTORE PUSH1 0x40 DUP1 DUP4 KECCAK256 PUSH1 0x1 PUSH1 0x1 PUSH1 0xA0 SHL SUB DUP15 DUP2 AND DUP6 MSTORE SWAP3 MSTORE DUP1 DUP4 KECCAK256 DUP6 DUP6 SUB SWAP1 SSTORE SWAP1 DUP12 AND DUP3 MSTORE DUP2 KECCAK256 DUP1 SLOAD DUP5 SWAP3 SWAP1 PUSH2 0xD43 SWAP1 DUP5 SWAP1 PUSH2 0x1AE0 JUMP JUMPDEST SWAP3 POP POP DUP2 SWAP1 SSTORE POP POP POP POP DUP1 PUSH2 0xD57 SWAP1 PUSH2 0x1AC7 JUMP JUMPDEST SWAP1 POP PUSH2 0xC25 JUMP JUMPDEST POP DUP5 PUSH1 0x1 PUSH1 0x1 PUSH1 0xA0 SHL SUB AND DUP7 PUSH1 0x1 PUSH1 0x1 PUSH1 0xA0 SHL SUB AND DUP3 PUSH1 0x1 PUSH1 0x1 PUSH1 0xA0 SHL SUB AND PUSH32 0x4A39DC06D4C0DBC64B70AF90FD698A233A518AA5D07E595D983B8C0526C8F7FB DUP8 DUP8 PUSH1 0x40 MLOAD PUSH2 0xDAE SWAP3 SWAP2 SWAP1 PUSH2 0x1AF3 JUMP JUMPDEST PUSH1 0x40 MLOAD DUP1 SWAP2 SUB SWAP1 LOG4 PUSH2 0xDC4 DUP2 DUP8 DUP8 DUP8 DUP8 DUP8 PUSH2 0x126E JUMP JUMPDEST POP POP POP POP POP POP JUMP JUMPDEST DUP2 PUSH1 0x1 PUSH1 0x1 PUSH1 0xA0 SHL SUB AND DUP4 PUSH1 0x1 PUSH1 0x1 PUSH1 0xA0 SHL SUB AND SUB PUSH2 0xE53 JUMPI PUSH1 0x40 MLOAD PUSH3 0x461BCD PUSH1 0xE5 SHL DUP2 MSTORE PUSH1 0x20 PUSH1 0x4 DUP3 ADD MSTORE PUSH1 0x29 PUSH1 0x24 DUP3 ADD MSTORE PUSH32 0x455243313135353A2073657474696E6720617070726F76616C20737461747573 PUSH1 0x44 DUP3 ADD MSTORE PUSH32 0x20666F722073656C660000000000000000000000000000000000000000000000 PUSH1 0x64 DUP3 ADD MSTORE PUSH1 0x84 ADD PUSH2 0x33E JUMP JUMPDEST PUSH1 0x1 PUSH1 0x1 PUSH1 0xA0 SHL SUB DUP4 DUP2 AND PUSH1 0x0 DUP2 DUP2 MSTORE PUSH1 0x1 PUSH1 0x20 SWAP1 DUP2 MSTORE PUSH1 0x40 DUP1 DUP4 KECCAK256 SWAP5 DUP8 AND DUP1 DUP5 MSTORE SWAP5 DUP3 MSTORE SWAP2 DUP3 SWAP1 KECCAK256 DUP1 SLOAD PUSH1 0xFF NOT AND DUP7 ISZERO ISZERO SWAP1 DUP2 OR SWAP1 SWAP2 SSTORE SWAP2 MLOAD SWAP2 DUP3 MSTORE PUSH32 0x17307EAB39AB6107E8899845AD3D59BD9653F200F220920489CA2B5937696C31 SWAP2 ADD PUSH1 0x40 MLOAD DUP1 SWAP2 SUB SWAP1 LOG3 POP POP POP JUMP JUMPDEST PUSH1 0x1 PUSH1 0x1 PUSH1 0xA0 SHL SUB DUP5 AND PUSH2 0xF24 JUMPI PUSH1 0x40 MLOAD PUSH3 0x461BCD PUSH1 0xE5 SHL DUP2 MSTORE PUSH1 0x20 PUSH1 0x4 DUP3 ADD MSTORE PUSH1 0x25 PUSH1 0x24 DUP3 ADD MSTORE PUSH32 0x455243313135353A207472616E7366657220746F20746865207A65726F206164 PUSH1 0x44 DUP3 ADD MSTORE PUSH5 0x6472657373 PUSH1 0xD8 SHL PUSH1 0x64 DUP3 ADD MSTORE PUSH1 0x84 ADD PUSH2 0x33E JUMP JUMPDEST CALLER PUSH1 0x0 PUSH2 0xF30 DUP6 PUSH2 0x107E JUMP JUMPDEST SWAP1 POP PUSH1 0x0 PUSH2 0xF3D DUP6 PUSH2 0x107E JUMP JUMPDEST SWAP1 POP PUSH1 0x0 DUP7 DUP2 MSTORE PUSH1 0x20 DUP2 DUP2 MSTORE PUSH1 0x40 DUP1 DUP4 KECCAK256 PUSH1 0x1 PUSH1 0x1 PUSH1 0xA0 SHL SUB DUP13 AND DUP5 MSTORE SWAP1 SWAP2 MSTORE SWAP1 KECCAK256 SLOAD DUP6 DUP2 LT ISZERO PUSH2 0xFD6 JUMPI PUSH1 0x40 MLOAD PUSH3 0x461BCD PUSH1 0xE5 SHL DUP2 MSTORE PUSH1 0x20 PUSH1 0x4 DUP3 ADD MSTORE PUSH1 0x2A PUSH1 0x24 DUP3 ADD MSTORE PUSH32 0x455243313135353A20696E73756666696369656E742062616C616E636520666F PUSH1 0x44 DUP3 ADD MSTORE PUSH32 0x72207472616E7366657200000000000000000000000000000000000000000000 PUSH1 0x64 DUP3 ADD MSTORE PUSH1 0x84 ADD PUSH2 0x33E JUMP JUMPDEST PUSH1 0x0 DUP8 DUP2 MSTORE PUSH1 0x20 DUP2 DUP2 MSTORE PUSH1 0x40 DUP1 DUP4 KECCAK256 PUSH1 0x1 PUSH1 0x1 PUSH1 0xA0 SHL SUB DUP14 DUP2 AND DUP6 MSTORE SWAP3 MSTORE DUP1 DUP4 KECCAK256 DUP10 DUP6 SUB SWAP1 SSTORE SWAP1 DUP11 AND DUP3 MSTORE DUP2 KECCAK256 DUP1 SLOAD DUP9 SWAP3 SWAP1 PUSH2 0x1013 SWAP1 DUP5 SWAP1 PUSH2 0x1AE0 JUMP JUMPDEST SWAP1 SWAP2 SSTORE POP POP PUSH1 0x40 DUP1 MLOAD DUP9 DUP2 MSTORE PUSH1 0x20 DUP2 ADD DUP9 SWAP1 MSTORE PUSH1 0x1 PUSH1 0x1 PUSH1 0xA0 SHL SUB DUP1 DUP12 AND SWAP3 DUP13 DUP3 AND SWAP3 SWAP2 DUP9 AND SWAP2 PUSH32 0xC3D58168C5AE7397731D063D5BBF3D657854427343F4C083240F7AACAA2D0F62 SWAP2 ADD PUSH1 0x40 MLOAD DUP1 SWAP2 SUB SWAP1 LOG4 PUSH2 0x1073 DUP5 DUP11 DUP11 DUP11 DUP11 DUP11 PUSH2 0x10C9 JUMP JUMPDEST POP POP POP POP POP POP POP POP POP JUMP JUMPDEST PUSH1 0x40 DUP1 MLOAD PUSH1 0x1 DUP1 DUP3 MSTORE DUP2 DUP4 ADD SWAP1 SWAP3 MSTORE PUSH1 0x60 SWAP2 PUSH1 0x0 SWAP2 SWAP1 PUSH1 0x20 DUP1 DUP4 ADD SWAP1 DUP1 CALLDATASIZE DUP4 CALLDATACOPY ADD SWAP1 POP POP SWAP1 POP DUP3 DUP2 PUSH1 0x0 DUP2 MLOAD DUP2 LT PUSH2 0x10B8 JUMPI PUSH2 0x10B8 PUSH2 0x1990 JUMP JUMPDEST PUSH1 0x20 SWAP1 DUP2 MUL SWAP2 SWAP1 SWAP2 ADD ADD MSTORE SWAP3 SWAP2 POP POP JUMP JUMPDEST PUSH1 0x1 PUSH1 0x1 PUSH1 0xA0 SHL SUB DUP5 AND EXTCODESIZE ISZERO PUSH2 0xDC4 JUMPI PUSH1 0x40 MLOAD PUSH4 0xF23A6E61 PUSH1 0xE0 SHL DUP2 MSTORE PUSH1 0x1 PUSH1 0x1 PUSH1 0xA0 SHL SUB DUP6 AND SWAP1 PUSH4 0xF23A6E61 SWAP1 PUSH2 0x110D SWAP1 DUP10 SWAP1 DUP10 SWAP1 DUP9 SWAP1 DUP9 SWAP1 DUP9 SWAP1 PUSH1 0x4 ADD PUSH2 0x1B21 JUMP JUMPDEST PUSH1 0x20 PUSH1 0x40 MLOAD DUP1 DUP4 SUB DUP2 PUSH1 0x0 DUP8 GAS CALL SWAP3 POP POP POP DUP1 ISZERO PUSH2 0x1148 JUMPI POP PUSH1 0x40 DUP1 MLOAD PUSH1 0x1F RETURNDATASIZE SWAP1 DUP2 ADD PUSH1 0x1F NOT AND DUP3 ADD SWAP1 SWAP3 MSTORE PUSH2 0x1145 SWAP2 DUP2 ADD SWAP1 PUSH2 0x1B64 JUMP JUMPDEST PUSH1 0x1 JUMPDEST PUSH2 0x11FD JUMPI PUSH2 0x1154 PUSH2 0x1B81 JUMP JUMPDEST DUP1 PUSH4 0x8C379A0 SUB PUSH2 0x118D JUMPI POP PUSH2 0x1168 PUSH2 0x1B9D JUMP JUMPDEST DUP1 PUSH2 0x1173 JUMPI POP PUSH2 0x118F JUMP JUMPDEST DUP1 PUSH1 0x40 MLOAD PUSH3 0x461BCD PUSH1 0xE5 SHL DUP2 MSTORE PUSH1 0x4 ADD PUSH2 0x33E SWAP2 SWAP1 PUSH2 0x144C JUMP JUMPDEST POP JUMPDEST PUSH1 0x40 MLOAD PUSH3 0x461BCD PUSH1 0xE5 SHL DUP2 MSTORE PUSH1 0x20 PUSH1 0x4 DUP3 ADD MSTORE PUSH1 0x34 PUSH1 0x24 DUP3 ADD MSTORE PUSH32 0x455243313135353A207472616E7366657220746F206E6F6E2D45524331313535 PUSH1 0x44 DUP3 ADD MSTORE PUSH32 0x526563656976657220696D706C656D656E746572000000000000000000000000 PUSH1 0x64 DUP3 ADD MSTORE PUSH1 0x84 ADD PUSH2 0x33E JUMP JUMPDEST PUSH1 0x1 PUSH1 0x1 PUSH1 0xE0 SHL SUB NOT DUP2 AND PUSH4 0xF23A6E61 PUSH1 0xE0 SHL EQ PUSH2 0xB3D JUMPI PUSH1 0x40 MLOAD PUSH3 0x461BCD PUSH1 0xE5 SHL DUP2 MSTORE PUSH1 0x20 PUSH1 0x4 DUP3 ADD MSTORE PUSH1 0x28 PUSH1 0x24 DUP3 ADD MSTORE PUSH32 0x455243313135353A204552433131353552656365697665722072656A65637465 PUSH1 0x44 DUP3 ADD MSTORE PUSH8 0x6420746F6B656E73 PUSH1 0xC0 SHL PUSH1 0x64 DUP3 ADD MSTORE PUSH1 0x84 ADD PUSH2 0x33E JUMP JUMPDEST PUSH1 0x1 PUSH1 0x1 PUSH1 0xA0 SHL SUB DUP5 AND EXTCODESIZE ISZERO PUSH2 0xDC4 JUMPI PUSH1 0x40 MLOAD PUSH4 0xBC197C81 PUSH1 0xE0 SHL DUP2 MSTORE PUSH1 0x1 PUSH1 0x1 PUSH1 0xA0 SHL SUB DUP6 AND SWAP1 PUSH4 0xBC197C81 SWAP1 PUSH2 0x12B2 SWAP1 DUP10 SWAP1 DUP10 SWAP1 DUP9 SWAP1 DUP9 SWAP1 DUP9 SWAP1 PUSH1 0x4 ADD PUSH2 0x1C27 JUMP JUMPDEST PUSH1 0x20 PUSH1 0x40 MLOAD DUP1 DUP4 SUB DUP2 PUSH1 0x0 DUP8 GAS CALL SWAP3 POP POP POP DUP1 ISZERO PUSH2 0x12ED JUMPI POP PUSH1 0x40 DUP1 MLOAD PUSH1 0x1F RETURNDATASIZE SWAP1 DUP2 ADD PUSH1 0x1F NOT AND DUP3 ADD SWAP1 SWAP3 MSTORE PUSH2 0x12EA SWAP2 DUP2 ADD SWAP1 PUSH2 0x1B64 JUMP JUMPDEST PUSH1 0x1 JUMPDEST PUSH2 0x12F9 JUMPI PUSH2 0x1154 PUSH2 0x1B81 JUMP JUMPDEST PUSH1 0x1 PUSH1 0x1 PUSH1 0xE0 SHL SUB NOT DUP2 AND PUSH4 0xBC197C81 PUSH1 0xE0 SHL EQ PUSH2 0xB3D JUMPI PUSH1 0x40 MLOAD PUSH3 0x461BCD PUSH1 0xE5 SHL DUP2 MSTORE PUSH1 0x20 PUSH1 0x4 DUP3 ADD MSTORE PUSH1 0x28 PUSH1 0x24 DUP3 ADD MSTORE PUSH32 0x455243313135353A204552433131353552656365697665722072656A65637465 PUSH1 0x44 DUP3 ADD MSTORE PUSH8 0x6420746F6B656E73 PUSH1 0xC0 SHL PUSH1 0x64 DUP3 ADD MSTORE PUSH1 0x84 ADD PUSH2 0x33E JUMP JUMPDEST DUP1 CALLDATALOAD PUSH1 0x1 PUSH1 0x1 PUSH1 0xA0 SHL SUB DUP2 AND DUP2 EQ PUSH2 0x1381 JUMPI PUSH1 0x0 DUP1 REVERT JUMPDEST SWAP2 SWAP1 POP JUMP JUMPDEST PUSH1 0x0 DUP1 PUSH1 0x40 DUP4 DUP6 SUB SLT ISZERO PUSH2 0x1399 JUMPI PUSH1 0x0 DUP1 REVERT JUMPDEST PUSH2 0x13A2 DUP4 PUSH2 0x136A JUMP JUMPDEST SWAP5 PUSH1 0x20 SWAP4 SWAP1 SWAP4 ADD CALLDATALOAD SWAP4 POP POP POP JUMP JUMPDEST PUSH1 0x1 PUSH1 0x1 PUSH1 0xE0 SHL SUB NOT DUP2 AND DUP2 EQ PUSH2 0x13C6 JUMPI PUSH1 0x0 DUP1 REVERT JUMPDEST POP JUMP JUMPDEST PUSH1 0x0 PUSH1 0x20 DUP3 DUP5 SUB SLT ISZERO PUSH2 0x13DB JUMPI PUSH1 0x0 DUP1 REVERT JUMPDEST DUP2 CALLDATALOAD PUSH2 0x13E6 DUP2 PUSH2 0x13B0 JUMP JUMPDEST SWAP4 SWAP3 POP POP POP JUMP JUMPDEST PUSH1 0x0 PUSH1 0x20 DUP3 DUP5 SUB SLT ISZERO PUSH2 0x13FF JUMPI PUSH1 0x0 DUP1 REVERT JUMPDEST POP CALLDATALOAD SWAP2 SWAP1 POP JUMP JUMPDEST PUSH1 0x0 DUP2 MLOAD DUP1 DUP5 MSTORE PUSH1 0x0 JUMPDEST DUP2 DUP2 LT ISZERO PUSH2 0x142C JUMPI PUSH1 0x20 DUP2 DUP6 ADD DUP2 ADD MLOAD DUP7 DUP4 ADD DUP3 ADD MSTORE ADD PUSH2 0x1410 JUMP JUMPDEST POP PUSH1 0x0 PUSH1 0x20 DUP3 DUP7 ADD ADD MSTORE PUSH1 0x20 PUSH1 0x1F NOT PUSH1 0x1F DUP4 ADD AND DUP6 ADD ADD SWAP2 POP POP SWAP3 SWAP2 POP POP JUMP JUMPDEST PUSH1 0x20 DUP2 MSTORE PUSH1 0x0 PUSH2 0x13E6 PUSH1 0x20 DUP4 ADD DUP5 PUSH2 0x1406 JUMP JUMPDEST PUSH4 0x4E487B71 PUSH1 0xE0 SHL PUSH1 0x0 MSTORE PUSH1 0x41 PUSH1 0x4 MSTORE PUSH1 0x24 PUSH1 0x0 REVERT JUMPDEST PUSH1 0x1F DUP3 ADD PUSH1 0x1F NOT AND DUP2 ADD PUSH8 0xFFFFFFFFFFFFFFFF DUP2 GT DUP3 DUP3 LT OR ISZERO PUSH2 0x149B JUMPI PUSH2 0x149B PUSH2 0x145F JUMP JUMPDEST PUSH1 0x40 MSTORE POP POP JUMP JUMPDEST PUSH1 0x0 PUSH8 0xFFFFFFFFFFFFFFFF DUP3 GT ISZERO PUSH2 0x14BC JUMPI PUSH2 0x14BC PUSH2 0x145F JUMP JUMPDEST POP PUSH1 0x5 SHL PUSH1 0x20 ADD SWAP1 JUMP JUMPDEST PUSH1 0x0 DUP3 PUSH1 0x1F DUP4 ADD SLT PUSH2 0x14D7 JUMPI PUSH1 0x0 DUP1 REVERT JUMPDEST DUP2 CALLDATALOAD PUSH8 0xFFFFFFFFFFFFFFFF DUP2 GT ISZERO PUSH2 0x14F1 JUMPI PUSH2 0x14F1 PUSH2 0x145F JUMP JUMPDEST PUSH1 0x40 MLOAD PUSH2 0x1508 PUSH1 0x1F DUP4 ADD PUSH1 0x1F NOT AND PUSH1 0x20 ADD DUP3 PUSH2 0x1475 JUMP JUMPDEST DUP2 DUP2 MSTORE DUP5 PUSH1 0x20 DUP4 DUP7 ADD ADD GT ISZERO PUSH2 0x151D JUMPI PUSH1 0x0 DUP1 REVERT JUMPDEST DUP2 PUSH1 0x20 DUP6 ADD PUSH1 0x20 DUP4 ADD CALLDATACOPY PUSH1 0x0 SWAP2 DUP2 ADD PUSH1 0x20 ADD SWAP2 SWAP1 SWAP2 MSTORE SWAP4 SWAP3 POP POP POP JUMP JUMPDEST PUSH1 0x0 PUSH1 0x20 DUP1 DUP4 DUP6 SUB SLT ISZERO PUSH2 0x154D JUMPI PUSH1 0x0 DUP1 REVERT JUMPDEST DUP3 CALLDATALOAD PUSH8 0xFFFFFFFFFFFFFFFF DUP1 DUP3 GT ISZERO PUSH2 0x1565 JUMPI PUSH1 0x0 DUP1 REVERT JUMPDEST DUP2 DUP6 ADD SWAP2 POP DUP6 PUSH1 0x1F DUP4 ADD SLT PUSH2 0x1579 JUMPI PUSH1 0x0 DUP1 REVERT JUMPDEST DUP2 CALLDATALOAD PUSH2 0x1584 DUP2 PUSH2 0x14A2 JUMP JUMPDEST PUSH1 0x40 MLOAD PUSH2 0x1591 DUP3 DUP3 PUSH2 0x1475 JUMP JUMPDEST DUP3 DUP2 MSTORE PUSH1 0x5 SWAP3 SWAP1 SWAP3 SHL DUP5 ADD DUP6 ADD SWAP2 DUP6 DUP2 ADD SWAP2 POP DUP9 DUP4 GT ISZERO PUSH2 0x15B1 JUMPI PUSH1 0x0 DUP1 REVERT JUMPDEST DUP6 DUP6 ADD JUMPDEST DUP4 DUP2 LT ISZERO PUSH2 0x15E9 JUMPI DUP1 CALLDATALOAD DUP6 DUP2 GT ISZERO PUSH2 0x15CD JUMPI PUSH1 0x0 DUP1 DUP2 REVERT JUMPDEST PUSH2 0x15DB DUP12 DUP10 DUP4 DUP11 ADD ADD PUSH2 0x14C6 JUMP JUMPDEST DUP5 MSTORE POP SWAP2 DUP7 ADD SWAP2 DUP7 ADD PUSH2 0x15B5 JUMP JUMPDEST POP SWAP9 SWAP8 POP POP POP POP POP POP POP POP JUMP JUMPDEST PUSH1 0x0 DUP2 MLOAD DUP1 DUP5 MSTORE PUSH1 0x20 DUP1 DUP6 ADD SWAP5 POP DUP1 DUP5 ADD PUSH1 0x0 JUMPDEST DUP4 DUP2 LT ISZERO PUSH2 0x1626 JUMPI DUP2 MLOAD DUP8 MSTORE SWAP6 DUP3 ADD SWAP6 SWAP1 DUP3 ADD SWAP1 PUSH1 0x1 ADD PUSH2 0x160A JUMP JUMPDEST POP SWAP5 SWAP6 SWAP5 POP POP POP POP POP JUMP JUMPDEST PUSH1 0x20 DUP2 MSTORE PUSH1 0x0 PUSH2 0x13E6 PUSH1 0x20 DUP4 ADD DUP5 PUSH2 0x15F6 JUMP JUMPDEST PUSH1 0x0 DUP3 PUSH1 0x1F DUP4 ADD SLT PUSH2 0x1655 JUMPI PUSH1 0x0 DUP1 REVERT JUMPDEST DUP2 CALLDATALOAD PUSH1 0x20 PUSH2 0x1662 DUP3 PUSH2 0x14A2 JUMP JUMPDEST PUSH1 0x40 MLOAD PUSH2 0x166F DUP3 DUP3 PUSH2 0x1475 JUMP JUMPDEST DUP4 DUP2 MSTORE PUSH1 0x5 SWAP4 SWAP1 SWAP4 SHL DUP6 ADD DUP3 ADD SWAP3 DUP3 DUP2 ADD SWAP2 POP DUP7 DUP5 GT ISZERO PUSH2 0x168F JUMPI PUSH1 0x0 DUP1 REVERT JUMPDEST DUP3 DUP7 ADD JUMPDEST DUP5 DUP2 LT ISZERO PUSH2 0x16AA JUMPI DUP1 CALLDATALOAD DUP4 MSTORE SWAP2 DUP4 ADD SWAP2 DUP4 ADD PUSH2 0x1693 JUMP JUMPDEST POP SWAP7 SWAP6 POP POP POP POP POP POP JUMP JUMPDEST PUSH1 0x0 DUP1 PUSH1 0x0 DUP1 PUSH1 0x0 PUSH1 0xA0 DUP7 DUP9 SUB SLT ISZERO PUSH2 0x16CD JUMPI PUSH1 0x0 DUP1 REVERT JUMPDEST PUSH2 0x16D6 DUP7 PUSH2 0x136A JUMP JUMPDEST SWAP5 POP PUSH2 0x16E4 PUSH1 0x20 DUP8 ADD PUSH2 0x136A JUMP JUMPDEST SWAP4 POP PUSH1 0x40 DUP7 ADD CALLDATALOAD PUSH8 0xFFFFFFFFFFFFFFFF DUP1 DUP3 GT ISZERO PUSH2 0x1701 JUMPI PUSH1 0x0 DUP1 REVERT JUMPDEST PUSH2 0x170D DUP10 DUP4 DUP11 ADD PUSH2 0x1644 JUMP JUMPDEST SWAP5 POP PUSH1 0x60 DUP9 ADD CALLDATALOAD SWAP2 POP DUP1 DUP3 GT ISZERO PUSH2 0x1723 JUMPI PUSH1 0x0 DUP1 REVERT JUMPDEST PUSH2 0x172F DUP10 DUP4 DUP11 ADD PUSH2 0x1644 JUMP JUMPDEST SWAP4 POP PUSH1 0x80 DUP9 ADD CALLDATALOAD SWAP2 POP DUP1 DUP3 GT ISZERO PUSH2 0x1745 JUMPI PUSH1 0x0 DUP1 REVERT JUMPDEST POP PUSH2 0x1752 DUP9 DUP3 DUP10 ADD PUSH2 0x14C6 JUMP JUMPDEST SWAP2 POP POP SWAP3 SWAP6 POP SWAP3 SWAP6 SWAP1 SWAP4 POP JUMP JUMPDEST PUSH1 0x0 PUSH1 0x20 DUP3 DUP5 SUB SLT ISZERO PUSH2 0x1771 JUMPI PUSH1 0x0 DUP1 REVERT JUMPDEST PUSH2 0x13E6 DUP3 PUSH2 0x136A JUMP JUMPDEST PUSH1 0x0 DUP1 PUSH1 0x40 DUP4 DUP6 SUB SLT ISZERO PUSH2 0x178D JUMPI PUSH1 0x0 DUP1 REVERT JUMPDEST DUP3 CALLDATALOAD PUSH8 0xFFFFFFFFFFFFFFFF DUP1 DUP3 GT ISZERO PUSH2 0x17A5 JUMPI PUSH1 0x0 DUP1 REVERT JUMPDEST DUP2 DUP6 ADD SWAP2 POP DUP6 PUSH1 0x1F DUP4 ADD SLT PUSH2 0x17B9 JUMPI PUSH1 0x0 DUP1 REVERT JUMPDEST DUP2 CALLDATALOAD PUSH1 0x20 PUSH2 0x17C6 DUP3 PUSH2 0x14A2 JUMP JUMPDEST PUSH1 0x40 MLOAD PUSH2 0x17D3 DUP3 DUP3 PUSH2 0x1475 JUMP JUMPDEST DUP4 DUP2 MSTORE PUSH1 0x5 SWAP4 SWAP1 SWAP4 SHL DUP6 ADD DUP3 ADD SWAP3 DUP3 DUP2 ADD SWAP2 POP DUP10 DUP5 GT ISZERO PUSH2 0x17F3 JUMPI PUSH1 0x0 DUP1 REVERT JUMPDEST SWAP5 DUP3 ADD SWAP5 JUMPDEST DUP4 DUP7 LT ISZERO PUSH2 0x1818 JUMPI PUSH2 0x1809 DUP7 PUSH2 0x136A JUMP JUMPDEST DUP3 MSTORE SWAP5 DUP3 ADD SWAP5 SWAP1 DUP3 ADD SWAP1 PUSH2 0x17F8 JUMP JUMPDEST SWAP7 POP POP DUP7 ADD CALLDATALOAD SWAP3 POP POP DUP1 DUP3 GT ISZERO PUSH2 0x182E JUMPI PUSH1 0x0 DUP1 REVERT JUMPDEST POP PUSH2 0x183B DUP6 DUP3 DUP7 ADD PUSH2 0x1644 JUMP JUMPDEST SWAP2 POP POP SWAP3 POP SWAP3 SWAP1 POP JUMP JUMPDEST PUSH1 0x0 DUP1 PUSH1 0x40 DUP4 DUP6 SUB SLT ISZERO PUSH2 0x1858 JUMPI PUSH1 0x0 DUP1 REVERT JUMPDEST PUSH2 0x1861 DUP4 PUSH2 0x136A JUMP JUMPDEST SWAP2 POP PUSH1 0x20 DUP4 ADD CALLDATALOAD DUP1 ISZERO ISZERO DUP2 EQ PUSH2 0x1876 JUMPI PUSH1 0x0 DUP1 REVERT JUMPDEST DUP1 SWAP2 POP POP SWAP3 POP SWAP3 SWAP1 POP JUMP JUMPDEST PUSH1 0x0 DUP1 PUSH1 0x40 DUP4 DUP6 SUB SLT ISZERO PUSH2 0x1894 JUMPI PUSH1 0x0 DUP1 REVERT JUMPDEST PUSH2 0x189D DUP4 PUSH2 0x136A JUMP JUMPDEST SWAP2 POP PUSH2 0x18AB PUSH1 0x20 DUP5 ADD PUSH2 0x136A JUMP JUMPDEST SWAP1 POP SWAP3 POP SWAP3 SWAP1 POP JUMP JUMPDEST PUSH1 0x0 PUSH1 0x20 DUP3 DUP5 SUB SLT ISZERO PUSH2 0x18C6 JUMPI PUSH1 0x0 DUP1 REVERT JUMPDEST DUP2 CALLDATALOAD PUSH8 0xFFFFFFFFFFFFFFFF DUP2 GT ISZERO PUSH2 0x18DD JUMPI PUSH1 0x0 DUP1 REVERT JUMPDEST PUSH2 0x18E9 DUP5 DUP3 DUP6 ADD PUSH2 0x14C6 JUMP JUMPDEST SWAP5 SWAP4 POP POP POP POP JUMP JUMPDEST PUSH1 0x0 DUP1 PUSH1 0x0 DUP1 PUSH1 0x0 PUSH1 0xA0 DUP7 DUP9 SUB SLT ISZERO PUSH2 0x1909 JUMPI PUSH1 0x0 DUP1 REVERT JUMPDEST PUSH2 0x1912 DUP7 PUSH2 0x136A JUMP JUMPDEST SWAP5 POP PUSH2 0x1920 PUSH1 0x20 DUP8 ADD PUSH2 0x136A JUMP JUMPDEST SWAP4 POP PUSH1 0x40 DUP7 ADD CALLDATALOAD SWAP3 POP PUSH1 0x60 DUP7 ADD CALLDATALOAD SWAP2 POP PUSH1 0x80 DUP7 ADD CALLDATALOAD PUSH8 0xFFFFFFFFFFFFFFFF DUP2 GT ISZERO PUSH2 0x194A JUMPI PUSH1 0x0 DUP1 REVERT JUMPDEST PUSH2 0x1752 DUP9 DUP3 DUP10 ADD PUSH2 0x14C6 JUMP JUMPDEST PUSH1 0x1 DUP2 DUP2 SHR SWAP1 DUP3 AND DUP1 PUSH2 0x196A JUMPI PUSH1 0x7F DUP3 AND SWAP2 POP JUMPDEST PUSH1 0x20 DUP3 LT DUP2 SUB PUSH2 0x198A JUMPI PUSH4 0x4E487B71 PUSH1 0xE0 SHL PUSH1 0x0 MSTORE PUSH1 0x22 PUSH1 0x4 MSTORE PUSH1 0x24 PUSH1 0x0 REVERT JUMPDEST POP SWAP2 SWAP1 POP JUMP JUMPDEST PUSH4 0x4E487B71 PUSH1 0xE0 SHL PUSH1 0x0 MSTORE PUSH1 0x32 PUSH1 0x4 MSTORE PUSH1 0x24 PUSH1 0x0 REVERT JUMPDEST PUSH1 0x1F DUP3 GT ISZERO PUSH2 0x19EC JUMPI PUSH1 0x0 DUP2 DUP2 MSTORE PUSH1 0x20 DUP2 KECCAK256 PUSH1 0x1F DUP6 ADD PUSH1 0x5 SHR DUP2 ADD PUSH1 0x20 DUP7 LT ISZERO PUSH2 0x19CD JUMPI POP DUP1 JUMPDEST PUSH1 0x1F DUP6 ADD PUSH1 0x5 SHR DUP3 ADD SWAP2 POP JUMPDEST DUP2 DUP2 LT ISZERO PUSH2 0xDC4 JUMPI DUP3 DUP2 SSTORE PUSH1 0x1 ADD PUSH2 0x19D9 JUMP JUMPDEST POP POP POP JUMP JUMPDEST DUP2 MLOAD PUSH8 0xFFFFFFFFFFFFFFFF DUP2 GT ISZERO PUSH2 0x1A0B JUMPI PUSH2 0x1A0B PUSH2 0x145F JUMP JUMPDEST PUSH2 0x1A1F DUP2 PUSH2 0x1A19 DUP5 SLOAD PUSH2 0x1956 JUMP JUMPDEST DUP5 PUSH2 0x19A6 JUMP JUMPDEST PUSH1 0x20 DUP1 PUSH1 0x1F DUP4 GT PUSH1 0x1 DUP2 EQ PUSH2 0x1A54 JUMPI PUSH1 0x0 DUP5 ISZERO PUSH2 0x1A3C JUMPI POP DUP6 DUP4 ADD MLOAD JUMPDEST PUSH1 0x0 NOT PUSH1 0x3 DUP7 SWAP1 SHL SHR NOT AND PUSH1 0x1 DUP6 SWAP1 SHL OR DUP6 SSTORE PUSH2 0xDC4 JUMP JUMPDEST PUSH1 0x0 DUP6 DUP2 MSTORE PUSH1 0x20 DUP2 KECCAK256 PUSH1 0x1F NOT DUP7 AND SWAP2 JUMPDEST DUP3 DUP2 LT ISZERO PUSH2 0x1A83 JUMPI DUP9 DUP7 ADD MLOAD DUP3 SSTORE SWAP5 DUP5 ADD SWAP5 PUSH1 0x1 SWAP1 SWAP2 ADD SWAP1 DUP5 ADD PUSH2 0x1A64 JUMP JUMPDEST POP DUP6 DUP3 LT ISZERO PUSH2 0x1AA1 JUMPI DUP8 DUP6 ADD MLOAD PUSH1 0x0 NOT PUSH1 0x3 DUP9 SWAP1 SHL PUSH1 0xF8 AND SHR NOT AND DUP2 SSTORE JUMPDEST POP POP POP POP POP PUSH1 0x1 SWAP1 DUP2 SHL ADD SWAP1 SSTORE POP JUMP JUMPDEST PUSH4 0x4E487B71 PUSH1 0xE0 SHL PUSH1 0x0 MSTORE PUSH1 0x11 PUSH1 0x4 MSTORE PUSH1 0x24 PUSH1 0x0 REVERT JUMPDEST PUSH1 0x0 PUSH1 0x1 DUP3 ADD PUSH2 0x1AD9 JUMPI PUSH2 0x1AD9 PUSH2 0x1AB1 JUMP JUMPDEST POP PUSH1 0x1 ADD SWAP1 JUMP JUMPDEST DUP1 DUP3 ADD DUP1 DUP3 GT ISZERO PUSH2 0x36A JUMPI PUSH2 0x36A PUSH2 0x1AB1 JUMP JUMPDEST PUSH1 0x40 DUP2 MSTORE PUSH1 0x0 PUSH2 0x1B06 PUSH1 0x40 DUP4 ADD DUP6 PUSH2 0x15F6 JUMP JUMPDEST DUP3 DUP2 SUB PUSH1 0x20 DUP5 ADD MSTORE PUSH2 0x1B18 DUP2 DUP6 PUSH2 0x15F6 JUMP JUMPDEST SWAP6 SWAP5 POP POP POP POP POP JUMP JUMPDEST PUSH1 0x0 PUSH1 0x1 PUSH1 0x1 PUSH1 0xA0 SHL SUB DUP1 DUP9 AND DUP4 MSTORE DUP1 DUP8 AND PUSH1 0x20 DUP5 ADD MSTORE POP DUP5 PUSH1 0x40 DUP4 ADD MSTORE DUP4 PUSH1 0x60 DUP4 ADD MSTORE PUSH1 0xA0 PUSH1 0x80 DUP4 ADD MSTORE PUSH2 0x1B59 PUSH1 0xA0 DUP4 ADD DUP5 PUSH2 0x1406 JUMP JUMPDEST SWAP8 SWAP7 POP POP POP POP POP POP POP JUMP JUMPDEST PUSH1 0x0 PUSH1 0x20 DUP3 DUP5 SUB SLT ISZERO PUSH2 0x1B76 JUMPI PUSH1 0x0 DUP1 REVERT JUMPDEST DUP2 MLOAD PUSH2 0x13E6 DUP2 PUSH2 0x13B0 JUMP JUMPDEST PUSH1 0x0 PUSH1 0x3 RETURNDATASIZE GT ISZERO PUSH2 0x1B9A JUMPI PUSH1 0x4 PUSH1 0x0 DUP1 RETURNDATACOPY POP PUSH1 0x0 MLOAD PUSH1 0xE0 SHR JUMPDEST SWAP1 JUMP JUMPDEST PUSH1 0x0 PUSH1 0x44 RETURNDATASIZE LT ISZERO PUSH2 0x1BAB JUMPI SWAP1 JUMP JUMPDEST PUSH1 0x40 MLOAD PUSH1 0x3 NOT RETURNDATASIZE DUP2 ADD PUSH1 0x4 DUP4 RETURNDATACOPY DUP2 MLOAD RETURNDATASIZE PUSH8 0xFFFFFFFFFFFFFFFF DUP2 PUSH1 0x24 DUP5 ADD GT DUP2 DUP5 GT OR ISZERO PUSH2 0x1BDB JUMPI POP POP POP POP POP SWAP1 JUMP JUMPDEST DUP3 DUP6 ADD SWAP2 POP DUP2 MLOAD DUP2 DUP2 GT ISZERO PUSH2 0x1BF3 JUMPI POP POP POP POP POP POP SWAP1 JUMP JUMPDEST DUP5 RETURNDATASIZE DUP8 ADD ADD PUSH1 0x20 DUP3 DUP6 ADD ADD GT ISZERO PUSH2 0x1C0D JUMPI POP POP POP POP POP POP SWAP1 JUMP JUMPDEST PUSH2 0x1C1C PUSH1 0x20 DUP3 DUP7 ADD ADD DUP8 PUSH2 0x1475 JUMP JUMPDEST POP SWAP1 SWAP6 SWAP5 POP POP POP POP POP JUMP JUMPDEST PUSH1 0x0 PUSH1 0x1 PUSH1 0x1 PUSH1 0xA0 SHL SUB DUP1 DUP9 AND DUP4 MSTORE DUP1 DUP8 AND PUSH1 0x20 DUP5 ADD MSTORE POP PUSH1 0xA0 PUSH1 0x40 DUP4 ADD MSTORE PUSH2 0x1C53 PUSH1 0xA0 DUP4 ADD DUP7 PUSH2 0x15F6 JUMP JUMPDEST DUP3 DUP2 SUB PUSH1 0x60 DUP5 ADD MSTORE PUSH2 0x1C65 DUP2 DUP7 PUSH2 0x15F6 JUMP JUMPDEST SWAP1 POP DUP3 DUP2 SUB PUSH1 0x80 DUP5 ADD MSTORE PUSH2 0x1C79 DUP2 DUP6 PUSH2 0x1406 JUMP JUMPDEST SWAP9 SWAP8 POP POP POP POP POP POP POP POP JUMP INVALID LOG2 PUSH5 0x6970667358 0x22 SLT KECCAK256 SSTORE 0xA6 0xA6 OR 0xC6 GAS 0xE 0xCC JUMPI DIFFICULTY DUP2 EXP SELFBALANCE 0xD3 0x5F 0xA9 0xB6 0xC9 STOP ADD PUSH13 0xC05D77F1DFDF0D8D272EE06473 PUSH16 0x6C6343000811003368747470733A2F2F PUSH3 0x61666B PUSH19 0x656967616F646366327961697562687668376A PUSH12 0x6F35377A6572757772366B32 PUSH27 0x63656A366674763461676C67376D746F6F737A37752E697066732E PUSH15 0x667473746F726167652E6C696E6B2F "},"gasEstimates":{"creation":{"codeDepositCost":"1471000","executionCost":"infinite","totalCost":"infinite"},"external":{"BNB_TOKEN()":"229","balanceOf(address,uint256)":"2700","balanceOfBatch(address[],uint256[])":"infinite","balanceOfFNFT(address)":"433","balanceOfToken()":"2604","createFNFT(string)":"infinite","createFNFTBatch(string[])":"infinite","decimalsToken()":"2334","isApprovedForAll(address,address)":"infinite","nameToken()":"infinite","safeBatchTransferFrom(address,address,uint256[],uint256[],bytes)":"infinite","safeTransferFrom(address,address,uint256,uint256,bytes)":"infinite","setApprovalForAll(address,bool)":"26728","supportsInterface(bytes4)":"560","symbolToken()":"infinite","totalSupplyToken()":"2327","transferToken(address,uint256)":"infinite","uri(uint256)":"infinite"}},"methodIdentifiers":{"BNB_TOKEN()":"50544211","balanceOf(address,uint256)":"00fdd58e","balanceOfBatch(address[],uint256[])":"4e1273f4","balanceOfFNFT(address)":"38a9188a","balanceOfToken()":"6b0f1c81","createFNFT(string)":"ec45a25c","createFNFTBatch(string[])":"2a78a58a","decimalsToken()":"2a99e915","isApprovedForAll(address,address)":"e985e9c5","nameToken()":"6e311784","safeBatchTransferFrom(address,address,uint256[],uint256[],bytes)":"2eb2c2d6","safeTransferFrom(address,address,uint256,uint256,bytes)":"f242432a","setApprovalForAll(address,bool)":"a22cb465","supportsInterface(bytes4)":"01ffc9a7","symbolToken()":"dd12d8a5","totalSupplyToken()":"27213345","transferToken(address,uint256)":"1072cbea","uri(uint256)":"0e89341c"}},"storageLayout":{"storage":[{"astId":138,"contract":"contracts/ERC1155.sol:BNBEnviroment","label":"_balances","offset":0,"slot":"0","type":"t_mapping(t_uint256,t_mapping(t_address,t_uint256))"},{"astId":144,"contract":"contracts/ERC1155.sol:BNBEnviroment","label":"_operatorApprovals","offset":0,"slot":"1","type":"t_mapping(t_address,t_mapping(t_address,t_bool))"},{"astId":146,"contract":"contracts/ERC1155.sol:BNBEnviroment","label":"_uri","offset":0,"slot":"2","type":"t_string_storage"},{"astId":3221,"contract":"contracts/ERC1155.sol:BNBEnviroment","label":"_totalFNFTs","offset":0,"slot":"3","type":"t_struct(Counter)1974_storage"},{"astId":3225,"contract":"contracts/ERC1155.sol:BNBEnviroment","label":"_listUris","offset":0,"slot":"4","type":"t_mapping(t_uint256,t_string_storage)"},{"astId":3227,"contract":"contracts/ERC1155.sol:BNBEnviroment","label":"_nameToken","offset":0,"slot":"5","type":"t_string_storage"},{"astId":3229,"contract":"contracts/ERC1155.sol:BNBEnviroment","label":"_symbolToken","offset":0,"slot":"6","type":"t_string_storage"},{"astId":3231,"contract":"contracts/ERC1155.sol:BNBEnviroment","label":"_decimalsToken","offset":0,"slot":"7","type":"t_uint8"},{"astId":3233,"contract":"contracts/ERC1155.sol:BNBEnviroment","label":"_totalSupplyTokens","offset":0,"slot":"8","type":"t_uint256"}],"types":{"t_address":{"encoding":"inplace","label":"address","numberOfBytes":"20"},"t_bool":{"encoding":"inplace","label":"bool","numberOfBytes":"1"},"t_mapping(t_address,t_bool)":{"encoding":"mapping","key":"t_address","label":"mapping(address => bool)","numberOfBytes":"32","value":"t_bool"},"t_mapping(t_address,t_mapping(t_address,t_bool))":{"encoding":"mapping","key":"t_address","label":"mapping(address => mapping(address => bool))","numberOfBytes":"32","value":"t_mapping(t_address,t_bool)"},"t_mapping(t_address,t_uint256)":{"encoding":"mapping","key":"t_address","label":"mapping(address => uint256)","numberOfBytes":"32","value":"t_uint256"},"t_mapping(t_uint256,t_mapping(t_address,t_uint256))":{"encoding":"mapping","key":"t_uint256","label":"mapping(uint256 => mapping(address => uint256))","numberOfBytes":"32","value":"t_mapping(t_address,t_uint256)"},"t_mapping(t_uint256,t_string_storage)":{"encoding":"mapping","key":"t_uint256","label":"mapping(uint256 => string)","numberOfBytes":"32","value":"t_string_storage"},"t_string_storage":{"encoding":"bytes","label":"string","numberOfBytes":"32"},"t_struct(Counter)1974_storage":{"encoding":"inplace","label":"struct Counters.Counter","members":[{"astId":1973,"contract":"contracts/ERC1155.sol:BNBEnviroment","label":"_value","offset":0,"slot":"0","type":"t_uint256"}],"numberOfBytes":"32"},"t_uint256":{"encoding":"inplace","label":"uint256","numberOfBytes":"32"},"t_uint8":{"encoding":"inplace","label":"uint8","numberOfBytes":"1"}}},"userdoc":{"kind":"user","methods":{},"version":1}}}}