{"contracts/LiquidityProvider.sol":{"UniswapLiquidityProvider":{"abi":[{"inputs":[{"internalType":"address","name":"_token","type":"address"},{"internalType":"address","name":"_uniswapRouter","type":"address"}],"stateMutability":"nonpayable","type":"constructor"},{"inputs":[{"internalType":"uint256","name":"amountTokenDesired","type":"uint256"},{"internalType":"uint256","name":"amountETHDesired","type":"uint256"}],"name":"addLiquidity","outputs":[],"stateMutability":"nonpayable","type":"function"},{"inputs":[],"name":"lockLiquidity","outputs":[],"stateMutability":"nonpayable","type":"function"},{"inputs":[{"internalType":"address","name":"_address","type":"address"}],"name":"setAuthorizedAddress","outputs":[],"stateMutability":"nonpayable","type":"function"},{"inputs":[],"name":"unlockLiquidity","outputs":[],"stateMutability":"nonpayable","type":"function"},{"inputs":[],"name":"withdrawETH","outputs":[],"stateMutability":"nonpayable","type":"function"},{"inputs":[{"internalType":"address","name":"tokenAddress","type":"address"}],"name":"withdrawTokens","outputs":[],"stateMutability":"nonpayable","type":"function"},{"stateMutability":"payable","type":"receive"}],"devdoc":{"kind":"dev","methods":{},"version":1},"evm":{"bytecode":{"linkReferences":{},"object":"608060405234801561001057600080fd5b506040516109a53803806109a583398101604081905261002f9161008b565b600080546001600160a01b039283166001600160a01b031991821617909155600180549390921692811692909217905560038054909116331790556100be565b80516001600160a01b038116811461008657600080fd5b919050565b6000806040838503121561009e57600080fd5b6100a78361006f565b91506100b56020840161006f565b90509250929050565b6108d8806100cd6000396000f3fe6080604052600436106100695760003560e01c80639cd441da116100435780639cd441da146100cc578063bb2f7199146100ec578063e086e5ec1461010157600080fd5b806349df728c1461007557806369f29c51146100975780636b54acd9146100b757600080fd5b3661007057005b600080fd5b34801561008157600080fd5b506100956100903660046107a7565b610116565b005b3480156100a357600080fd5b506100956100b23660046107a7565b610284565b3480156100c357600080fd5b5061009561030e565b3480156100d857600080fd5b506100956100e73660046107d7565b610428565b3480156100f857600080fd5b50610095610645565b34801561010d57600080fd5b50610095610724565b6003546001600160a01b0316331461016b5760405162461bcd60e51b8152602060048201526013602482015272556e617574686f72697a65642061636365737360681b60448201526064015b60405180910390fd5b6040517f70a0823100000000000000000000000000000000000000000000000000000000815230600482015281906000906001600160a01b038316906370a0823190602401602060405180830381865afa1580156101cd573d6000803e3d6000fd5b505050506040513d601f19601f820116820180604052508101906101f191906107f9565b6040517fa9059cbb000000000000000000000000000000000000000000000000000000008152336004820152602481018290529091506001600160a01b0383169063a9059cbb906044016020604051808303816000875af115801561025a573d6000803e3d6000fd5b505050506040513d601f19601f8201168201806040525081019061027e9190610812565b50505050565b6003546001600160a01b031633146102d45760405162461bcd60e51b8152602060048201526013602482015272556e617574686f72697a65642061636365737360681b6044820152606401610162565b600380547fffffffffffffffffffffffff0000000000000000000000000000000000000000166001600160a01b0392909216919091179055565b6003546001600160a01b0316331461035e5760405162461bcd60e51b8152602060048201526013602482015272556e617574686f72697a65642061636365737360681b6044820152606401610162565b600154600160a01b900460ff166103b75760405162461bcd60e51b815260206004820152601460248201527f4c6971756964697479206e6f74206c6f636b65640000000000000000000000006044820152606401610162565b60025442116104085760405162461bcd60e51b815260206004820152601660248201527f4c6971756964697479207374696c6c206c6f636b6564000000000000000000006044820152606401610162565b6001805474ff000000000000000000000000000000000000000019169055565b6003546001600160a01b031633146104785760405162461bcd60e51b8152602060048201526013602482015272556e617574686f72697a65642061636365737360681b6044820152606401610162565b6000546001600160a01b0316806104d15760405162461bcd60e51b815260206004820152601860248201527f556e697377617020726f75746572206e6f7420666f756e6400000000000000006044820152606401610162565b6001546040517f095ea7b30000000000000000000000000000000000000000000000000000000081526001600160a01b038381166004830152602482018690529091169063095ea7b3906044016020604051808303816000875af115801561053d573d6000803e3d6000fd5b505050506040513d601f19601f820116820180604052508101906105619190610812565b506001546001600160a01b038083169163f305d71991859116866000803061058b42610708610834565b60405160e089901b7fffffffff000000000000000000000000000000000000000000000000000000001681526001600160a01b039687166004820152602481019590955260448501939093526064840191909152909216608482015260a481019190915260c40160606040518083038185885af1158015610610573d6000803e3d6000fd5b50505050506040513d601f19601f820116820180604052508101906106359190610874565b505050610640610645565b505050565b6003546001600160a01b031633146106955760405162461bcd60e51b8152602060048201526013602482015272556e617574686f72697a65642061636365737360681b6044820152606401610162565b600154600160a01b900460ff16156106ef5760405162461bcd60e51b815260206004820152601860248201527f4c697175696469747920616c7265616479206c6f636b656400000000000000006044820152606401610162565b6001805474ff00000000000000000000000000000000000000001916600160a01b17905561071f42610708610834565b600255565b6003546001600160a01b031633146107745760405162461bcd60e51b8152602060048201526013602482015272556e617574686f72697a65642061636365737360681b6044820152606401610162565b6040514790339082156108fc029083906000818181858888f193505050501580156107a3573d6000803e3d6000fd5b5050565b6000602082840312156107b957600080fd5b81356001600160a01b03811681146107d057600080fd5b9392505050565b600080604083850312156107ea57600080fd5b50508035926020909101359150565b60006020828403121561080b57600080fd5b5051919050565b60006020828403121561082457600080fd5b815180151581146107d057600080fd5b8082018082111561086e577f4e487b7100000000000000000000000000000000000000000000000000000000600052601160045260246000fd5b92915050565b60008060006060848603121561088957600080fd5b835192506020840151915060408401519050925092509256fea264697066735822122000d11002d88833c07f7b97da4ac9b717b443a12c42f65ca8bc0238adcddc75f764736f6c63430008110033","opcodes":"PUSH1 0x80 PUSH1 0x40 MSTORE CALLVALUE DUP1 ISZERO PUSH2 0x10 JUMPI PUSH1 0x0 DUP1 REVERT JUMPDEST POP PUSH1 0x40 MLOAD PUSH2 0x9A5 CODESIZE SUB DUP1 PUSH2 0x9A5 DUP4 CODECOPY DUP2 ADD PUSH1 0x40 DUP2 SWAP1 MSTORE PUSH2 0x2F SWAP2 PUSH2 0x8B JUMP JUMPDEST PUSH1 0x0 DUP1 SLOAD PUSH1 0x1 PUSH1 0x1 PUSH1 0xA0 SHL SUB SWAP3 DUP4 AND PUSH1 0x1 PUSH1 0x1 PUSH1 0xA0 SHL SUB NOT SWAP2 DUP3 AND OR SWAP1 SWAP2 SSTORE PUSH1 0x1 DUP1 SLOAD SWAP4 SWAP1 SWAP3 AND SWAP3 DUP2 AND SWAP3 SWAP1 SWAP3 OR SWAP1 SSTORE PUSH1 0x3 DUP1 SLOAD SWAP1 SWAP2 AND CALLER OR SWAP1 SSTORE PUSH2 0xBE JUMP JUMPDEST DUP1 MLOAD PUSH1 0x1 PUSH1 0x1 PUSH1 0xA0 SHL SUB DUP2 AND DUP2 EQ PUSH2 0x86 JUMPI PUSH1 0x0 DUP1 REVERT JUMPDEST SWAP2 SWAP1 POP JUMP JUMPDEST PUSH1 0x0 DUP1 PUSH1 0x40 DUP4 DUP6 SUB SLT ISZERO PUSH2 0x9E JUMPI PUSH1 0x0 DUP1 REVERT JUMPDEST PUSH2 0xA7 DUP4 PUSH2 0x6F JUMP JUMPDEST SWAP2 POP PUSH2 0xB5 PUSH1 0x20 DUP5 ADD PUSH2 0x6F JUMP JUMPDEST SWAP1 POP SWAP3 POP SWAP3 SWAP1 POP JUMP JUMPDEST PUSH2 0x8D8 DUP1 PUSH2 0xCD PUSH1 0x0 CODECOPY PUSH1 0x0 RETURN INVALID PUSH1 0x80 PUSH1 0x40 MSTORE PUSH1 0x4 CALLDATASIZE LT PUSH2 0x69 JUMPI PUSH1 0x0 CALLDATALOAD PUSH1 0xE0 SHR DUP1 PUSH4 0x9CD441DA GT PUSH2 0x43 JUMPI DUP1 PUSH4 0x9CD441DA EQ PUSH2 0xCC JUMPI DUP1 PUSH4 0xBB2F7199 EQ PUSH2 0xEC JUMPI DUP1 PUSH4 0xE086E5EC EQ PUSH2 0x101 JUMPI PUSH1 0x0 DUP1 REVERT JUMPDEST DUP1 PUSH4 0x49DF728C EQ PUSH2 0x75 JUMPI DUP1 PUSH4 0x69F29C51 EQ PUSH2 0x97 JUMPI DUP1 PUSH4 0x6B54ACD9 EQ PUSH2 0xB7 JUMPI PUSH1 0x0 DUP1 REVERT JUMPDEST CALLDATASIZE PUSH2 0x70 JUMPI STOP JUMPDEST PUSH1 0x0 DUP1 REVERT JUMPDEST CALLVALUE DUP1 ISZERO PUSH2 0x81 JUMPI PUSH1 0x0 DUP1 REVERT JUMPDEST POP PUSH2 0x95 PUSH2 0x90 CALLDATASIZE PUSH1 0x4 PUSH2 0x7A7 JUMP JUMPDEST PUSH2 0x116 JUMP JUMPDEST STOP JUMPDEST CALLVALUE DUP1 ISZERO PUSH2 0xA3 JUMPI PUSH1 0x0 DUP1 REVERT JUMPDEST POP PUSH2 0x95 PUSH2 0xB2 CALLDATASIZE PUSH1 0x4 PUSH2 0x7A7 JUMP JUMPDEST PUSH2 0x284 JUMP JUMPDEST CALLVALUE DUP1 ISZERO PUSH2 0xC3 JUMPI PUSH1 0x0 DUP1 REVERT JUMPDEST POP PUSH2 0x95 PUSH2 0x30E JUMP JUMPDEST CALLVALUE DUP1 ISZERO PUSH2 0xD8 JUMPI PUSH1 0x0 DUP1 REVERT JUMPDEST POP PUSH2 0x95 PUSH2 0xE7 CALLDATASIZE PUSH1 0x4 PUSH2 0x7D7 JUMP JUMPDEST PUSH2 0x428 JUMP JUMPDEST CALLVALUE DUP1 ISZERO PUSH2 0xF8 JUMPI PUSH1 0x0 DUP1 REVERT JUMPDEST POP PUSH2 0x95 PUSH2 0x645 JUMP JUMPDEST CALLVALUE DUP1 ISZERO PUSH2 0x10D JUMPI PUSH1 0x0 DUP1 REVERT JUMPDEST POP PUSH2 0x95 PUSH2 0x724 JUMP JUMPDEST PUSH1 0x3 SLOAD PUSH1 0x1 PUSH1 0x1 PUSH1 0xA0 SHL SUB AND CALLER EQ PUSH2 0x16B JUMPI PUSH1 0x40 MLOAD PUSH3 0x461BCD PUSH1 0xE5 SHL DUP2 MSTORE PUSH1 0x20 PUSH1 0x4 DUP3 ADD MSTORE PUSH1 0x13 PUSH1 0x24 DUP3 ADD MSTORE PUSH19 0x556E617574686F72697A656420616363657373 PUSH1 0x68 SHL PUSH1 0x44 DUP3 ADD MSTORE PUSH1 0x64 ADD JUMPDEST PUSH1 0x40 MLOAD DUP1 SWAP2 SUB SWAP1 REVERT JUMPDEST PUSH1 0x40 MLOAD PUSH32 0x70A0823100000000000000000000000000000000000000000000000000000000 DUP2 MSTORE ADDRESS PUSH1 0x4 DUP3 ADD MSTORE DUP2 SWAP1 PUSH1 0x0 SWAP1 PUSH1 0x1 PUSH1 0x1 PUSH1 0xA0 SHL SUB DUP4 AND SWAP1 PUSH4 0x70A08231 SWAP1 PUSH1 0x24 ADD PUSH1 0x20 PUSH1 0x40 MLOAD DUP1 DUP4 SUB DUP2 DUP7 GAS STATICCALL ISZERO DUP1 ISZERO PUSH2 0x1CD JUMPI RETURNDATASIZE PUSH1 0x0 DUP1 RETURNDATACOPY RETURNDATASIZE PUSH1 0x0 REVERT JUMPDEST POP POP POP POP PUSH1 0x40 MLOAD RETURNDATASIZE PUSH1 0x1F NOT PUSH1 0x1F DUP3 ADD AND DUP3 ADD DUP1 PUSH1 0x40 MSTORE POP DUP2 ADD SWAP1 PUSH2 0x1F1 SWAP2 SWAP1 PUSH2 0x7F9 JUMP JUMPDEST PUSH1 0x40 MLOAD PUSH32 0xA9059CBB00000000000000000000000000000000000000000000000000000000 DUP2 MSTORE CALLER PUSH1 0x4 DUP3 ADD MSTORE PUSH1 0x24 DUP2 ADD DUP3 SWAP1 MSTORE SWAP1 SWAP2 POP PUSH1 0x1 PUSH1 0x1 PUSH1 0xA0 SHL SUB DUP4 AND SWAP1 PUSH4 0xA9059CBB SWAP1 PUSH1 0x44 ADD PUSH1 0x20 PUSH1 0x40 MLOAD DUP1 DUP4 SUB DUP2 PUSH1 0x0 DUP8 GAS CALL ISZERO DUP1 ISZERO PUSH2 0x25A JUMPI RETURNDATASIZE PUSH1 0x0 DUP1 RETURNDATACOPY RETURNDATASIZE PUSH1 0x0 REVERT JUMPDEST POP POP POP POP PUSH1 0x40 MLOAD RETURNDATASIZE PUSH1 0x1F NOT PUSH1 0x1F DUP3 ADD AND DUP3 ADD DUP1 PUSH1 0x40 MSTORE POP DUP2 ADD SWAP1 PUSH2 0x27E SWAP2 SWAP1 PUSH2 0x812 JUMP JUMPDEST POP POP POP POP JUMP JUMPDEST PUSH1 0x3 SLOAD PUSH1 0x1 PUSH1 0x1 PUSH1 0xA0 SHL SUB AND CALLER EQ PUSH2 0x2D4 JUMPI PUSH1 0x40 MLOAD PUSH3 0x461BCD PUSH1 0xE5 SHL DUP2 MSTORE PUSH1 0x20 PUSH1 0x4 DUP3 ADD MSTORE PUSH1 0x13 PUSH1 0x24 DUP3 ADD MSTORE PUSH19 0x556E617574686F72697A656420616363657373 PUSH1 0x68 SHL PUSH1 0x44 DUP3 ADD MSTORE PUSH1 0x64 ADD PUSH2 0x162 JUMP JUMPDEST PUSH1 0x3 DUP1 SLOAD PUSH32 0xFFFFFFFFFFFFFFFFFFFFFFFF0000000000000000000000000000000000000000 AND PUSH1 0x1 PUSH1 0x1 PUSH1 0xA0 SHL SUB SWAP3 SWAP1 SWAP3 AND SWAP2 SWAP1 SWAP2 OR SWAP1 SSTORE JUMP JUMPDEST PUSH1 0x3 SLOAD PUSH1 0x1 PUSH1 0x1 PUSH1 0xA0 SHL SUB AND CALLER EQ PUSH2 0x35E JUMPI PUSH1 0x40 MLOAD PUSH3 0x461BCD PUSH1 0xE5 SHL DUP2 MSTORE PUSH1 0x20 PUSH1 0x4 DUP3 ADD MSTORE PUSH1 0x13 PUSH1 0x24 DUP3 ADD MSTORE PUSH19 0x556E617574686F72697A656420616363657373 PUSH1 0x68 SHL PUSH1 0x44 DUP3 ADD MSTORE PUSH1 0x64 ADD PUSH2 0x162 JUMP JUMPDEST PUSH1 0x1 SLOAD PUSH1 0x1 PUSH1 0xA0 SHL SWAP1 DIV PUSH1 0xFF AND PUSH2 0x3B7 JUMPI PUSH1 0x40 MLOAD PUSH3 0x461BCD PUSH1 0xE5 SHL DUP2 MSTORE PUSH1 0x20 PUSH1 0x4 DUP3 ADD MSTORE PUSH1 0x14 PUSH1 0x24 DUP3 ADD MSTORE PUSH32 0x4C6971756964697479206E6F74206C6F636B6564000000000000000000000000 PUSH1 0x44 DUP3 ADD MSTORE PUSH1 0x64 ADD PUSH2 0x162 JUMP JUMPDEST PUSH1 0x2 SLOAD TIMESTAMP GT PUSH2 0x408 JUMPI PUSH1 0x40 MLOAD PUSH3 0x461BCD PUSH1 0xE5 SHL DUP2 MSTORE PUSH1 0x20 PUSH1 0x4 DUP3 ADD MSTORE PUSH1 0x16 PUSH1 0x24 DUP3 ADD MSTORE PUSH32 0x4C6971756964697479207374696C6C206C6F636B656400000000000000000000 PUSH1 0x44 DUP3 ADD MSTORE PUSH1 0x64 ADD PUSH2 0x162 JUMP JUMPDEST PUSH1 0x1 DUP1 SLOAD PUSH21 0xFF0000000000000000000000000000000000000000 NOT AND SWAP1 SSTORE JUMP JUMPDEST PUSH1 0x3 SLOAD PUSH1 0x1 PUSH1 0x1 PUSH1 0xA0 SHL SUB AND CALLER EQ PUSH2 0x478 JUMPI PUSH1 0x40 MLOAD PUSH3 0x461BCD PUSH1 0xE5 SHL DUP2 MSTORE PUSH1 0x20 PUSH1 0x4 DUP3 ADD MSTORE PUSH1 0x13 PUSH1 0x24 DUP3 ADD MSTORE PUSH19 0x556E617574686F72697A656420616363657373 PUSH1 0x68 SHL PUSH1 0x44 DUP3 ADD MSTORE PUSH1 0x64 ADD PUSH2 0x162 JUMP JUMPDEST PUSH1 0x0 SLOAD PUSH1 0x1 PUSH1 0x1 PUSH1 0xA0 SHL SUB AND DUP1 PUSH2 0x4D1 JUMPI PUSH1 0x40 MLOAD PUSH3 0x461BCD PUSH1 0xE5 SHL DUP2 MSTORE PUSH1 0x20 PUSH1 0x4 DUP3 ADD MSTORE PUSH1 0x18 PUSH1 0x24 DUP3 ADD MSTORE PUSH32 0x556E697377617020726F75746572206E6F7420666F756E640000000000000000 PUSH1 0x44 DUP3 ADD MSTORE PUSH1 0x64 ADD PUSH2 0x162 JUMP JUMPDEST PUSH1 0x1 SLOAD PUSH1 0x40 MLOAD PUSH32 0x95EA7B300000000000000000000000000000000000000000000000000000000 DUP2 MSTORE PUSH1 0x1 PUSH1 0x1 PUSH1 0xA0 SHL SUB DUP4 DUP2 AND PUSH1 0x4 DUP4 ADD MSTORE PUSH1 0x24 DUP3 ADD DUP7 SWAP1 MSTORE SWAP1 SWAP2 AND SWAP1 PUSH4 0x95EA7B3 SWAP1 PUSH1 0x44 ADD PUSH1 0x20 PUSH1 0x40 MLOAD DUP1 DUP4 SUB DUP2 PUSH1 0x0 DUP8 GAS CALL ISZERO DUP1 ISZERO PUSH2 0x53D JUMPI RETURNDATASIZE PUSH1 0x0 DUP1 RETURNDATACOPY RETURNDATASIZE PUSH1 0x0 REVERT JUMPDEST POP POP POP POP PUSH1 0x40 MLOAD RETURNDATASIZE PUSH1 0x1F NOT PUSH1 0x1F DUP3 ADD AND DUP3 ADD DUP1 PUSH1 0x40 MSTORE POP DUP2 ADD SWAP1 PUSH2 0x561 SWAP2 SWAP1 PUSH2 0x812 JUMP JUMPDEST POP PUSH1 0x1 SLOAD PUSH1 0x1 PUSH1 0x1 PUSH1 0xA0 SHL SUB DUP1 DUP4 AND SWAP2 PUSH4 0xF305D719 SWAP2 DUP6 SWAP2 AND DUP7 PUSH1 0x0 DUP1 ADDRESS PUSH2 0x58B TIMESTAMP PUSH2 0x708 PUSH2 0x834 JUMP JUMPDEST PUSH1 0x40 MLOAD PUSH1 0xE0 DUP10 SWAP1 SHL PUSH32 0xFFFFFFFF00000000000000000000000000000000000000000000000000000000 AND DUP2 MSTORE PUSH1 0x1 PUSH1 0x1 PUSH1 0xA0 SHL SUB SWAP7 DUP8 AND PUSH1 0x4 DUP3 ADD MSTORE PUSH1 0x24 DUP2 ADD SWAP6 SWAP1 SWAP6 MSTORE PUSH1 0x44 DUP6 ADD SWAP4 SWAP1 SWAP4 MSTORE PUSH1 0x64 DUP5 ADD SWAP2 SWAP1 SWAP2 MSTORE SWAP1 SWAP3 AND PUSH1 0x84 DUP3 ADD MSTORE PUSH1 0xA4 DUP2 ADD SWAP2 SWAP1 SWAP2 MSTORE PUSH1 0xC4 ADD PUSH1 0x60 PUSH1 0x40 MLOAD DUP1 DUP4 SUB DUP2 DUP6 DUP9 GAS CALL ISZERO DUP1 ISZERO PUSH2 0x610 JUMPI RETURNDATASIZE PUSH1 0x0 DUP1 RETURNDATACOPY RETURNDATASIZE PUSH1 0x0 REVERT JUMPDEST POP POP POP POP POP PUSH1 0x40 MLOAD RETURNDATASIZE PUSH1 0x1F NOT PUSH1 0x1F DUP3 ADD AND DUP3 ADD DUP1 PUSH1 0x40 MSTORE POP DUP2 ADD SWAP1 PUSH2 0x635 SWAP2 SWAP1 PUSH2 0x874 JUMP JUMPDEST POP POP POP PUSH2 0x640 PUSH2 0x645 JUMP JUMPDEST POP POP POP JUMP JUMPDEST PUSH1 0x3 SLOAD PUSH1 0x1 PUSH1 0x1 PUSH1 0xA0 SHL SUB AND CALLER EQ PUSH2 0x695 JUMPI PUSH1 0x40 MLOAD PUSH3 0x461BCD PUSH1 0xE5 SHL DUP2 MSTORE PUSH1 0x20 PUSH1 0x4 DUP3 ADD MSTORE PUSH1 0x13 PUSH1 0x24 DUP3 ADD MSTORE PUSH19 0x556E617574686F72697A656420616363657373 PUSH1 0x68 SHL PUSH1 0x44 DUP3 ADD MSTORE PUSH1 0x64 ADD PUSH2 0x162 JUMP JUMPDEST PUSH1 0x1 SLOAD PUSH1 0x1 PUSH1 0xA0 SHL SWAP1 DIV PUSH1 0xFF AND ISZERO PUSH2 0x6EF JUMPI PUSH1 0x40 MLOAD PUSH3 0x461BCD PUSH1 0xE5 SHL DUP2 MSTORE PUSH1 0x20 PUSH1 0x4 DUP3 ADD MSTORE PUSH1 0x18 PUSH1 0x24 DUP3 ADD MSTORE PUSH32 0x4C697175696469747920616C7265616479206C6F636B65640000000000000000 PUSH1 0x44 DUP3 ADD MSTORE PUSH1 0x64 ADD PUSH2 0x162 JUMP JUMPDEST PUSH1 0x1 DUP1 SLOAD PUSH21 0xFF0000000000000000000000000000000000000000 NOT AND PUSH1 0x1 PUSH1 0xA0 SHL OR SWAP1 SSTORE PUSH2 0x71F TIMESTAMP PUSH2 0x708 PUSH2 0x834 JUMP JUMPDEST PUSH1 0x2 SSTORE JUMP JUMPDEST PUSH1 0x3 SLOAD PUSH1 0x1 PUSH1 0x1 PUSH1 0xA0 SHL SUB AND CALLER EQ PUSH2 0x774 JUMPI PUSH1 0x40 MLOAD PUSH3 0x461BCD PUSH1 0xE5 SHL DUP2 MSTORE PUSH1 0x20 PUSH1 0x4 DUP3 ADD MSTORE PUSH1 0x13 PUSH1 0x24 DUP3 ADD MSTORE PUSH19 0x556E617574686F72697A656420616363657373 PUSH1 0x68 SHL PUSH1 0x44 DUP3 ADD MSTORE PUSH1 0x64 ADD PUSH2 0x162 JUMP JUMPDEST PUSH1 0x40 MLOAD SELFBALANCE SWAP1 CALLER SWAP1 DUP3 ISZERO PUSH2 0x8FC MUL SWAP1 DUP4 SWAP1 PUSH1 0x0 DUP2 DUP2 DUP2 DUP6 DUP9 DUP9 CALL SWAP4 POP POP POP POP ISZERO DUP1 ISZERO PUSH2 0x7A3 JUMPI RETURNDATASIZE PUSH1 0x0 DUP1 RETURNDATACOPY RETURNDATASIZE PUSH1 0x0 REVERT JUMPDEST POP POP JUMP JUMPDEST PUSH1 0x0 PUSH1 0x20 DUP3 DUP5 SUB SLT ISZERO PUSH2 0x7B9 JUMPI PUSH1 0x0 DUP1 REVERT JUMPDEST DUP2 CALLDATALOAD PUSH1 0x1 PUSH1 0x1 PUSH1 0xA0 SHL SUB DUP2 AND DUP2 EQ PUSH2 0x7D0 JUMPI PUSH1 0x0 DUP1 REVERT JUMPDEST SWAP4 SWAP3 POP POP POP JUMP JUMPDEST PUSH1 0x0 DUP1 PUSH1 0x40 DUP4 DUP6 SUB SLT ISZERO PUSH2 0x7EA JUMPI PUSH1 0x0 DUP1 REVERT JUMPDEST POP POP DUP1 CALLDATALOAD SWAP3 PUSH1 0x20 SWAP1 SWAP2 ADD CALLDATALOAD SWAP2 POP JUMP JUMPDEST PUSH1 0x0 PUSH1 0x20 DUP3 DUP5 SUB SLT ISZERO PUSH2 0x80B JUMPI PUSH1 0x0 DUP1 REVERT JUMPDEST POP MLOAD SWAP2 SWAP1 POP JUMP JUMPDEST PUSH1 0x0 PUSH1 0x20 DUP3 DUP5 SUB SLT ISZERO PUSH2 0x824 JUMPI PUSH1 0x0 DUP1 REVERT JUMPDEST DUP2 MLOAD DUP1 ISZERO ISZERO DUP2 EQ PUSH2 0x7D0 JUMPI PUSH1 0x0 DUP1 REVERT JUMPDEST DUP1 DUP3 ADD DUP1 DUP3 GT ISZERO PUSH2 0x86E JUMPI PUSH32 0x4E487B7100000000000000000000000000000000000000000000000000000000 PUSH1 0x0 MSTORE PUSH1 0x11 PUSH1 0x4 MSTORE PUSH1 0x24 PUSH1 0x0 REVERT JUMPDEST SWAP3 SWAP2 POP POP JUMP JUMPDEST PUSH1 0x0 DUP1 PUSH1 0x0 PUSH1 0x60 DUP5 DUP7 SUB SLT ISZERO PUSH2 0x889 JUMPI PUSH1 0x0 DUP1 REVERT JUMPDEST DUP4 MLOAD SWAP3 POP PUSH1 0x20 DUP5 ADD MLOAD SWAP2 POP PUSH1 0x40 DUP5 ADD MLOAD SWAP1 POP SWAP3 POP SWAP3 POP SWAP3 JUMP INVALID LOG2 PUSH5 0x6970667358 0x22 SLT KECCAK256 STOP 0xD1 LT MUL 0xD8 DUP9 CALLER 0xC0 PUSH32 0x7B97DA4AC9B717B443A12C42F65CA8BC0238ADCDDC75F764736F6C6343000811 STOP CALLER "},"gasEstimates":{"creation":{"codeDepositCost":"452800","executionCost":"infinite","totalCost":"infinite"},"external":{"addLiquidity(uint256,uint256)":"infinite","lockLiquidity()":"50856","setAuthorizedAddress(address)":"26684","unlockLiquidity()":"30809","withdrawETH()":"infinite","withdrawTokens(address)":"infinite"}},"methodIdentifiers":{"addLiquidity(uint256,uint256)":"9cd441da","lockLiquidity()":"bb2f7199","setAuthorizedAddress(address)":"69f29c51","unlockLiquidity()":"6b54acd9","withdrawETH()":"e086e5ec","withdrawTokens(address)":"49df728c"}},"storageLayout":{"storage":[{"astId":4086,"contract":"contracts/LiquidityProvider.sol:UniswapLiquidityProvider","label":"uniswapRouter","offset":0,"slot":"0","type":"t_address"},{"astId":4088,"contract":"contracts/LiquidityProvider.sol:UniswapLiquidityProvider","label":"token","offset":0,"slot":"1","type":"t_address"},{"astId":4090,"contract":"contracts/LiquidityProvider.sol:UniswapLiquidityProvider","label":"liquidityLocked","offset":20,"slot":"1","type":"t_bool"},{"astId":4092,"contract":"contracts/LiquidityProvider.sol:UniswapLiquidityProvider","label":"liquidityLockTime","offset":0,"slot":"2","type":"t_uint256"},{"astId":4094,"contract":"contracts/LiquidityProvider.sol:UniswapLiquidityProvider","label":"authorizedAddress","offset":0,"slot":"3","type":"t_address"}],"types":{"t_address":{"encoding":"inplace","label":"address","numberOfBytes":"20"},"t_bool":{"encoding":"inplace","label":"bool","numberOfBytes":"1"},"t_uint256":{"encoding":"inplace","label":"uint256","numberOfBytes":"32"}}},"userdoc":{"kind":"user","methods":{},"version":1}}}}