{
  "_format": "hh-sol-artifact-1",
  "contractName": "BNBEnviroment",
  "sourceName": "contracts/ERC1155.sol",
  "abi": [
    {
      "inputs": [],
      "stateMutability": "nonpayable",
      "type": "constructor"
    },
    {
      "anonymous": false,
      "inputs": [
        {
          "indexed": true,
          "internalType": "address",
          "name": "account",
          "type": "address"
        },
        {
          "indexed": true,
          "internalType": "address",
          "name": "operator",
          "type": "address"
        },
        {
          "indexed": false,
          "internalType": "bool",
          "name": "approved",
          "type": "bool"
        }
      ],
      "name": "ApprovalForAll",
      "type": "event"
    },
    {
      "anonymous": false,
      "inputs": [
        {
          "indexed": true,
          "internalType": "address",
          "name": "owner",
          "type": "address"
        },
        {
          "indexed": true,
          "internalType": "uint256",
          "name": "_id",
          "type": "uint256"
        },
        {
          "indexed": false,
          "internalType": "uint256",
          "name": "_amount",
          "type": "uint256"
        },
        {
          "indexed": false,
          "internalType": "bytes",
          "name": "_data",
          "type": "bytes"
        }
      ],
      "name": "CreateToken",
      "type": "event"
    },
    {
      "anonymous": false,
      "inputs": [
        {
          "indexed": true,
          "internalType": "address",
          "name": "owner",
          "type": "address"
        },
        {
          "indexed": true,
          "internalType": "uint256",
          "name": "_id",
          "type": "uint256"
        },
        {
          "indexed": false,
          "internalType": "uint256",
          "name": "_amount",
          "type": "uint256"
        }
      ],
      "name": "DeleteToken",
      "type": "event"
    },
    {
      "anonymous": false,
      "inputs": [
        {
          "indexed": true,
          "internalType": "address",
          "name": "operator",
          "type": "address"
        },
        {
          "indexed": true,
          "internalType": "address",
          "name": "from",
          "type": "address"
        },
        {
          "indexed": true,
          "internalType": "address",
          "name": "to",
          "type": "address"
        },
        {
          "indexed": false,
          "internalType": "uint256[]",
          "name": "ids",
          "type": "uint256[]"
        },
        {
          "indexed": false,
          "internalType": "uint256[]",
          "name": "values",
          "type": "uint256[]"
        }
      ],
      "name": "TransferBatch",
      "type": "event"
    },
    {
      "anonymous": false,
      "inputs": [
        {
          "indexed": true,
          "internalType": "address",
          "name": "operator",
          "type": "address"
        },
        {
          "indexed": true,
          "internalType": "address",
          "name": "from",
          "type": "address"
        },
        {
          "indexed": true,
          "internalType": "address",
          "name": "to",
          "type": "address"
        },
        {
          "indexed": false,
          "internalType": "uint256",
          "name": "id",
          "type": "uint256"
        },
        {
          "indexed": false,
          "internalType": "uint256",
          "name": "value",
          "type": "uint256"
        }
      ],
      "name": "TransferSingle",
      "type": "event"
    },
    {
      "anonymous": false,
      "inputs": [
        {
          "indexed": false,
          "internalType": "string",
          "name": "value",
          "type": "string"
        },
        {
          "indexed": true,
          "internalType": "uint256",
          "name": "id",
          "type": "uint256"
        }
      ],
      "name": "URI",
      "type": "event"
    },
    {
      "inputs": [],
      "name": "BNB_TOKEN",
      "outputs": [
        {
          "internalType": "uint256",
          "name": "",
          "type": "uint256"
        }
      ],
      "stateMutability": "view",
      "type": "function"
    },
    {
      "inputs": [
        {
          "internalType": "address",
          "name": "account",
          "type": "address"
        },
        {
          "internalType": "uint256",
          "name": "id",
          "type": "uint256"
        }
      ],
      "name": "balanceOf",
      "outputs": [
        {
          "internalType": "uint256",
          "name": "",
          "type": "uint256"
        }
      ],
      "stateMutability": "view",
      "type": "function"
    },
    {
      "inputs": [
        {
          "internalType": "address[]",
          "name": "accounts",
          "type": "address[]"
        },
        {
          "internalType": "uint256[]",
          "name": "ids",
          "type": "uint256[]"
        }
      ],
      "name": "balanceOfBatch",
      "outputs": [
        {
          "internalType": "uint256[]",
          "name": "",
          "type": "uint256[]"
        }
      ],
      "stateMutability": "view",
      "type": "function"
    },
    {
      "inputs": [
        {
          "internalType": "address",
          "name": "_owner",
          "type": "address"
        }
      ],
      "name": "balanceOfFNFT",
      "outputs": [
        {
          "internalType": "uint256",
          "name": "",
          "type": "uint256"
        }
      ],
      "stateMutability": "view",
      "type": "function"
    },
    {
      "inputs": [],
      "name": "balanceOfToken",
      "outputs": [
        {
          "internalType": "uint256",
          "name": "",
          "type": "uint256"
        }
      ],
      "stateMutability": "view",
      "type": "function"
    },
    {
      "inputs": [
        {
          "internalType": "string",
          "name": "_urlURI",
          "type": "string"
        }
      ],
      "name": "createFNFT",
      "outputs": [
        {
          "internalType": "uint256",
          "name": "",
          "type": "uint256"
        }
      ],
      "stateMutability": "nonpayable",
      "type": "function"
    },
    {
      "inputs": [
        {
          "internalType": "string[]",
          "name": "_urlURI",
          "type": "string[]"
        }
      ],
      "name": "createFNFTBatch",
      "outputs": [
        {
          "internalType": "uint256[]",
          "name": "",
          "type": "uint256[]"
        }
      ],
      "stateMutability": "nonpayable",
      "type": "function"
    },
    {
      "inputs": [],
      "name": "decimalsToken",
      "outputs": [
        {
          "internalType": "uint8",
          "name": "",
          "type": "uint8"
        }
      ],
      "stateMutability": "view",
      "type": "function"
    },
    {
      "inputs": [
        {
          "internalType": "address",
          "name": "account",
          "type": "address"
        },
        {
          "internalType": "address",
          "name": "operator",
          "type": "address"
        }
      ],
      "name": "isApprovedForAll",
      "outputs": [
        {
          "internalType": "bool",
          "name": "",
          "type": "bool"
        }
      ],
      "stateMutability": "view",
      "type": "function"
    },
    {
      "inputs": [],
      "name": "nameToken",
      "outputs": [
        {
          "internalType": "string",
          "name": "",
          "type": "string"
        }
      ],
      "stateMutability": "view",
      "type": "function"
    },
    {
      "inputs": [
        {
          "internalType": "address",
          "name": "from",
          "type": "address"
        },
        {
          "internalType": "address",
          "name": "to",
          "type": "address"
        },
        {
          "internalType": "uint256[]",
          "name": "ids",
          "type": "uint256[]"
        },
        {
          "internalType": "uint256[]",
          "name": "amounts",
          "type": "uint256[]"
        },
        {
          "internalType": "bytes",
          "name": "data",
          "type": "bytes"
        }
      ],
      "name": "safeBatchTransferFrom",
      "outputs": [],
      "stateMutability": "nonpayable",
      "type": "function"
    },
    {
      "inputs": [
        {
          "internalType": "address",
          "name": "from",
          "type": "address"
        },
        {
          "internalType": "address",
          "name": "to",
          "type": "address"
        },
        {
          "internalType": "uint256",
          "name": "id",
          "type": "uint256"
        },
        {
          "internalType": "uint256",
          "name": "amount",
          "type": "uint256"
        },
        {
          "internalType": "bytes",
          "name": "data",
          "type": "bytes"
        }
      ],
      "name": "safeTransferFrom",
      "outputs": [],
      "stateMutability": "nonpayable",
      "type": "function"
    },
    {
      "inputs": [
        {
          "internalType": "address",
          "name": "operator",
          "type": "address"
        },
        {
          "internalType": "bool",
          "name": "approved",
          "type": "bool"
        }
      ],
      "name": "setApprovalForAll",
      "outputs": [],
      "stateMutability": "nonpayable",
      "type": "function"
    },
    {
      "inputs": [
        {
          "internalType": "bytes4",
          "name": "interfaceId",
          "type": "bytes4"
        }
      ],
      "name": "supportsInterface",
      "outputs": [
        {
          "internalType": "bool",
          "name": "",
          "type": "bool"
        }
      ],
      "stateMutability": "view",
      "type": "function"
    },
    {
      "inputs": [],
      "name": "symbolToken",
      "outputs": [
        {
          "internalType": "string",
          "name": "",
          "type": "string"
        }
      ],
      "stateMutability": "view",
      "type": "function"
    },
    {
      "inputs": [],
      "name": "totalSupplyToken",
      "outputs": [
        {
          "internalType": "uint256",
          "name": "",
          "type": "uint256"
        }
      ],
      "stateMutability": "view",
      "type": "function"
    },
    {
      "inputs": [
        {
          "internalType": "address",
          "name": "_to",
          "type": "address"
        },
        {
          "internalType": "uint256",
          "name": "_amount",
          "type": "uint256"
        }
      ],
      "name": "transferToken",
      "outputs": [],
      "stateMutability": "nonpayable",
      "type": "function"
    },
    {
      "inputs": [
        {
          "internalType": "uint256",
          "name": "_tokenid",
          "type": "uint256"
        }
      ],
      "name": "uri",
      "outputs": [
        {
          "internalType": "string",
          "name": "",
          "type": "string"
        }
      ],
      "stateMutability": "view",
      "type": "function"
    }
  ],
  "bytecode": "0x60806040523480156200001157600080fd5b506040805160208101909152600081526200002c816200011e565b50604080518082019091526009815268212721102a37b5b2b760b91b60208201526005906200005c908262000524565b5060408051808201909152600381526221272160e91b602082015260069062000086908262000524565b506007805460ff19166012908117909155620000a490600a62000705565b600881905560408051602081019091526000808252620000c692339262000130565b604051806080016040528060598152602001620025bf605991396000805260046020527f17ef568e3e12ab5b9c7254a8d58478811de00f9e6eb34345acd53bf8fd09d3ec9062000117908262000524565b50620008f4565b60026200012c828262000524565b5050565b6001600160a01b038416620001965760405162461bcd60e51b815260206004820152602160248201527f455243313135353a206d696e7420746f20746865207a65726f206164647265736044820152607360f81b60648201526084015b60405180910390fd5b336000620001a48562000252565b90506000620001b38562000252565b90506000868152602081815260408083206001600160a01b038b16845290915281208054879290620001e79084906200071d565b909155505060408051878152602081018790526001600160a01b03808a1692600092918716917fc3d58168c5ae7397731d063d5bbf3d657854427343f4c083240f7aacaa2d0f62910160405180910390a46200024983600089898989620002a8565b50505050505050565b604080516001808252818301909252606091600091906020808301908036833701905050905082816000815181106200028f576200028f62000733565b602090810291909101015292915050565b505050505050565b620002c7846001600160a01b03166200047460201b62000a071760201c565b15620002a05760405163f23a6e6160e01b81526001600160a01b0385169063f23a6e619062000303908990899088908890889060040162000791565b6020604051808303816000875af192505050801562000341575060408051601f3d908101601f191682019092526200033e91810190620007d8565b60015b62000401576200035062000804565b806308c379a0036200039057506200036762000850565b8062000374575062000392565b8060405162461bcd60e51b81526004016200018d9190620008df565b505b60405162461bcd60e51b815260206004820152603460248201527f455243313135353a207472616e7366657220746f206e6f6e2d4552433131353560448201527f526563656976657220696d706c656d656e74657200000000000000000000000060648201526084016200018d565b6001600160e01b0319811663f23a6e6160e01b14620002495760405162461bcd60e51b815260206004820152602860248201527f455243313135353a204552433131353552656365697665722072656a656374656044820152676420746f6b656e7360c01b60648201526084016200018d565b6001600160a01b03163b151590565b634e487b7160e01b600052604160045260246000fd5b600181811c90821680620004ae57607f821691505b602082108103620004cf57634e487b7160e01b600052602260045260246000fd5b50919050565b601f8211156200051f57600081815260208120601f850160051c81016020861015620004fe5750805b601f850160051c820191505b81811015620002a0578281556001016200050a565b505050565b81516001600160401b0381111562000540576200054062000483565b620005588162000551845462000499565b84620004d5565b602080601f831160018114620005905760008415620005775750858301515b600019600386901b1c1916600185901b178555620002a0565b600085815260208120601f198616915b82811015620005c157888601518255948401946001909101908401620005a0565b5085821015620005e05787850151600019600388901b60f8161c191681555b5050505050600190811b01905550565b634e487b7160e01b600052601160045260246000fd5b600181815b80851115620006475781600019048211156200062b576200062b620005f0565b808516156200063957918102915b93841c93908002906200060b565b509250929050565b6000826200066057506001620006ff565b816200066f57506000620006ff565b81600181146200068857600281146200069357620006b3565b6001915050620006ff565b60ff841115620006a757620006a7620005f0565b50506001821b620006ff565b5060208310610133831016604e8410600b8410161715620006d8575081810a620006ff565b620006e4838362000606565b8060001904821115620006fb57620006fb620005f0565b0290505b92915050565b60006200071660ff8416836200064f565b9392505050565b80820180821115620006ff57620006ff620005f0565b634e487b7160e01b600052603260045260246000fd5b6000815180845260005b81811015620007715760208185018101518683018201520162000753565b506000602082860101526020601f19601f83011685010191505092915050565b6001600160a01b03868116825285166020820152604081018490526060810183905260a060808201819052600090620007cd9083018462000749565b979650505050505050565b600060208284031215620007eb57600080fd5b81516001600160e01b0319811681146200071657600080fd5b600060033d11156200081e5760046000803e5060005160e01c5b90565b601f8201601f191681016001600160401b038111828210171562000849576200084962000483565b6040525050565b600060443d10156200085f5790565b6040516003193d81016004833e81513d6001600160401b0380831160248401831017156200088f57505050505090565b8285019150815181811115620008a85750505050505090565b843d8701016020828501011115620008c35750505050505090565b620008d46020828601018762000821565b509095945050505050565b60208152600062000716602083018462000749565b611cbb80620009046000396000f3fe608060405234801561001057600080fd5b50600436106101355760003560e01c80634e1273f4116100b2578063a22cb46511610081578063e985e9c511610066578063e985e9c514610262578063ec45a25c1461029e578063f242432a146102b157600080fd5b8063a22cb46514610247578063dd12d8a51461025a57600080fd5b80634e1273f41461021c578063505442111461022f5780636b0f1c81146102375780636e3117841461023f57600080fd5b806327213345116101095780632a99e915116100ee5780632a99e915146101e05780632eb2c2d6146101f557806338a9188a1461020857600080fd5b806327213345146101b85780632a78a58a146101c057600080fd5b8062fdd58e1461013a57806301ffc9a7146101605780630e89341c146101835780631072cbea146101a3575b600080fd5b61014d610148366004611386565b6102c4565b6040519081526020015b60405180910390f35b61017361016e3660046113c9565b610370565b6040519015158152602001610157565b6101966101913660046113ed565b61040b565b604051610157919061144c565b6101b66101b1366004611386565b6104ad565b005b60085461014d565b6101d36101ce36600461153a565b6104ce565b6040516101579190611631565b60075460405160ff9091168152602001610157565b6101b66102033660046116b5565b610621565b61014d61021636600461175f565b50600090565b6101d361022a36600461177a565b6106c3565b61014d600081565b61014d610801565b610196610813565b6101b6610255366004611845565b6108a5565b6101966108b0565b610173610270366004611881565b6001600160a01b03918216600090815260016020908152604080832093909416825291909152205460ff1690565b61014d6102ac3660046118b4565b6108bf565b6101b66102bf3660046118f1565b61096c565b60006001600160a01b0383166103475760405162461bcd60e51b815260206004820152602a60248201527f455243313135353a2061646472657373207a65726f206973206e6f742061207660448201527f616c6964206f776e65720000000000000000000000000000000000000000000060648201526084015b60405180910390fd5b506000818152602081815260408083206001600160a01b03861684529091529020545b92915050565b60006001600160e01b031982167fd9b67a260000000000000000000000000000000000000000000000000000000014806103d357506001600160e01b031982167f0e89341c00000000000000000000000000000000000000000000000000000000145b8061036a57507f01ffc9a7000000000000000000000000000000000000000000000000000000006001600160e01b031983161461036a565b600081815260046020526040902080546060919061042890611956565b80601f016020809104026020016040519081016040528092919081815260200182805461045490611956565b80156104a15780601f10610476576101008083540402835291602001916104a1565b820191906000526020600020905b81548152906001019060200180831161048457829003601f168201915b50505050509050919050565b6104ca33836000846040518060200160405280600081525061096c565b5050565b60606000825167ffffffffffffffff8111156104ec576104ec61145f565b604051908082528060200260200182016040528015610515578160200160208202803683370190505b50905060005b835181101561061a57610532600380546001019055565b600061053d60035490565b905084828151811061055157610551611990565b602002602001015160046000838152602001908152602001600020908161057891906119f1565b506105953382600160405180602001604052806000815250610a16565b80336001600160a01b03167f1a605a604be68e06f6e1ae798a19cc74dd3fea9199ce4b6119da8cae33cf4aa860016040516105e191815260406020820181905260009082015260600190565b60405180910390a3808383815181106105fc576105fc611990565b6020908102919091010152508061061281611ac7565b91505061051b565b5092915050565b6001600160a01b03851633148061063d575061063d8533610270565b6106af5760405162461bcd60e51b815260206004820152602e60248201527f455243313135353a2063616c6c6572206973206e6f7420746f6b656e206f776e60448201527f6572206f7220617070726f766564000000000000000000000000000000000000606482015260840161033e565b6106bc8585858585610b46565b5050505050565b6060815183511461073c5760405162461bcd60e51b815260206004820152602960248201527f455243313135353a206163636f756e747320616e6420696473206c656e67746860448201527f206d69736d617463680000000000000000000000000000000000000000000000606482015260840161033e565b6000835167ffffffffffffffff8111156107585761075861145f565b604051908082528060200260200182016040528015610781578160200160208202803683370190505b50905060005b84518110156107f9576107cc8582815181106107a5576107a5611990565b60200260200101518583815181106107bf576107bf611990565b60200260200101516102c4565b8282815181106107de576107de611990565b60209081029190910101526107f281611ac7565b9050610787565b509392505050565b600061080e3360006102c4565b905090565b60606005805461082290611956565b80601f016020809104026020016040519081016040528092919081815260200182805461084e90611956565b801561089b5780601f106108705761010080835404028352916020019161089b565b820191906000526020600020905b81548152906001019060200180831161087e57829003601f168201915b5050505050905090565b6104ca338383610dcc565b60606006805461082290611956565b60006108cf600380546001019055565b60006108da60035490565b60008181526004602052604090209091506108f584826119f1565b506109123382600160405180602001604052806000815250610a16565b80336001600160a01b03167f1a605a604be68e06f6e1ae798a19cc74dd3fea9199ce4b6119da8cae33cf4aa8600160405161095e91815260406020820181905260009082015260600190565b60405180910390a392915050565b6001600160a01b03851633148061098857506109888533610270565b6109fa5760405162461bcd60e51b815260206004820152602e60248201527f455243313135353a2063616c6c6572206973206e6f7420746f6b656e206f776e60448201527f6572206f7220617070726f766564000000000000000000000000000000000000606482015260840161033e565b6106bc8585858585610ec0565b6001600160a01b03163b151590565b6001600160a01b038416610a925760405162461bcd60e51b815260206004820152602160248201527f455243313135353a206d696e7420746f20746865207a65726f2061646472657360448201527f7300000000000000000000000000000000000000000000000000000000000000606482015260840161033e565b336000610a9e8561107e565b90506000610aab8561107e565b90506000868152602081815260408083206001600160a01b038b16845290915281208054879290610add908490611ae0565b909155505060408051878152602081018790526001600160a01b03808a1692600092918716917fc3d58168c5ae7397731d063d5bbf3d657854427343f4c083240f7aacaa2d0f62910160405180910390a4610b3d836000898989896110c9565b50505050505050565b8151835114610bbd5760405162461bcd60e51b815260206004820152602860248201527f455243313135353a2069647320616e6420616d6f756e7473206c656e6774682060448201527f6d69736d61746368000000000000000000000000000000000000000000000000606482015260840161033e565b6001600160a01b038416610c215760405162461bcd60e51b815260206004820152602560248201527f455243313135353a207472616e7366657220746f20746865207a65726f206164604482015264647265737360d81b606482015260840161033e565b3360005b8451811015610d5e576000858281518110610c4257610c42611990565b602002602001015190506000858381518110610c6057610c60611990565b602090810291909101810151600084815280835260408082206001600160a01b038e168352909352919091205490915081811015610d065760405162461bcd60e51b815260206004820152602a60248201527f455243313135353a20696e73756666696369656e742062616c616e636520666f60448201527f72207472616e7366657200000000000000000000000000000000000000000000606482015260840161033e565b6000838152602081815260408083206001600160a01b038e8116855292528083208585039055908b16825281208054849290610d43908490611ae0565b9250508190555050505080610d5790611ac7565b9050610c25565b50846001600160a01b0316866001600160a01b0316826001600160a01b03167f4a39dc06d4c0dbc64b70af90fd698a233a518aa5d07e595d983b8c0526c8f7fb8787604051610dae929190611af3565b60405180910390a4610dc481878787878761126e565b505050505050565b816001600160a01b0316836001600160a01b031603610e535760405162461bcd60e51b815260206004820152602960248201527f455243313135353a2073657474696e6720617070726f76616c2073746174757360448201527f20666f722073656c660000000000000000000000000000000000000000000000606482015260840161033e565b6001600160a01b03838116600081815260016020908152604080832094871680845294825291829020805460ff191686151590811790915591519182527f17307eab39ab6107e8899845ad3d59bd9653f200f220920489ca2b5937696c31910160405180910390a3505050565b6001600160a01b038416610f245760405162461bcd60e51b815260206004820152602560248201527f455243313135353a207472616e7366657220746f20746865207a65726f206164604482015264647265737360d81b606482015260840161033e565b336000610f308561107e565b90506000610f3d8561107e565b90506000868152602081815260408083206001600160a01b038c16845290915290205485811015610fd65760405162461bcd60e51b815260206004820152602a60248201527f455243313135353a20696e73756666696369656e742062616c616e636520666f60448201527f72207472616e7366657200000000000000000000000000000000000000000000606482015260840161033e565b6000878152602081815260408083206001600160a01b038d8116855292528083208985039055908a16825281208054889290611013908490611ae0565b909155505060408051888152602081018890526001600160a01b03808b16928c821692918816917fc3d58168c5ae7397731d063d5bbf3d657854427343f4c083240f7aacaa2d0f62910160405180910390a4611073848a8a8a8a8a6110c9565b505050505050505050565b604080516001808252818301909252606091600091906020808301908036833701905050905082816000815181106110b8576110b8611990565b602090810291909101015292915050565b6001600160a01b0384163b15610dc45760405163f23a6e6160e01b81526001600160a01b0385169063f23a6e619061110d9089908990889088908890600401611b21565b6020604051808303816000875af1925050508015611148575060408051601f3d908101601f1916820190925261114591810190611b64565b60015b6111fd57611154611b81565b806308c379a00361118d5750611168611b9d565b80611173575061118f565b8060405162461bcd60e51b815260040161033e919061144c565b505b60405162461bcd60e51b815260206004820152603460248201527f455243313135353a207472616e7366657220746f206e6f6e2d4552433131353560448201527f526563656976657220696d706c656d656e746572000000000000000000000000606482015260840161033e565b6001600160e01b0319811663f23a6e6160e01b14610b3d5760405162461bcd60e51b815260206004820152602860248201527f455243313135353a204552433131353552656365697665722072656a656374656044820152676420746f6b656e7360c01b606482015260840161033e565b6001600160a01b0384163b15610dc45760405163bc197c8160e01b81526001600160a01b0385169063bc197c81906112b29089908990889088908890600401611c27565b6020604051808303816000875af19250505080156112ed575060408051601f3d908101601f191682019092526112ea91810190611b64565b60015b6112f957611154611b81565b6001600160e01b0319811663bc197c8160e01b14610b3d5760405162461bcd60e51b815260206004820152602860248201527f455243313135353a204552433131353552656365697665722072656a656374656044820152676420746f6b656e7360c01b606482015260840161033e565b80356001600160a01b038116811461138157600080fd5b919050565b6000806040838503121561139957600080fd5b6113a28361136a565b946020939093013593505050565b6001600160e01b0319811681146113c657600080fd5b50565b6000602082840312156113db57600080fd5b81356113e6816113b0565b9392505050565b6000602082840312156113ff57600080fd5b5035919050565b6000815180845260005b8181101561142c57602081850181015186830182015201611410565b506000602082860101526020601f19601f83011685010191505092915050565b6020815260006113e66020830184611406565b634e487b7160e01b600052604160045260246000fd5b601f8201601f1916810167ffffffffffffffff8111828210171561149b5761149b61145f565b6040525050565b600067ffffffffffffffff8211156114bc576114bc61145f565b5060051b60200190565b600082601f8301126114d757600080fd5b813567ffffffffffffffff8111156114f1576114f161145f565b604051611508601f8301601f191660200182611475565b81815284602083860101111561151d57600080fd5b816020850160208301376000918101602001919091529392505050565b6000602080838503121561154d57600080fd5b823567ffffffffffffffff8082111561156557600080fd5b818501915085601f83011261157957600080fd5b8135611584816114a2565b6040516115918282611475565b82815260059290921b84018501918581019150888311156115b157600080fd5b8585015b838110156115e9578035858111156115cd5760008081fd5b6115db8b89838a01016114c6565b8452509186019186016115b5565b5098975050505050505050565b600081518084526020808501945080840160005b838110156116265781518752958201959082019060010161160a565b509495945050505050565b6020815260006113e660208301846115f6565b600082601f83011261165557600080fd5b81356020611662826114a2565b60405161166f8282611475565b83815260059390931b850182019282810191508684111561168f57600080fd5b8286015b848110156116aa5780358352918301918301611693565b509695505050505050565b600080600080600060a086880312156116cd57600080fd5b6116d68661136a565b94506116e46020870161136a565b9350604086013567ffffffffffffffff8082111561170157600080fd5b61170d89838a01611644565b9450606088013591508082111561172357600080fd5b61172f89838a01611644565b9350608088013591508082111561174557600080fd5b50611752888289016114c6565b9150509295509295909350565b60006020828403121561177157600080fd5b6113e68261136a565b6000806040838503121561178d57600080fd5b823567ffffffffffffffff808211156117a557600080fd5b818501915085601f8301126117b957600080fd5b813560206117c6826114a2565b6040516117d38282611475565b83815260059390931b85018201928281019150898411156117f357600080fd5b948201945b83861015611818576118098661136a565b825294820194908201906117f8565b9650508601359250508082111561182e57600080fd5b5061183b85828601611644565b9150509250929050565b6000806040838503121561185857600080fd5b6118618361136a565b91506020830135801515811461187657600080fd5b809150509250929050565b6000806040838503121561189457600080fd5b61189d8361136a565b91506118ab6020840161136a565b90509250929050565b6000602082840312156118c657600080fd5b813567ffffffffffffffff8111156118dd57600080fd5b6118e9848285016114c6565b949350505050565b600080600080600060a0868803121561190957600080fd5b6119128661136a565b94506119206020870161136a565b93506040860135925060608601359150608086013567ffffffffffffffff81111561194a57600080fd5b611752888289016114c6565b600181811c9082168061196a57607f821691505b60208210810361198a57634e487b7160e01b600052602260045260246000fd5b50919050565b634e487b7160e01b600052603260045260246000fd5b601f8211156119ec57600081815260208120601f850160051c810160208610156119cd5750805b601f850160051c820191505b81811015610dc4578281556001016119d9565b505050565b815167ffffffffffffffff811115611a0b57611a0b61145f565b611a1f81611a198454611956565b846119a6565b602080601f831160018114611a545760008415611a3c5750858301515b600019600386901b1c1916600185901b178555610dc4565b600085815260208120601f198616915b82811015611a8357888601518255948401946001909101908401611a64565b5085821015611aa15787850151600019600388901b60f8161c191681555b5050505050600190811b01905550565b634e487b7160e01b600052601160045260246000fd5b600060018201611ad957611ad9611ab1565b5060010190565b8082018082111561036a5761036a611ab1565b604081526000611b0660408301856115f6565b8281036020840152611b1881856115f6565b95945050505050565b60006001600160a01b03808816835280871660208401525084604083015283606083015260a06080830152611b5960a0830184611406565b979650505050505050565b600060208284031215611b7657600080fd5b81516113e6816113b0565b600060033d1115611b9a5760046000803e5060005160e01c5b90565b600060443d1015611bab5790565b6040516003193d81016004833e81513d67ffffffffffffffff8160248401118184111715611bdb57505050505090565b8285019150815181811115611bf35750505050505090565b843d8701016020828501011115611c0d5750505050505090565b611c1c60208286010187611475565b509095945050505050565b60006001600160a01b03808816835280871660208401525060a06040830152611c5360a08301866115f6565b8281036060840152611c6581866115f6565b90508281036080840152611c798185611406565b9897505050505050505056fea264697066735822122055a6a617c65a0ecc5744810a47d35fa9b6c900016cc05d77f1dfdf0d8d272ee064736f6c6343000811003368747470733a2f2f6261666b72656967616f646366327961697562687668376a6b6f35377a6572757772366b327a63656a366674763461676c67376d746f6f737a37752e697066732e6e667473746f726167652e6c696e6b2f",
  "linkReferences": {},
  "deployedLinkReferences": {}
}